:020000040800F2
:10000000780D0020C9010008CD010008CF010008CB
:10001000D1010008D3010008D5010008000000004C
:10002000000000000000000000000000D7010008F0
:10003000D901000800000000DB01000835150008A8
:10004000DF010008DF010008DF010008DF01000810
:10005000DF010008DF010008DF0100087905000862
:10006000DF010008DF010008DF010008DF010008F0
:10007000DF010008DF010008DF010008DF010008E0
:10008000DF010008DF010008DF010008DF010008D0
:10009000DF010008DF010008DF010008DF010008C0
:1000A000DF010008DF010008DF010008DF010008B0
:1000B0005F15000891150008DF010008E905000838
:1000C000D905000809060008F9050008DF01000845
:1000D000DF01000855170008A5170008DF01000818
:1000E000DF010008DF010008DF01000800F002F86E
:1000F00000F05AF80AA090E8000C82448344AAF168
:100100000107DA4501D100F04FF8AFF2090EBAE865
:100110000F0013F0010F18BFFB1A43F0010318473B
:10012000742B0000942B00000A444FF0000C10F8D0
:10013000013B13F0070408BF10F8014B1D1108BF65
:1001400010F8015B641E05D010F8016B641E01F805
:10015000016BF9D113F0080F1EBF10F8014BAD1C55
:100160000C1B09D16D1E58BF01F801CBFAD505E073
:1001700014F8016B01F8016B6D1EF9D59142D6D3CD
:10018000704700000023002400250026103A28BFF5
:1001900078C1FBD8520728BF30C148BF0B607047F9
:1001A0001FB51FBD10B510BD00F07EF81146FFF75A
:1001B000F7FF01F0F9FB00F09CF803B4FFF7F2FF42
:1001C00003BC00F0A3F8000008480047FEE7FEE784
:1001D000FEE7FEE7FEE7FEE7FEE7FEE7FEE7FEE7F7
:1001E00003480449044A054B70470000ED0000082D
:1001F00078070020780D0020780900207809002079
:1002000002F0FF0343EA032242EA024200F005B88B
:100210007047704770474FF000020429C0F0128009
:1002200010F0030C00F01B80CCF1040CBCF1020FA9
:1002300018BF00F8012BA8BF20F8022BA1EB0C017E
:1002400000F00DB85FEAC17C24BF00F8012B00F874
:10025000012B48BF00F8012B70474FF0000200B59A
:10026000134694469646203922BFA0E80C50A0E8D9
:100270000C50B1F12001BFF4F7AF090728BFA0E887
:100280000C5048BF0CC05DF804EB890028BF40F853
:10029000042B08BF704748BF20F8022B11F0804F95
:1002A00018BF00F8012B7047754600F02BF8AE46DA
:1002B00005006946534620F00700854618B020B572
:1002C000FFF78EFFBDE820404FF000064FF000071B
:1002D0004FF000084FF0000B21F00701AC46ACE8EE
:1002E000C009ACE8C009ACE8C009ACE8C0098D465B
:1002F000704710B50446AFF300802046BDE81040BB
:10030000FFF75BBF00487047140700200149182021
:10031000ABBEFEE7260002007047000005480078EB
:100320008009C1430348006861F3861001490860F1
:10033000704700000C08014004480078C14303489E
:10034000006861F300000149086070470C0C01402F
:1003500005480078C009C1430348006861F3C7102D
:1003600001490860704700000C08014010B500F01A
:1003700093F890B12948406828498968401AB0F537
:10038000487F0AD925484068244988600846C069E2
:1003900008B1C8698047052010BD00F0E3F80028C7
:1003A00039D01E48406832280CD91C484068B0F546
:1003B000487F07D21A480078401C1949087000206D
:1003C0001649486015484078962824D91448007882
:1003D00001280AD10020124908701048006910B1A4
:1003E0000E49086980470320D6E70D4800780228A7
:1003F0000AD100200A4908700848406910B107492D
:10040000486980470420C7E7002005490870034970
:1004100088604860C0E70020BEE70000AC02002012
:100420000B0000201949896921F00401091D174AB0
:1004300091611749096821F03001154A1160114690
:10044000096821F0C0018031116011490C3109683F
:1004500021F00201891C0E4A0C321160002000219B
:100460000C4A1170012191700021516051700121DD
:1004700091600021117300BF05E000220549203181
:100480000A54411CC8B20828F7D370470010024034
:1004900000080140AC0200200348007B022801D183
:1004A000FF2070470020FCE7AC02002030B50020A0
:1004B00000210022294B1B78C3F34003284CA47869
:1004C0006340274C25782034635500BF06E0244B59
:1004D00020331B5C0B44D9B2431CD8B20828F6D396
:1004E0001F4B1B785B1C1E4C237023461B78082B6C
:1004F00001D300232370082901D1022300E0012346
:100500001A46174B1B7B93420CD0154B1A731B7B5F
:10051000022B03D10023124C63601EE00023104C19
:1005200063701AE00E4B1B7B022B09D10C4B5B68EE
:100530005B1C2BB10A4B5B685B1C094C63600CE0D5
:10054000074B1B7B012B08D1054B5B78FF2B04D29B
:10055000034B5B785B1C024C637030BD08080140A4
:10056000AC0200200348007B012801D1FF20704726
:100570000020FCE7AC02002011480078C0F34000E6
:10058000E0B110480078C009C1430E48006861F32B
:10059000C7100C4908600A48006820F002000849AA
:1005A00008600720002807DB00F01F0201219140AE
:1005B000054A430942F8231000BF00BF70470000FE
:1005C000140401400C08014080E200E0014800688A
:1005D000704700000000002010B5024800F07EF8CF
:1005E00010BD00006402002010B5024800F086F83B
:1005F00010BD00006402002010B5024800F06EF843
:1006000010BD00008802002010B5024800F076F806
:1006100010BD000088020020F0B51C460023002514
:100620002C4EB1FBF6F3466863F3050646602A4E8E
:10063000B24201D85E1C07E04FF496765E434FF459
:100640007A77B6FBF7F6761C0662234EB2422DD9B6
:10065000C66926F4004606F50046C661C66964F31D
:100660008E36C661B4F5804F0DD102EB4206B1FB68
:10067000F6F6C6F30B060EB9012615E002EB4206AC
:10068000B1FBF6F610E002EBC20606EB0216B1FB78
:10069000F6F6C6F30B060EB9012605E002EBC2061C
:1006A00006EB0216B1FBF6F6354610E0C66926F4F5
:1006B0000046C6615600B1FBF6F6C6F30B06042EE3
:1006C00001D2042602E05600B1FBF6F63546AEB282
:1006D000C661F0BD40420F00A086010000B5034690
:1006E00018684068C0F3002038B118684069C0F34A
:1006F000802010B1184600F0B5F800BD10B50446D2
:1007000020684068C0F3402000280AD0607E10288E
:1007100051D12068406900F0010018B1204600F076
:1007200073FA9EE020684069C0F3400018B120468B
:1007300000F08CF995E020688069C0F38000B8B1C2
:1007400020684069C0F3C01040B120684068C0F321
:10075000802018B1204600F069FA82E020684069E4
:10076000C0F3800000287CD0204600F00EFB78E02B
:1007700020688069C0F38000002872D12068406939
:10078000C0F3801068B120684068C0F3802040B199
:1007900020684069C0F3800018B9204600F0AEF927
:1007A0005FE020684069C0F38000002859D02046EF
:1007B00000F0CEF955E0607E202852D120684069D3
:1007C000C0F3400018B1204600F0FDFA49E020686F
:1007D0004069C0F3001018B1204600F025FB40E04E
:1007E00020688069C0F38000D8B120684069C0F3F8
:1007F000C01068B120684068C0F3802040B1206814
:100800004069C0F3800018B9204600F02CFB28E0B6
:1008100020684069C0F3800018B3204600F039FB1F
:100820001FE020688069C0F38000D0B9206840696B
:10083000C0F3801068B120684068C0F3802040B1E8
:1008400020684069C0F3800018B9204600F0C8FA5B
:1008500007E020684069C0F3800010B1204600F036
:10086000D5FA10BD0168496921F4806102685161BF
:100870000168096821F480610268116001684968B3
:1008800021F4E06102685160417E102907D10168BE
:10089000096821F4007101F5007102681160704768
:1008A00010B504466349206888423AD1624880699D
:1008B00020F008000830604988616048006820F036
:1008C0004040A0F180405D4908600846006820F083
:1008D000405000F1405008600846006820F0406039
:1008E00000F1406008600846006820F0407000F1A8
:1008F000407008605048C06920F4001000F50010F6
:100900004D49C86100211F2000F0E8FF1F2000F0C2
:10091000C3FF0021202000F0E1FF202000F0BCFFF9
:100920003FE04749206888423BD14348806920F036
:1009300008000830404988614048001D006820F4E4
:10094000406000F540603D49091D086008460068A8
:1009500020F4407000F5407008600846006820F4FC
:10096000404000F5404008600846006820F44050D0
:1009700000F5405008603048C06920F4800000F560
:1009800080002D49C8610021212000F0A7FF21200F
:1009900000F082FF0021222000F0A0FF222000F0C2
:1009A0007BFF2068006820F001002168086000BF1C
:1009B0002068006820F4004000F5004021680860CD
:1009C0002068006820F400402168086000BF002310
:1009D0001C4A1D492068FFF71FFEA17D20680068A2
:1009E00061F3C71021680860E17D2068006861F349
:1009F000861021680860A17E2068806861F3CF308E
:100A000021688860E08B4FF4804141EA4000216812
:100A1000886094F820102068C06861F3470021685E
:100A2000C8602068006820F00100401C2168086050
:100A300010BD00000054004000100240000C0140B6
:100A400000580040A08601000051250208B5016849
:100A50008969C1F38001002944D10189012919D193
:100A60000168096821F480610268116000BF0021FB
:100A7000009101684969009101688969009100BF8E
:100A800000BF0168096821F4007101F50071026876
:100A9000116032E00189022919D10168096821F445
:100AA000006101F500610268116000BF0021009142
:100AB00001684969009101688969009100BF00BF20
:100AC0000168096821F480610268116015E000BFC7
:100AD00000210091016849690091016889690091CC
:100AE00000BF0AE000BF0021009101684969009140
:100AF00001688969009100BF00BF08BD0189022912
:100B000006D10168496821F480610268516070472C
:100B1000418999B101680969426811704168491CAD
:100B200041604189491E41814189032905D10168FC
:100B3000496821F4806102685160E8E7016809684A
:100B400021F4007101F500710268116000BFDEE759
:100B50004189032928D10168096821F4806102686C
:100B6000116001680969426811704168491C41605F
:100B70004189491E41810168096821F4007101F52C
:100B8000007102681160016809694268117041686A
:100B9000491C41604189491E41810168496821F42D
:100BA00040710268516070470189022922D10168B1
:100BB000096821F4007101F500710268116009E013
:100BC00001680969426811704168491C41604189A6
:100BD000491E418141890029F2D10168096821F447
:100BE0000061026811600168496821F4407102687F
:100BF0005160D8E70168096821F4007101F50071BE
:100C00000268116000BFCEE7027F5206110EC27E5D
:100C10001AB9CAB203681A6107E0C27E012A04D178
:100C200041F00101CAB203681A6170470021428A8B
:100C300092B1C268117802681161C268521CC26028
:100C4000428A521E4282428A2AB90268526822F4BB
:100C5000806203685A6070470268126822F400726A
:100C600002F5007203681A6000BFF4E72DE9F84F3F
:100C70000446884615461E46DDF82890FFF7A6FC78
:100C800082464FEA48604FEA106B0027206800F068
:100C9000010020B9206820F00100401C206052466D
:100CA0004946204600F003F9012802D10220BDE8A0
:100CB000F88F206820F4807000F580702060012398
:100CC00052464946204600F008F9012807D120681D
:100CD00020F4007000F5007020600420E7E70BF0BE
:100CE000FF002061022352464946204600F0F5F8F5
:100CF000012807D1206820F4007000F50070206002
:100D00000520D4E700BF0020009060690090A06932
:100D1000009000BF00BF1EE0802352464946204697
:100D200000F0DBF8012807D1206820F4007000F5FE
:100D3000007020600620BAE72F78701E86B26D1C06
:100D400027616069C0F3800028B126B12F786D1C3F
:100D5000701E86B22761002EDED10423524649461A
:100D6000204600F0BAF8012807D1206820F400706E
:100D700000F500702060082099E7206820F40070DA
:100D800000F500702060002091E70021428A52B1F6
:100D9000C268117802681161C268521CC260428A3E
:100DA000521E428270470268526822F44072036801
:100DB0005A600268126822F4007202F50072036839
:100DC0001A6000BFEEE708B500BF0021009101687E
:100DD0004969009101688969009100BF00BF08BDA1
:100DE000418991B101680969491C426811704168E3
:100DF000491C41604189491E4181418929B90168E5
:100E0000496821F48061026851607047418951B19D
:100E100001680969491C426811704168491C4160B8
:100E20004189491E4181704708B500BF00210091EA
:100E3000016849690091016809680091009921F4ED
:100E40000071009100990268116000BF0168096893
:100E500021F48061026811600168496821F4E06151
:100E60000268516008BD0021428A8AB1C2681178C7
:100E700002681161C268521CC260428A521E4282DC
:100E8000428A2AB90268526822F4806203685A6072
:100E900070470021428A4AB1C26811780268116124
:100EA000C268521CC260428A521E4282704770B5AC
:100EB00005460C46164609E0601C38B1FFF786FB74
:100EC000801BA04200D80CB9012070BDA869C0F3F6
:100ED00040000028F0D100BFF7E72DE9F0410546BA
:100EE0000E4617461C4610E06869C0F3802010B11A
:100EF0000120BDE8F081701C38B1FFF767FBC01B13
:100F0000B04200D80EB90120F3E7C4F3074001282E
:100F100009D1A869A1B20840A1B2884201D101203B
:100F20000AE0002008E06869A1B20840A1B2884246
:100F300001D1012000E000200028D5D00020D8E712
:100F400001498870704700001000002010B5002093
:100F500000F04AF800F0EAF910BD0000F0B50346D1
:100F60001446802B01DC402900DDF0BDFF2C1BD195
:100F7000CD1701EB5575ED101A4E06EBC515ED5C5E
:100F80000A46CE1701EB5676F610A1EBC6070126EE
:100F9000BE4035430846CE1701EB5676F610114F8A
:100FA00007EBC616F5541AE0CD1701EB5575ED1099
:100FB0000C4E06EBC515ED5C0A46CE1701EB5676D6
:100FC000F610A1EBC6070126BE40B5430846CE1772
:100FD00001EB5676F610034F07EBC616F55400BF2B
:100FE000C3E70000D402002010B5044622464FF4A7
:100FF00080610248FFF704F910BD0000D402002010
:101000001CB50446B0480460642000F08FFC00BFAB
:10101000AEA0006801901420022301AA3C21009098
:10102000A9480068FFF722FE00BF00BFA8A0006823
:1010300001901420022301AA3C210090A2480068DC
:10104000FFF714FE00BF00BFA2A0006801901420AB
:10105000022301AA3C2100909B480068FFF706FE8E
:1010600000BF00BF9CA0006801901420022301AAC9
:101070003C21009094480068FFF7F8FD00BF00BFD6
:10108000002001901420022301AA3C2100908E48E8
:101090000068FFF7EBFD00BF00BF90A00068019063
:1010A0001420022301AA3C21009087480068FFF722
:1010B000DDFD00BF00BF8AA000680190142002235C
:1010C00001AA3C21009080480068FFF7CFFD00BFD7
:1010D00000BF84A0006801901420022301AA3C21D3
:1010E000009079480068FFF7C1FD00BF00BF7EA0F7
:1010F000006801901420022301AA3C21009072484C
:101100000068FFF7B3FD00BF00BF78A00068019042
:101110001420022301AA3C2100906B480068FFF7CD
:10112000A5FD00BF00BF72A000680190142002233B
:1011300001AA3C21009064480068FFF797FD00BFBA
:1011400000BF6CA0006801901420022301AA3C217A
:1011500000905D480068FFF789FD00BF00BF0020D8
:1011600001901420022301AA3C21009056480068F7
:10117000FFF77CFD00BF00BF5EA000680190142057
:10118000022301AA3C2100904F480068FFF76EFD42
:1011900000BF00BF58A0006801901420022301AADC
:1011A0003C21009048480068FFF760FD00BF00BF89
:1011B00052A0006801901420022301AA3C21009053
:1011C00041480068FFF752FD00BF00BF4CA0006817
:1011D00001901420022301AA3C2100903A480068A3
:1011E000FFF744FD00BF00BF46A000680190142037
:1011F000022301AA3C21009033480068FFF736FD26
:1012000000BF00BF40A0006801901420022301AA83
:101210003C2100902C480068FFF728FD00BF00BF6C
:101220003AA0006801901420022301AA3C210090FA
:1012300025480068FFF71AFD00BF00BF34A0006812
:1012400001901420022301AA3C2100901E4800684E
:10125000FFF70CFD00BF00BF25A00068019014201F
:10126000022301AA3C21009017480068FFF7FEFC0A
:1012700000BF00BF27A0006801901420022301AA2C
:101280003C21009010480068FFF7F0FC00BF00BF51
:1012900021A0006801901420022301AA3C210090A3
:1012A00009480068FFF7E2FC00BF00BF1BA0006810
:1012B00001901420022301AA3C21009002480068FA
:1012C000FFF7D4FC00BF1CBD1400002000AE0000DE
:1012D00000A80000003F000000D300000040000014
:1012E00000A1000000C8000000DA000000120000A9
:1012F000002000000010000000810000007F0000BE
:1013000000A4000000A6000000D50000008000003E
:1013100000DB0000008D00000014000000AF0000A2
:10132000014A107051707047100000207CB50024F5
:1013300048E000BF0020019004F1B000C0B28DF879
:1013400005001420022301AA3C2100901F480068D8
:10135000FFF78CFC00BF00BF002001901420022387
:1013600001AA3C21009019480068FFF77FFC00BFEC
:1013700000BF17A0006801901420022301AA3C219D
:10138000009012480068FFF771FC00BF002515E0CF
:1013900000BF10A0006801900F4800EBC410405D32
:1013A0008DF805001420022301AA3C210090074873
:1013B0000068FFF75BFC00BF681CC5B2802DE7DB4F
:1013C000601CC4B2082CB4DB7CBD000014000020FB
:1013D0000010000040000000D40200202DE9FF476B
:1013E00081B081460D9F3D4840789DF80910084422
:1013F000402803DD002005B0BDE8F08737480078BD
:101400009DF808100844802804DD3448807808B925
:101410000020F0E7314800789DF808100844802843
:101420000DDD2E488078012809D100202B49087055
:10143000084640789DF809100844284948706946D4
:10144000484600F0D7F98246504600F005FA0646B5
:10145000002430E09DF8091006FB0141039830F8A4
:101460001180002521E008FA05F000F4004058B191
:101470001A4A52782244D1B2184A12782A44D0B279
:101480003A46FFF76BFD0EE00FB9012300E00023A1
:101490001A46124B5B782344D9B2104B1B782B446D
:1014A000D8B2FFF75BFD681CC5B29DF80800A842E2
:1014B000D9DC601CC4B29DF80900A042CADC074810
:1014C0000178049810B10498805D01E09DF808004F
:1014D0000844024908709DF800008CE710000020C5
:1014E0007FB581B00446099E00250BE0009620469A
:1014F00002A90EC9FFF772FF054615B9207805B09D
:1015000070BD2C4420780028F0D12078F7E7000047
:101510000149086170470000AC02002001494861A0
:1015200070470000AC0200200149C861704700000C
:10153000AC02002010B504480068401C0249086055
:10154000FEF7B4FF10BD0000000000204FF0E021C6
:101550008861486107214FF0E0221161704710B5A2
:101560004FF08040007B00F0010080B14FF08040E0
:10157000007C00F0010050B14FF08040006920F085
:1015800001004FF0804108611C2000F077F910BD88
:1015900010B50B48007800F0010080B10848001D2C
:1015A000007800F0010050B10548001D006820F0EF
:1015B00001000349091D08601D2000F05FF910BDFE
:1015C0000C0400402548806920F00400001D2349D8
:1015D00088610846806920F008000830886120484A
:1015E000006820F0405000F140501D490860084656
:1015F000006820F04040086019480C30006820F076
:10160000800017490C3108601548006820F04070D0
:1016100000F14070124908600846006820F0406000
:1016200008600F480C30006820F040000C490C3175
:1016300008600C48006820F00300C01C09490860DD
:101640000846006820F00C00086006480C3000686E
:1016500020F0010003490C3108607047001002407F
:1016600000080140000C014008B5FFF76FFC0021A5
:101670000846FFF755FE0120FFF762FCFF200090AF
:1016800003480EC80348FFF72BFFFFF74FFE08BDC6
:10169000442C0008502C000810B52B48806920F01D
:1016A0000400001D284988610846806920F48040B4
:1016B00000F5804088612548006820F0C000803037
:1016C000224908600846006820F030002030086099
:1016D0000846006820F4406000F500600860084695
:1016E000006820F4407008601948006820F00F007E
:1016F000401C1749086027211548006861F30F1046
:1017000013490860081D006820F008000830091D12
:1017100008600846006820F00400001D08600846C4
:10172000006820F02000203008600846006820F49F
:10173000005000F500500860252000F0BEF801219F
:10174000252000F0DFF810BD001002400408014021
:101750000838014011480078C0F34010E8B10F4844
:101760000C380078C0F34010B8B10D4800781E283E
:101770000BDA0A480838017809480278401C81547D
:10178000401E0078401C0649087004480C38006868
:1017900020F0200001490C39086070470C380140E6
:1017A000D406002011480078C0F34010E8B10F487B
:1017B0000C380078C0F34010B8B10D4800781E28EE
:1017C0000BDA0A480838017809480278401C81542D
:1017D000401E0078401C0649087004480C38006818
:1017E00020F0200001490C39086070470C4400408B
:1017F000F306002010B502460020147804F0F00330
:101800001478802C03D201240C70107810BDC02BEA
:1018100006D102240C705078147840EA042019E0B4
:10182000E02B09D103240C709078547840EA04200E
:10183000147840EA04400DE0F02B0BD104240C7026
:10184000D078947840EA0420547840EA0440147830
:1018500040EA046000BFD9E701460020912200BFA2
:1018600006E0054B53F820308B4200D102E0401CCB
:101870009042F6D300BF704718000020002807DB15
:1018800000F01F0201219140024A430942F823104F
:101890007047000080E200E000280DDB00BF00BFC1
:1018A00000F01F02012191404209920002F1E02262
:1018B000C2F8001100BF00BF704700280DDB00BF59
:1018C00000BF00F01F02012191404209920002F185
:1018D000E022C2F8001100BF00BF704710B5002819
:1018E00004DB0A07130E054A135406E00A07140E18
:1018F000034A00F00F031B1FD45410BD00E400E0A6
:1019000018ED00E010B5002804DB0A07130E054AA5
:10191000135406E00A07140E034A00F00F031B1FBE
:10192000D45410BD00E400E018ED00E000B501461D
:10193000FEF74CFE024600BFFEF748FE801A8842C2
:10194000FAD300BD10B500F035F80F48FFF7FEFDE3
:10195000FFF7A2FEFFF736FEFEF764FD0B48FFF728
:10196000D7FD0B48FFF7DAFD0A48FFF7DDFD0A480F
:101970000A4908600846FEF793FF0748FFF740FB57
:10198000FFF772FE10BD00003F1901001D030008A3
:10199000510300083903000800540040640200208D
:1019A00010B5FEF7E3FC10BDFFF7CCFF01E0FFF739
:1019B000F7FFFCE72D48006820F4803000F5803008
:1019C0002A49086000BF29480068C0F34040002849
:1019D000F9D00220264908602448406820F40030ED
:1019E000224948600846406820F4803000F5803085
:1019F00048600846406820F4701000F5E010486028
:101A00000846406820F0F00048600846406820F42E
:101A1000E06000F5806048600846406820F460504F
:101A200048600846006820F0807000F1807008600F
:101A300000BF0E480068C0F340600028F9D00B4892
:101A4000406820F00300801C0849486000BF074838
:101A50004068C0F381000228F9D10448806920F071
:101A60000100401C014988617047000000100240DD
:101A70000020024000000000000000000000000004
:101A80000000000000000000000000000000000056
:101A90000000000000000000001000100010001006
:101AA00000100010001000000010000000000000F6
:101AB00000000000000000140014001400000000EA
:101AC0000000000000000000000000000000000016
:101AD00000000000000900090012003F0012003F52
:101AE000001200240024000000000000000000009C
:101AF0000008001C002A00280038000C000A000A18
:101B0000002A001C00080000000000000000000087
:101B1000801080280029001200024004A008A008BC
:101B2000401000000000000000000000000000075E
:101B30000009000AC00C8018002500262022C01DC4
:101B40000000000000000000000000000020002055
:101B50000020000000000000000000000000000065
:101B6000000000000000000000000008001000104D
:101B7000002000200020002000200010001000089D
:101B8000000000000000000000200010001000080D
:101B900000080008000800080010001000200000E5
:101BA0000000000000000008002A001C002A0008B5
:101BB0000000000000000000000000000000000025
:101BC000000000000000000400040004803F000446
:101BD00000040004000000000000000000000000FD
:101BE00000000000000000000000000000000000F5
:101BF0000000003000100020000000000000000085
:101C0000000000000000000000000000003800009C
:101C100000000000000000000000000000000000C4
:101C200000000000000000000000000000000010A4
:101C30000000000000000000000000000008000894
:101C40000010001000100010001000200020000004
:101C500000000000000000000000001C0022002224
:101C600000220022002200220022001C00000000AE
:101C70000000000000000000000800180008000834
:101C80000008000800080008001C00000000000018
:101C9000000000000000001C002200020002000200
:101CA000000400080012003E0000000000000000D8
:101CB00000000000001C002200020004000C0002D2
:101CC00000020002003C00000000000000000000D4
:101CD0000000000200060006000A00120022003F79
:101CE00000020002000000000000000000000000F0
:101CF000000E0010001800040002000200020004A0
:101D00000038000000000000000000000000000695
:101D100000080010002C0032002200220022001CCB
:101D2000000000000000000000000000001E002273
:101D30000002000400040004000400080008000081
:101D400000000000000000000000001C0022002233
:101D500000140008001400220022001C00000000F3
:101D60000000000000000000001C002200220022F1
:101D70000022001E000400080030000000000000E7
:101D80000000000000000000000000000010000043
:101D90000000000000000010000000000000000033
:101DA0000000000000000000000000100000000023
:101DB00000000000001800080010000000000000F3
:101DC0000000000000000003001C0020001C0003B5
:101DD0000000000000000000000000000000000003
:101DE000000000000000003F0000003F0000000075
:101DF00000000000000000000000000000000000E3
:101E000000000030000E0001000E00300000000055
:101E10000000000000000000000000000018002486
:101E20000024000400080010001000000010000052
:101E300000000000000000000000C0072008501350
:101E4000D024502850289028A0294026101020087F
:101E5000C007000000000000000800080014001483
:101E60000012001E0021002180730000000000000D
:101E7000000000000000003E001100110011001FD2
:101E8000801080108010003F000000000000000063
:101E900000000000800E8011802000200020002023
:101EA00080200011000E0000000000000000000073
:101EB0000000003F801040104010401040104010C3
:101EC0008010003F00000000000000000000000043
:101ED000003F001100100012001E001200108010C0
:101EE000003F000000000000000000000000003F74
:101EF000001100100012001E001200100010003827
:101F0000000000000000000000000000800E8011B2
:101F100080200020C021802080208010000F000041
:101F200000000000000000000000C0398010801098
:101F30008010801F801080108010C03900000000C9
:101F40000000000000000000003800100010001029
:101F50000010001000100010003800000000000009
:101F6000000000000000001C000800080008000835
:101F700000080008002800300000000000000000F9
:101F800000000000C03900110012001400180014F5
:101F900000120011C0390000000000000000000025
:101FA0000000003800100010001000100010001099
:101FB0008010003F00000000000000000000000052
:101FC000383830185014501490129012901210118A
:101FD0003839000000000000000000000000C0319F
:101FE0008010801880148012801280118010803838
:101FF000000000000000000000000000000F801042
:10200000402040204020402040208010000F000051
:1020100000000000000000000000003E0011001160
:102020000011001E00100010001000380000000019
:102030000000000000000000000F80104020402041
:102040004020402040208010000F0002C00100000E
:10205000000000000000003E001100110011001EF1
:10206000001200120011C038000000000000000043
:1020700000000000001E002200200010000C0002E2
:1020800000020022003C00000000000000000000F0
:102090000000803F802400040004000400040004C9
:1020A0000004000E0000000000000000000000001E
:1020B000C039801080108010801080108010801037
:1020C000000F00000000000000000000000000778A
:1020D000002200220022001400140014000800084E
:1020E00000000000000000000000000070772022C7
:1020F00020224022401540158019800880080000E9
:1021000000000000000000000000807300210012A9
:10211000000C0004000C001200218073000000007D
:102120000000000000000000807300210012001475
:102130000014000800080008001C00000000000057
:10214000000000000000801F0011000200020004D7
:10215000000880108010803F000000000000000098
:1021600000000000001C0010001000100010001003
:102170000010001000100010001C00000000000003
:1021800000000020002000100010001000100010BF
:10219000000800080000000000000000000000002F
:1021A000007000100010001000100010001000104F
:1021B000001000100070000000000000000C001271
:1021C00000120021000000000000000000000000DC
:1021D00000000000000000000000000000000000FF
:1021E00000000000000000000000000000000000EF
:1021F0000000003F00000000000000000010000888
:1022000000000000000000000000000000000000CE
:1022100000000000000000000000000000000018A6
:102220000024001C00240024001E00000000000008
:10223000000000000000006000200020002C0032A0
:10224000002200220022001C00000000000000000C
:1022500000000000000000000000001C002400201E
:102260000020002400180000000000000000000012
:102270000000000600020002001A002600220022D0
:102280000022001F0000000000000000000000000D
:1022900000000000000000180024003C0020002482
:1022A0000018000000000000000000000000000E08
:1022B000001200100038001000100010001000384C
:1022C000000000000000000000000000000000000E
:1022D0000000001E0024002400180020001C002222
:1022E0000022001C00000000000000300010001060
:1022F0000014001A001200120012003B000000003F
:10230000000000000000000000100000000000308D
:102310000010001000100010003800000000000045
:10232000000000000000001000000000003000105D
:1023300000100010001000100010001000600000DD
:1023400000000000003000100010001600140018FB
:1023500000140012003B000000000000000000001C
:1023600000000030001000100010001000100010DD
:102370000010003800000000000000000000000015
:102380000000000000008034401B40124012401248
:10239000603B0000000000000000000000000000A2
:1023A000000000000034001A001200120012003B6E
:1023B000000000000000000000000000000000001D
:1023C0000000001C0022002200220022001C00004D
:1023D00000000000000000000000000000000000FD
:1023E000003600190011001100190016001000102D
:1023F0000038000000000000000000000000001A8B
:102400000026002200220026001A00020002000717
:102410000000000000000000000000000034001870
:102420000010001000100038000000000000000044
:102430000000000000000000001C00240030000C20
:102440000024003800000000000000000000000030
:1024500000000000001000100038001000100010F4
:102460000010001800000000000000000000000044
:1024700000000000000000360012001200120012DE
:10248000000F00000000000000000000000000003D
:10249000000000000073002200140014000800086F
:1024A000000000000000000000000000000000002C
:1024B00000006037401280128016000900090000F9
:1024C000000000000000000000000000000000000C
:1024D0000036001400080008001400360000000058
:1024E0000000000000000000000000000000007775
:1024F00000220024001400140008000800100060EE
:10250000000000000000000000000000003E002469
:10251000000800080012003E00000000000000005B
:102520000000000000040008000800080008001077
:102530000008000800080008000400000000000077
:1025400000000020002000200020002000200020AB
:1025500000200020002000200000000000000000FB
:102560000010000800080008000800040008000827
:10257000000800080010000000000000000000003B
:102580000000000000000000001A002C0000000005
:102590000000000000000010000800000008000813
:1025A000001400140012001E00210021807300009E
:1025B00000000000000400080000000800080014EB
:1025C00000140012001E0021002180730000000092
:1025D00000000008001400000008000800140014A7
:1025E0000012001E00210021807300000000000086
:1025F000001A001600000008000800140014001261
:10260000001E002100218073000000000000000473
:102610000004001C00080008001400140012001E32
:102620000021002180730000000000000008000469
:102630000000003F001100100012001E00120010E8
:102640008010003F000000000000000200040000B5
:10265000003F001100100012001E00120010801038
:10266000003F0000000000000004000A0000003FDE
:10267000001100100012001E001200108010003F18
:1026800000000000000000200010000000380010D2
:1026900000100010001000100010001000380000A2
:1026A00000000000000800100000003800100010BA
:1026B0000010001000100010001000380000000092
:1026C0000000000400020000000F801040204020A5
:1026D0004020402040208010000F0000000000003B
:1026E000000200040000000F801040204020402025
:1026F000402040208010000F000000000000000279
:1027000000050000000F80104020402040204020A5
:1027100040208010000F000000000000000D000BA2
:102720000000000F8010402040204020402040202A
:102730008010000F000000000000000400020000F4
:10274000C0398010801080108010801080108010A0
:10275000000F000000000000000200040000C0396B
:102760008010801080108010801080108010000F6A
:10277000000000000000001400080000000800082D
:10278000001400140012001E0021002180730000BC
:1027900000000000000000000000003F801040101A
:1027A000403E4010401040108010003F00000000EC
:1027B00000000034002C0000003800100010001051
:1027C0000010001000100010003800000000000091
:1027D000800500070000C039801080108010801034
:1027E000801080108010000F00000000000000002A
:1027F00000004000C00F80104020402040204020BA
:1028000040208010000F00000000000000000000C9
:10281000000000100008000000180024001C002424
:102820000024001E00000000000000000000000066
:1028300000040008000000180024001C00240024EC
:10284000001E000000000000000000000000000862
:102850000014000000180024001C00240024001EA6
:102860000000000000000000000000000034002C08
:10287000000000180024001C00240024001E00009A
:102880000000000000000000000000100008000030
:1028900000180024003C0020002400180000000064
:1028A0000000000000000000000400080000001804
:1028B0000024003C0020002400180000000000005C
:1028C00000000000000000080014000000180024B0
:1028D000003C002000240018000000000000000060
:1028E0000000000000200010000000300010001068
:1028F0000010001000380000000000000000000080
:10290000000000080010000000300010001000104F
:10291000001000380000000000000000000000006F
:10292000001000080000001C0022002200220022EB
:10293000001C000000000000000000000000000477
:1029400000080000001C0022002200220022001CBF
:10295000000000000000000000000000000800145B
:102960000000001C0022002200220022001C0000A7
:1029700000000000000000000000001A0016000027
:10298000001C0022002200220022001C0000000087
:1029900000000000000000000008000400000036F5
:1029A0000012001200120012000F000000000000D0
:1029B00000000000000000040008000000360012C3
:1029C000001200120012000F0000000000000000C2
:1029D0000000000000140008000000180024001C83
:1029E00000240024001E0000000000000000000081
:1029F00000000006000F0002001A0026002200223C
:102A00000022001F00000000000000000000000085
:102A1000009000E000000060002000200020002066
:102A20000070000000000000000000000000001A1C
:102A30000016000000360012001200120012000FF3
:102A40000000000000000000000000000000000086
:102A50000000001D0023002200220022001C0000B4
:102A600000000000000000002000E039801080100D
:102A700080108010801080108010000F0000000077
:102A800000000014000800000008000800140014F2
:102A90000012001E002100218073000000000000D1
:102AA00000080014000000080008001400140012C0
:102AB000001E0021002180730000000000000004BF
:102AC000000A0000003F001100100012001E00125A
:102AD00000108010003F0000000000000002000510
:102AE0000000000F80104020402040204020402067
:102AF0008010000F00000000000000000000000037
:102B00000000000000008036801300120012001246
:102B1000000F000000000000000000000000001492
:102B20000008000000180024001C00240024001EDF
:102B30000000000000000000000000000008001479
:102B4000000000180024001C00240024001E0000C7
:102B50000000000000040000000000080014000055
:102B600000180024001C00240024001E00000000A7
:102B70000000000000000000000800140000001821
:102B80000024003C00200024001800000000000089
:102B9000000000000000000800140000001C0022DB
:102BA000002200220022001C000000000000050698
:102BB0000708080C0B0406060809050605050808A1
:102BC00008080808080808080505090909070D0B81
:102BD0000A0A0B09090B0B06070B090E0B0B090B55
:102BE0000A080A0B0A0E0B0B0A0605060808060758
:102BF00008070807070708050508050B080809085E
:102C000006070608080B070908080408080B0B0B41
:102C10000B0B09090906060B0B0B0B0B0B0B0B0619
:102C20000B0B07070707070707050508080808082B
:102C30000807080508080B0B0B090B09070707070E
:102C4000080000000E0F0000741A0008AE2B0008E8
:102C500042C3B969204E677579C3AA6E202D204FF3
:102C60006D65676120566F6E20506569202D20428A
:102C7000C3B9692056C4836E204E677579C3AA6EA6
:102C8000202D203238202D203034202D203230309D
:102C900031000000B42C0008000000206402000095
:102CA00028010008082E000864020020140B000010
:102CB00084010008410312024832203221322232BC
:102CC00023322432253226322732283229322A3240
:102CD0002B322C322D322E322F32303231323232F0
:102CE00033323432353236323732383239323A32A0
:102CF0003B323C323D323E323F3240324132423250
:102D000043324432453246324729B33249324A329D
:102D10004B324C324D324E324F32503251325232AF
:102D200053325432553256325732583259325A325F
:102D30005B325C325D325E325F326032613262320F
:102D400063326432653266326732683269326A32BF
:102D50006B326C326D326E326F327032713272326F
:102D600073327432753276327732783279327A321F
:102D70007B327C327D327E2380C31A81041A820426
:102D80001A830414A4BAE11A88081A89041A8A0456
:102D90001A8C041A8D041A92041A93041A94041AB1
:102DA00095041A99042A9A3822C41A90042AA8046D
:102DB00022C51BA0C60419181AA1041AA2041AA33A
:102DC000041AA8041AA9041AAA041AAC041AAD0415
:102DD0001AB2041AB3041AB4041AB5041AB9042AAC
:102DE000BA8419481A91042AA90419501AA1501A30
:102DF000AF04296829A4299429841AB014292C29FC
:082E0000641AA5B4295C294CF9
:04000005080000ED02
:00000001FF
