:020000040800F2
:10000000B0060020890100088D0100088F0100085A
:10001000910100089301000895010008000000000C
:100020000000000000000000000000009701000830
:1000300099010008000000009B010008C9080008A1
:100040009F0100089F0100089F0100089F01000810
:100050009F0100089F0100089F0100083D02000861
:100060009F0100089F0100089F0100089F010008F0
:100070009F0100089F0100089F0100089F010008E0
:100080009F0100089F0100089F0100089F010008D0
:100090009F0100089F0100089F0100089F010008C0
:1000A0009F0100089F0100089F0100089F010008B0
:1000B000EB0800081D0900089F0100089F010008C7
:1000C0009F0100089F0100089F0100089F01000890
:1000D0009F01000895090008E50900089F01000834
:1000E0009F0100089F0100089F01000800F002F82E
:1000F00000F03AF80AA090E8000C82448344AAF188
:100100000107DA4501D100F02FF8AFF2090EBAE885
:100110000F0013F0010F18BFFB1A43F0010318473B
:10012000940A0000B40A0000103A24BF78C878C1CD
:10013000FAD8520724BF30C830C144BF04680C60ED
:10014000704700000023002400250026103A28BF35
:1001500078C1FBD8520728BF30C148BF0B60704739
:100160001FB51FBD10B510BD00F02DF81146FFF7EB
:10017000F7FF00F0B9FC00F04BF803B4FFF7F2FF13
:1001800003BC00F053F8000008480047FEE7FEE714
:10019000FEE7FEE7FEE7FEE7FEE7FEE7FEE7FEE737
:1001A00003480449044A054B70470000ED0000086D
:1001B000B0000020B0060020B0020020B0020020F5
:1001C000704770477047754600F02CF8AE46050042
:1001D0006946534620F00700854618B020B5FFF762
:1001E000DFFFBDE820404FF000064FF000074FF062
:1001F00000084FF0000B21F00701AC46ACE8C00945
:10020000ACE8C009ACE8C009ACE8C0098D4670474D
:1002100010B50446AFF300802046BDE81040FFF75C
:10022000ACBF0000004870474C0000200149182076
:10023000ABBEFEE7260002007047000011480078C0
:10024000C0F34000E0B110480078C009C1430E4837
:10025000006861F3C7100C4908600A48006820F084
:100260000200084908600720002807DB00F01F0291
:1002700001219140054A430942F8231000BF00BF05
:1002800070470000140401400C08014080E200E0C7
:10029000014800687047000000000020F0B51C46CF
:1002A000002300252C4EB1FBF6F3466863F30506E8
:1002B00046602A4EB24201D85E1C07E04FF49676A3
:1002C0005E434FF47A77B6FBF7F6761C0662234E50
:1002D000B2422DD9C66926F4004606F50046C6612D
:1002E000C66964F38E36C661B4F5804F0DD102EB5A
:1002F0004206B1FBF6F6C6F30B060EB9012615E071
:1003000002EB4206B1FBF6F610E002EBC20606EB8A
:100310000216B1FBF6F6C6F30B060EB9012605E090
:1003200002EBC20606EB0216B1FBF6F6354610E00C
:10033000C66926F40046C6615600B1FBF6F6C6F360
:100340000B06042E01D2042602E05600B1FBF6F69D
:100350003546AEB2C661F0BD40420F00A086010036
:1003600010B50446264884422BD12648806920F0E7
:1003700008000830234988612348006820F0404085
:10038000A0F18040204908600846006820F04050F5
:1003900000F1405008600846006820F0406000F11D
:1003A000406008600846006820F0407000F140702E
:1003B00008601448C06920F4001000F500101149CD
:1003C000C861206820F00100206000BF206820F490
:1003D000004000F500402060206820F400402060CC
:1003E00000BF4FF48040A0600023084A084920461F
:1003F000FFF754FF206820F00100401C206010BD72
:100400000054004000100240000C0140A086010092
:10041000005125022DE9F84F0446884691461D46B5
:10042000DDE90A6AFFF734FF83464FEA4860070EAA
:10043000206800F0010020B9206820F00100401C75
:1004400020605A465146204600F0F4F9012802D1B6
:100450000220BDE8F88F206820F4807000F58070DD
:10046000206001235A465146204600F0F9F9012840
:1004700007D1206820F4007000F50070206004208F
:10048000E7E7F8B2206102235A465146204600F0C1
:10049000E7F9012807D1206820F4007000F500700A
:1004A00020600520D5E700BF002000906069009023
:1004B000A069009000BF00BF80235A4651462046E5
:1004C00000F0CEF9012807D1206820F4007000F573
:1004D000007020600620BCE709F0FF002061802347
:1004E0005A465146204600F0BBF9012807D1206842
:1004F00020F4007000F5007020600620A9E7206855
:1005000020F4807000F58070206001235A46514627
:10051000204600F0A5F9012807D1206820F40070DA
:1005200000F500702060042093E747F00107012EDA
:1005300033D1F8B22061206820F48060206002236B
:100540005A465146204600F08BF9012807D1206811
:1005500020F4007000F500702060052079E700BFEE
:100560000020009060690090A069009000BF00BF6B
:10057000206820F4007000F50070206040235A4687
:100580005146204600F06CF9012801D1072060E7B0
:1005900020692870701E86B2BBE0022E4DD1206803
:1005A00020F4006000F500602060206820F4806086
:1005B00000F580602060F8B2206102235A4651465F
:1005C000204600F04DF9012807D1206820F4007082
:1005D00000F50070206005203BE700BF0020009080
:1005E00060690090A069009000BF00BF206820F4FF
:1005F0008060206004235A465146204600F030F9BE
:10060000012807D1206820F4007000F500702060F8
:1006100008201EE7206820F4007000F500702060BC
:1006200004E0206928706D1C701E86B2002EF8D17F
:10063000206820F4006020606BE0206820F4806077
:1006400000F580602060F8B2206102235A465146CE
:10065000204600F005F9012807D1206820F4007039
:1006600000F5007020600520F3E600BF0020009038
:1006700060690090A069009000BF00BF14E04023B3
:100680005A465146204600F0EBF8012807D1206871
:1006900020F4007000F5007020600720D9E6206982
:1006A00028706D1C701E86B2032EE8D804235A46AB
:1006B0005146204600F0D4F8012807D1206820F4E4
:1006C000007000F5007020600820C2E6206820F469
:1006D00080602060206928706D1C701E86B22068C2
:1006E00020F4007000F500702060206928706D1CF7
:1006F000701E86B240235A465146204600F0B0F89C
:10070000012801D10720A4E6206928706D1C701E05
:1007100086B200209DE62DE9F84F0446884615462E
:100720001E46DDF82890FFF7B3FD82464FEA486089
:100730004FEA106B0027206800F0010020B9206804
:1007400020F00100401C206052464946204600F03F
:1007500071F8012802D10220BDE8F88F206820F44A
:10076000807000F580702060012352464946204683
:1007700000F076F8012807D1206820F4007000F519
:10078000007020600420E7E70BF0FF0020610223E7
:1007900052464946204600F063F8012807D12068F8
:1007A00020F4007000F5007020600520D4E700BF41
:1007B0000020009060690090A069009000BF00BF19
:1007C0001EE0802352464946204600F049F80128A1
:1007D00007D1206820F4007000F50070206006202A
:1007E000BAE72F78701E86B26D1C27616069C0F36E
:1007F000800028B126B12F786D1C701E86B227614B
:10080000002EDED1042352464946204600F028F847
:10081000012807D1206820F4007000F500702060E6
:10082000082099E7206820F4007000F5007020602F
:10083000002091E770B505460C46164609E0601C9D
:1008400038B1FFF725FD801BA04200D80CB901206C
:1008500070BDA869C0F340000028F0D100BFF7E7E1
:100860002DE9F04105460E4617461C4610E0686922
:10087000C0F3802010B10120BDE8F081701C38B1B8
:10088000FFF706FDC01BB04200D80EB90120F3E708
:10089000C4F30740012809D1A869A1B20840A1B258
:1008A000884201D101200AE0002008E06869A1B275
:1008B0000840A1B2884201D1012000E000200028B8
:1008C000D5D00020D8E7000002480068401C01494C
:1008D00008607047000000204FF0E0218861486107
:1008E00007214FF0E0221161704710B54FF08040B2
:1008F000007B00F0010080B14FF08040007C00F0F0
:10090000010050B14FF08040006920F001004FF02D
:10091000804108611C2000F08DF810BD10B50B4817
:10092000007800F0010080B10848001D007800F058
:10093000010050B10548001D006820F00100034986
:10094000091D08601D2000F075F810BD0C04004062
:100950000E48806920F00400001D0C4988610C4895
:10096000006820F0405000F14050094908600846F6
:10097000006820F04040086005480C30006820F016
:10098000800003490C3108607047000000100240ED
:100990000008014011480078C0F34010E8B10F484A
:1009A0000C380078C0F34010B8B10D4800781E280C
:1009B0000BDA0A480838017809480278401C81544B
:1009C000401E0078401C0649087004480C38006836
:1009D00020F0200001490C39086070470C380140B4
:1009E0000C00002011480078C0F34010E8B10F4817
:1009F0000C380078C0F34010B8B10D4800781E28BC
:100A00000BDA0A480838017809480278401C8154FA
:100A1000401E0078401C0649087004480C380068E5
:100A200020F0200001490C39086070470C44004058
:100A30002B000020002807DB00F01F02012191405D
:100A4000024A430942F823107047000080E200E0A8
:100A500000B50146FFF71CFC024600BFFFF718FC7B
:100A6000801A8842FAD300BD00B585B000F042F884
:100A70001148FFF731FF1148FFF772FC10A0006822
:100A800004901420022304AA682100900B48FFF769
:100A900042FE4FF4FA60FFF7DBFF1420022102ABA5
:100AA0000122CDE9001068210448FFF7B3FCFFF7ED
:100AB0004FFF05B000BD00003F1901000054004089
:100AC0000234000000B507480078C009C14305485A
:100AD000006861F3C710034908604FF47A70FFF7AC
:100AE000B7FF00BD0C080140FFF7BEFF01E0FFF7B4
:100AF000E9FFFCE72D48006820F4803000F58030E5
:100B00002A49086000BF29480068C0F34040002817
:100B1000F9D00220264908602448406820F40030BB
:100B2000224948600846406820F4803000F5803053
:100B300048600846406820F4701000F5E0104860F6
:100B40000846406820F0F00048600846406820F4FD
:100B5000E06000F5806048600846406820F460501E
:100B600048600846006820F0807000F180700860DE
:100B700000BF0E480068C0F340600028F9D00B4861
:100B8000406820F00300801C0849486000BF074807
:100B90004068C0F381000228F9D10448806920F040
:100BA0000100401C014988617047000000100240AC
:100BB00000200240D40B0008000000200C000000C0
:100BC00028010008E00B00080C000020A40600002B
:100BD0004401000800000000000000004100000087
:04000005080000ED02
:00000001FF
