:020000040800F2
:10000000F8060020890100088D0100088F01000812
:10001000910100089301000895010008000000000C
:100020000000000000000000000000009701000830
:1000300099010008000000009B010008E507000886
:100040009F0100089F0100089F0100089F01000810
:100050009F0100089F0100089F0100083D02000861
:100060009F0100089F0100089F0100089F010008F0
:100070009F0100089F0100089F0100089F010008E0
:100080009F0100089F0100089F0100089F010008D0
:100090009F0100089F0100089F0100089F010008C0
:1000A0009F0100089F0100089F0100089F010008B0
:1000B00007080008390800089F010008AD02000881
:1000C0009D020008CD020008BD0200089F01000843
:1000D0009F0100086D090008BD0900089F01000884
:1000E0009F0100089F0100089F01000800F002F82E
:1000F00000F03AF80AA090E8000C82448344AAF188
:100100000107DA4501D100F02FF8AFF2090EBAE885
:100110000F0013F0010F18BFFB1A43F0010318473B
:10012000A40A0000C40A0000103A24BF78C878C1AD
:10013000FAD8520724BF30C830C144BF04680C60ED
:10014000704700000023002400250026103A28BF35
:1001500078C1FBD8520728BF30C148BF0B60704739
:100160001FB51FBD10B510BD00F02DF81146FFF7EB
:10017000F7FF00F0C1FC00F04BF803B4FFF7F2FF0B
:1001800003BC00F053F8000008480047FEE7FEE714
:10019000FEE7FEE7FEE7FEE7FEE7FEE7FEE7FEE737
:1001A00003480449044A054B70470000ED0000086D
:1001B000F8000020F8060020F8020020F8020020D5
:1001C000704770477047754600F02CF8AE46050042
:1001D0006946534620F00700854618B020B5FFF762
:1001E000DFFFBDE820404FF000064FF000074FF062
:1001F00000084FF0000B21F00701AC46ACE8C00945
:10020000ACE8C009ACE8C009ACE8C0098D4670474D
:1002100010B50446AFF300802046BDE81040FFF75C
:10022000ACBF00000048704794000020014918202E
:10023000ABBEFEE7260002007047000011480078C0
:10024000C0F34000E0B110480078C009C1430E4837
:10025000006861F3C7100C4908600A48006820F084
:100260000200084908600720002807DB00F01F0291
:1002700001219140054A430942F8231000BF00BF05
:1002800070470000140401400C08014080E200E0C7
:1002900001480068704700000000002010B50248C7
:1002A00000F01CF810BD00000C00002010B5024842
:1002B00000F024F810BD00000C00002010B502482A
:1002C00000F00CF810BD00003000002010B502480E
:1002D00000F014F810BD00003000002000B5034607
:1002E00018684068C0F3002038B118684069C0F34E
:1002F000802010B1184600F0B5F800BD10B50446D6
:1003000020684068C0F3402000280AD0607E102892
:1003100051D12068406900F0010018B1204600F07A
:100320009DF99EE020684069C0F3400018B1204666
:1003300000F0B6F895E020688069C0F38000B8B19D
:1003400020684069C0F3C01040B120684068C0F325
:10035000802018B1204600F093F982E020684069BF
:10036000C0F3800000287CD0204600F0A9F978E096
:1003700020688069C0F38000002872D1206840693D
:10038000C0F3801068B120684068C0F3802040B19D
:1003900020684069C0F3800018B9204600F0D8F802
:1003A0005FE020684069C0F38000002859D02046F3
:1003B00000F0F8F855E0607E202852D120684069AE
:1003C000C0F3400018B1204600F098F949E02068D9
:1003D0004069C0F3001018B1204600F0C0F940E0B9
:1003E00020688069C0F38000D8B120684069C0F3FC
:1003F000C01068B120684068C0F3802040B1206818
:100400004069C0F3800018B9204600F0C7F928E021
:1004100020684069C0F3800018B3204600F0D4F98A
:100420001FE020688069C0F38000D0B9206840696F
:10043000C0F3801068B120684068C0F3802040B1EC
:1004400020684069C0F3800018B9204600F063F9C5
:1004500007E020684069C0F3800010B1204600F03A
:1004600070F910BD0168496921F480610268516129
:100470000168096821F480610268116001684968B7
:1004800021F4E06102685160417E102907D10168C2
:10049000096821F4007101F500710268116070476C
:1004A00008B501688969C1F38001002944D1018937
:1004B000012919D10168096821F48061026811607D
:1004C00000BF0021009101684969009101688969B4
:1004D000009100BF00BF0168096821F4007101F5B7
:1004E00000710268116032E00189022919D10168A6
:1004F000096821F4006101F500610268116000BF24
:1005000000210091016849690091016889690091A1
:1005100000BF00BF0168096821F4806102681160B2
:1005200015E000BF00210091016849690091016850
:100530008969009100BF0AE000BF002100910168B5
:100540004969009101688969009100BF00BF08BD39
:100550000189022906D10168496821F48061026895
:1005600051607047418999B1016809694268117009
:100570004168491C41604189491E418141890329E3
:1005800005D10168496821F4806102685160E8E79B
:100590000168096821F4007101F5007102681160B9
:1005A00000BFDEE74189032928D10168096821F4E9
:1005B00080610268116001680969426811704168D0
:1005C000491C41604189491E41810168096821F443
:1005D000007101F5007102681160016809694268E3
:1005E00011704168491C41604189491E418101687F
:1005F000496821F4407102685160704701890229FD
:1006000022D10168096821F4007101F500710268C6
:10061000116009E001680969426811704168491C6C
:1006200041604189491E418141890029F2D1016817
:10063000096821F40061026811600168496821F4C9
:10064000407102685160D8E70168096821F40071BF
:1006500001F500710268116000BFCEE7027F52060B
:10066000110EC27E1AB9CAB203681A6107E0C27ECF
:10067000012A04D141F00101CAB203681A6170472E
:100680000021428A92B1C268117802681161C26881
:10069000521CC260428A521E4282428A2AB90268B1
:1006A000526822F4806203685A60704702681268D8
:1006B00022F4007202F5007203681A6000BFF4E7CA
:1006C0000021428A52B1C268117802681161C26881
:1006D000521CC260428A521E4282704702685268AF
:1006E00022F4407203685A600268126822F40072B1
:1006F00002F5007203681A6000BFEEE708B500BF9C
:10070000002100910168496900910168896900919F
:1007100000BF00BF08BD418991B101680969491C4A
:10072000426811704168491C41604189491E4181FC
:10073000418929B90168496821F4806102685160E2
:100740007047418951B101680969491C42681170BB
:100750004168491C41604189491E4181704708B583
:1007600000BF002100910168496900910168096892
:100770000091009921F400710091009902681160C4
:1007800000BF0168096821F4806102681160016896
:10079000496821F4E0610268516008BD0021428A85
:1007A0008AB1C268117802681161C268521CC260C5
:1007B000428A521E4282428A2AB90268526822F450
:1007C000806203685A6070470021428A4AB1C26859
:1007D000117802681161C268521CC260428A521EBE
:1007E0004282704702480068401C01490860704717
:1007F000000000204FF0E0218861486107214FF0A0
:10080000E0221161704710B54FF08040007B00F08E
:10081000010080B14FF08040007C00F0010050B139
:100820004FF08040006920F001004FF080410861E6
:100830001C2000F001F910BD10B50B48007800F045
:10084000010080B10848001D007800F0010050B19F
:100850000548001D006820F001000349091D0860DB
:100860001D2000F0E9F810BD0C0400400E4880691E
:1008700020F00400001D0C4988610C48006820F03D
:10088000405000F14050094908600846006820F0D7
:100890004040086005480C30006820F080000349A3
:1008A0000C31086070470000001002400008014051
:1008B00010B52B48806920F00400001D284988618C
:1008C0000846806920F4804000F580408861254812
:1008D000006820F0C00080302249086008460068A7
:1008E00020F03000203008600846006820F44060A6
:1008F00000F5006008600846006820F44070086059
:100900001948006820F00F00401C17490860272193
:100910001548006861F30F1013490860081D00684E
:1009200020F008000830091D08600846006820F023
:100930000400001D08600846006820F020002030F8
:1009400008600846006820F4005000F50050086078
:10095000252000F07FF80121252000F08DF810BD42
:100960000010024004080140083801401148007896
:10097000C0F34010E8B10F480C380078C0F34010C5
:10098000B8B10D4800781E280BDA0A4808380178FB
:1009900009480278401C8154401E0078401C0649DA
:1009A000087004480C38006820F0200001490C3918
:1009B000086070470C38014054000020114800784E
:1009C000C0F34010E8B10F480C380078C0F3401075
:1009D000B8B10D4800781E280BDA0A4808380178AB
:1009E00009480278401C8154401E0078401C06498A
:1009F000087004480C38006820F0200001490C39C8
:100A0000086070470C4400407300002000BF02786B
:100A1000C2F38012002AFAD04160704710B5044634
:100A20000B4604E019782046FFF7F0FF5B1C1878AE
:100A30000028F7D110BD0000002807DB00F01F02DE
:100A400001219140024A430942F8231070470000F7
:100A500080E200E000280DDB00BF00BF00F01F02B5
:100A6000012191404209920002F1E022C2F80011F6
:100A700000BF00BF7047000010B5002804DB0A0764
:100A8000130E054A135406E00A07140E034A00F039
:100A90000F031B1FD45410BD00E400E018ED00E06C
:100AA00000B50146FFF7F4FB024600BFFFF7F0FB7D
:100AB000801A8842FAD300BD10B500F023F804482C
:100AC000FFF798FEFFF7F4FEFFF7D0FE10BD000021
:100AD0003F19010010B504A10648FFF79FFF42F23D
:100AE0001070FFF7DDFF10BD3132333435360D0A9B
:100AF0000000000000380140FFF7DEFF01E0FFF7D3
:100B0000E9FFFCE72D48006820F4803000F58030D4
:100B10002A49086000BF29480068C0F34040002807
:100B2000F9D00220264908602448406820F40030AB
:100B3000224948600846406820F4803000F5803043
:100B400048600846406820F4701000F5E0104860E6
:100B50000846406820F0F00048600846406820F4ED
:100B6000E06000F5806048600846406820F460500E
:100B700048600846006820F0807000F180700860CE
:100B800000BF0E480068C0F340600028F9D00B4851
:100B9000406820F00300801C0849486000BF0748F7
:100BA0004068C0F381000228F9D10448806920F030
:100BB0000100401C0149886170470000001002409C
:100BC00000200240E40B0008000000200C000000A0
:100BD00028010008F00B00080C000020EC060000C3
:100BE000440100080000000002480000000000006E
:04000005080000ED02
:00000001FF
