:020000040800F2
:10000000B0060020890100088D0100088F0100085A
:10001000910100089301000895010008000000000C
:100020000000000000000000000000009701000830
:1000300099010008000000009B010008FD04000871
:100040009F0100089F0100089F0100089F01000810
:100050009F0100089F0100089F0100083D02000861
:100060009F0100089F0100089F0100089F010008F0
:100070009F0100089F0100089F0100089F010008E0
:100080009F0100089F0100089F0100089F010008D0
:100090009F0100089F0100089F0100089F010008C0
:1000A0009F0100089F0100089F0100089F010008B0
:1000B0000D050008410500089F0100089F01000888
:1000C0009F0100089F0100089F0100089F01000890
:1000D0009F010008B9050008090600089F010008F3
:1000E0009F0100089F0100089F01000800F002F82E
:1000F00000F03AF80AA090E8000C82448344AAF188
:100100000107DA4501D100F02FF8AFF2090EBAE885
:100110000F0013F0010F18BFFB1A43F0010318473B
:100120007406000094060000103A24BF78C878C115
:10013000FAD8520724BF30C830C144BF04680C60ED
:10014000704700000023002400250026103A28BF35
:1001500078C1FBD8520728BF30C148BF0B60704739
:100160001FB51FBD10B510BD00F02DF81146FFF7EB
:10017000F7FF00F0A9FA00F04BF803B4FFF7F2FF25
:1001800003BC00F053F8000008480047FEE7FEE714
:10019000FEE7FEE7FEE7FEE7FEE7FEE7FEE7FEE737
:1001A00003480449044A054B70470000ED0000086D
:1001B000B0000020B0060020B0020020B0020020F5
:1001C000704770477047754600F02CF8AE46050042
:1001D0006946534620F00700854618B020B5FFF762
:1001E000DFFFBDE820404FF000064FF000074FF062
:1001F00000084FF0000B21F00701AC46ACE8C00945
:10020000ACE8C009ACE8C009ACE8C0098D4670474D
:1002100010B50446AFF300802046BDE81040FFF75C
:10022000ACBF0000004870474C0000200149182076
:10023000ABBEFEE7260002007047000011480078C0
:10024000C0F34000E0B110480078C009C1430E4837
:10025000006861F3C7100C4908600A48006820F084
:100260000200084908600720002807DB00F01F0291
:1002700001219140054A430942F8231000BF00BF05
:1002800070470000140401400C08014080E200E0C7
:10029000014800687047000000000020F0B51C46CF
:1002A000002300252C4EB1FBF6F3466863F30506E8
:1002B00046602A4EB24201D85E1C07E04FF49676A3
:1002C0005E434FF47A77B6FBF7F6761C0662234E50
:1002D000B2422DD9C66926F4004606F50046C6612D
:1002E000C66964F38E36C661B4F5804F0DD102EB5A
:1002F0004206B1FBF6F6C6F30B060EB9012615E071
:1003000002EB4206B1FBF6F610E002EBC20606EB8A
:100310000216B1FBF6F6C6F30B060EB9012605E090
:1003200002EBC20606EB0216B1FBF6F6354610E00C
:10033000C66926F40046C6615600B1FBF6F6C6F360
:100340000B06042E01D2042602E05600B1FBF6F69D
:100350003546AEB2C661F0BD40420F00A086010036
:1003600038B50446604884422BD16048806920F04B
:10037000080008305D4988615D48006820F0404011
:10038000A0F180405A4908600846006820F04050BB
:1003900000F1405008600846006820F0406000F11D
:1003A000406008600846006820F0407000F140702E
:1003B00008604E48C06920F4001000F500104B4959
:1003C000C861206820F001002060206820F400400F
:1003D00000F500402060206820F4004020600023E9
:1003E000444A45492046FFF759FF4FF48040A0603A
:1003F000206820F00100401C2060A069C0F340008C
:1004000000B138BD206820F4807000F58070206055
:100410000AE06069C0F3802030B1206820F40070E9
:1004200000F500702060ECE7606900F00100002832
:10043000EFD0D02020610AE06069C0F3802030B1A5
:10044000206820F4007000F500702060D9E7606932
:10045000C0F340000028EFD000BF0020009060698A
:100460000090A069009000BF00BF0AE06069C0F37F
:10047000802030B1206820F4007000F5007020600A
:10048000BFE76069C0F3C0100028EFD001202061F1
:100490000AE06069C0F3802030B1206820F4007069
:1004A00000F500702060ACE76069C0F3C010002860
:1004B000EFD0482020610AE06069C0F3802030B1AD
:1004C000206820F4007000F50070206099E76069F2
:1004D000C0F380000028EFD0206820F4007000F501
:1004E0000070206000BF8CE7005400400010024004
:1004F000000C0140A086010000512502024800685E
:10050000401C0149086070470000002010B54FF002
:100510008040007B00F0010080B14FF08040007C03
:1005200000F0010050B14FF08040006920F0010060
:100530004FF0804108611C2000F08EF810BD0000D3
:1005400010B50B48007800F0010080B10848001D8C
:10055000007800F0010050B10548001D006820F04F
:1005600001000349091D08601D2000F075F810BD49
:100570000C0400400E48806920F00400001D0C4966
:1005800088610C48006820F0405000F14050094953
:1005900008600846006820F04040086005480C30BC
:1005A000006820F0800003490C31086070470000AB
:1005B000001002400008014011480078C0F34010CC
:1005C000E8B10F480C380078C0F34010B8B10D48BE
:1005D00000781E280BDA0A480838017809480278A2
:1005E000401C8154401E0078401C06490870044895
:1005F0000C38006820F0200001490C390860704771
:100600000C3801400C00002011480078C0F3401065
:10061000E8B10F480C380078C0F34010B8B10D486D
:1006200000781E280BDA0A48083801780948027851
:10063000401C8154401E0078401C06490870044844
:100640000C38006820F0200001490C390860704720
:100650000C4400402B000020002807DB00F01F02A4
:1006600001219140024A430942F8231070470000DB
:1006700080E200E000B50146FFF70AFE024600BF37
:10068000FFF706FE801A8842FAD300BD10B500F0CD
:1006900021F80348FFF764FEFFF76CFF10BD000070
:1006A0000054004000B507480078C009C143054820
:1006B000006861F3C710034908604FF47A70FFF7D0
:1006C000D9FF00BD0C080140FFF7E0FF01E0FFF794
:1006D000E9FFFCE72D48006820F4803000F5803009
:1006E0002A49086000BF29480068C0F3404000283C
:1006F000F9D00220264908602448406820F40030E0
:10070000224948600846406820F4803000F5803077
:1007100048600846406820F4701000F5E01048601A
:100720000846406820F0F00048600846406820F421
:10073000E06000F5806048600846406820F4605042
:1007400048600846006820F0807000F18070086002
:1007500000BF0E480068C0F340600028F9D00B4885
:10076000406820F00300801C0849486000BF07482B
:100770004068C0F381000228F9D10448806920F064
:100780000100401C014988617047000000100240D0
:1007900000200240B4070008000000200C00000008
:1007A00028010008C00700080C000020A406000073
:1007B00044010008000000000000000041000000AB
:04000005080000ED02
:00000001FF
