:020000040800F2
:10000000300B0020890100088D0100088F010008D5
:10001000910100089301000895010008000000000C
:100020000000000000000000000000009701000830
:1000300099010008000000009B010008CD0900089C
:100040009F0100089F0100089F0100089F01000810
:100050009F0100089F0100089F0100089F01000800
:100060009F0100089F0100089F0100089F010008F0
:100070009F0100089F0100089F0100089F010008E0
:100080009F0100089F0100089F0100089F010008D0
:10009000650C00089F0100089F0100089F010008EF
:1000A0009F0100089F0100089F0100089F010008B0
:1000B000EB090008090A00089F0100089F010008D9
:1000C0009F0100089F0100089F0100089F01000890
:1000D0009F010008B10A0008ED0A00089F0100080E
:1000E0009F0100089F0100089F01000800F002F82E
:1000F00000F03AF80AA090E8000C82448344AAF188
:100100000107DA4501D100F02FF8AFF2090EBAE885
:100110000F0013F0010F18BFFB1A43F0010318473B
:100120006015000080150000103A24BF78C878C11F
:10013000FAD8520724BF30C830C144BF04680C60ED
:10014000704700000023002400250026103A28BF35
:1001500078C1FBD8520728BF30C148BF0B60704739
:100160001FB51FBD10B510BD00F02DF81146FFF7EB
:10017000F7FF01F0FAF900F04BF803B4FFF7F2FFD4
:1001800003BC00F053F8000008480047FEE7FEE714
:10019000FEE7FEE7FEE7FEE7FEE7FEE7FEE7FEE737
:1001A00003480449044A054B70470000ED0000086D
:1001B00030050020300B00203007002030070020E1
:1001C000704770477047754600F02CF8AE46050042
:1001D0006946534620F00700854618B020B5FFF762
:1001E000DFFFBDE820404FF000064FF000074FF062
:1001F00000084FF0000B21F00701AC46ACE8C00945
:10020000ACE8C009ACE8C009ACE8C0098D4670474D
:1002100010B50446AFF300802046BDE81040FFF75C
:10022000ACBF000000487047D004002001491820EE
:10023000ABBEFEE726000200704700002DE9F84340
:100240000024DFF84480DFF84490002704EB4405E5
:1002500008EB8506B088ADF80000B0798DF8030092
:1002600058F82500694600F097F809F8254009EB91
:1002700085004770317A81700772641CE4B2042CE7
:10028000E4D3BDE8F8830000FC15000884000020DA
:100290002DE9F05F00253E4EDFF8F8B04FF0020880
:1002A0004FF001094FF0060A0027E8B200F0C2F94A
:1002B00005EB45010BEB8104217A072961D2DFE8C8
:1002C00001F0041D0D313D525A0000285AD084F827
:1002D0000880677000F002F9606053E040B100F000
:1002E000FDF86168401A32284CD90320207249E099
:1002F00084F8089000F0F2F8606043E028B184F8D8
:10030000088000F0EBF860603CE000F0E7F861681E
:10031000401A962836D984F808A03268E9B2042039
:1003200090472FE0042020726078401CC0B26070BB
:10033000012827D13268E9B2904723E068B100F084
:10034000CDF86168401AB0F5487F1BD905202072AE
:100350003268E9B20320904714E084F8089000F076
:10036000BDF860600EE068B984F808A03268E9B2B0
:100370000420904706E000F0B1F8606067702772D3
:1003800000E027726D1C042D8FD3BDE8F09F0000A4
:1003900004000020840000202DE9F0430022414C9D
:1003A000414BA04204D19C6944F004049C612EE0BE
:1003B0003E4CA04204D19C6944F008049C6126E0B4
:1003C0003B4CA04204D19C6944F010049C611EE0A7
:1003D000384CA04204D19C6944F020049C6116E092
:1003E000354CA04204D19C6944F040049C610EE06D
:1003F000324CA04204D19C6944F080049C6106E028
:100400002F4CA04203D19C6944F480749C61CC7849
:1004100004F00F03E40601D58C782343B1F8009073
:100420004FF0010819F0FF0F4FF00F0C13D00468C4
:1004300008FA02F5EDB235EA090507D195000CFA84
:1004400005F624EA060703FA05F43C43521CD2B22F
:10045000082AEDD304600F883A0A14D044680022B9
:1004600002F1080508FA05F5EDB2BD4306D1950085
:100470000CFA05F6B44303FA05F63443521CD2B223
:10048000082AEDD34460C268CB78282B02D0482BD1
:1004900003D004E009888A4301E009880A43C26066
:1004A000BDE8F0830008014000100240000C01404C
:1004B000001001400014014000180140001C0140E0
:1004C000002001408068814301D000207047012056
:1004D000704702690A4302617047000001480068E2
:1004E0007047000000000020264A00290ED0012994
:1004F00025D0022931D0042907D101283CD0042875
:1005000003D1106820F040001060704701280AD025
:1005100003280DD00428F8D1106820F0400020F006
:10052000800010607047106840F040001060704715
:10053000106820F0400040F08000106070470128F3
:1005400006D00428FAD1106820F0800010607047AF
:10055000106840F08000106070470B49012806D0F9
:100560000428F9D1086820F0010008607047086885
:1005700040F0010008607047106840F040001060D3
:10058000704700000C0801400C0C01401CB5102005
:100590008DF8030003208DF802004FF40C70ADF8C5
:1005A0000000A0208DF8040005208DF80500002033
:1005B0008DF8060001208DF807001A4800F05CF85D
:1005C000194C69462046FFF7E7FE4FF404712046B8
:1005D000FFF77FFF154C206820F480502060012039
:1005E00000F026F9052000F09DFF112000F020F911
:1005F000052000F097FF01A800F052F900218023A8
:10060000A022084600F074F9094800F025F92920D5
:1006100000F00EF900F09EF9206840F48050206050
:100620001CBD000000380040000801400C0C0140D7
:100630002C16000810B500EB4004074800EB8401BD
:1006400050F824008988FFF73DFF044901EB84013D
:100650008978484010BD0000FC1500088400002087
:10066000014908607047000004000020026961F33E
:100670000F0202617047000070B5044641494248CC
:100680008C4224D1816941F0040181613F4A1168A3
:1006900021F4400101F5000141F4401121F04061D5
:1006A00001F1806121F0407121F0404101F10041F0
:1006B00041F040511160816941F480518161002114
:1006C000232000F01FFF232000F00FFF30E030490F
:1006D0008C422DD1816941F0080181612D4B19684F
:1006E00021F4402141F440312A4A0832156845F48A
:1006F0008055156021F4400101F5000141F44011DD
:1007000021F0406101F1806121F0407121F0404110
:1007100001F1004141F040511960C16941F480414B
:10072000C1610021242000F0EDFE242000F0DDFE58
:10073000206820F0400020600321204600F031F8BE
:100740000021204600F032F80021204600F045F854
:100750000121204600F058F8E06920F40060E061D3
:1007600007212046FFF782FF206840F00400206048
:10077000206840F480702060206840F040002060D5
:1007800070BD000000300140001002400008014030
:1007900000380040040C0140C26861F30F02C260DF
:1007A0007047026861F3C50202607047C9070029FB
:1007B00004D0016841F00101016003E0016821F00B
:1007C0000101016004D0016841F00201016070473D
:1007D000016821F0020101607047C907002904D0B7
:1007E000016841F08001016003E0016821F08001AF
:1007F000016004D0016841F4006101607047016844
:1008000021F4006101607047026861F349220260CF
:10081000704710B504462046FFF7BEFFA068C043EE
:100820008007FBD4A068C0430006FBD510BD0000C4
:1008300010B5074C226822F02002226001460548CC
:10084000FFF7E7FF206840F02000206010BD0000A7
:100850000C080140003800402DE9F04104462078A2
:100860006678A41CFF2804D0FFF7E2FF00250B4F99
:100870000EE0FF2E0FD006EB8600400000F052FE87
:10088000EDE714F8011B3846FFF7C3FF6D1CEDB20E
:10089000B542E4D2F5E7BDE8F08100000038004041
:1008A00070B504463620FFF7C3FF104D2178284667
:1008B000FFF7AFFF3A20FFF7BBFF61782846FFF74D
:1008C000A8FFA07818B12120FFF7B2FF02E0202096
:1008D000FFF7AEFFE07820B1BDE870401320FFF7CE
:1008E000A7BFBDE870401220FFF7A2BF003800404C
:1008F0002DE9F04180460F4615461E462A20FFF797
:1009000097FF134C00212046FFF783FF4146204606
:10091000FFF77FFF00212046FFF77BFF2946204697
:10092000FFF777FF2B20FFF783FF00212046FFF71B
:1009300070FF39462046FFF76CFF00212046FFF785
:1009400068FF31462046BDE8F041FFF762BF000076
:100950000038004070B500242C20FFF769FF094ED5
:1009600042F21075F8213046FFF753FF0021304660
:10097000FFF74FFF142000F0D5FD641CAC42F1D30B
:1009800070BD00000038004000210E4B07E0DA681F
:1009900022F4005242F40052DA60491CC9B281428A
:1009A000F5D30948017831B1D96821F40051D960F3
:1009B000002101707047D96841F40051D9600121CC
:1009C00001707047001001400800002002480168D3
:1009D000491C0160FFF75CBC000000204FF0E021E3
:1009E000886148610720086170474FF08041087BAB
:1009F000C00708D00869C20705D020F001000861CF
:100A00001C2000F065BD704707480078C0070AD079
:100A10000549091D0868C20705D020F001000860DB
:100A20001D2000F055BD70470C0400401C48816932
:100A300041F004018161816941F0080181618169AE
:100A400041F010018161174A106840F0405020F0D9
:100A50004041144B0C33186820F0800041F0407185
:100A600021F04061116020F0400018600E490868D4
:100A700040F0030020F00C0008600B480C300168C7
:100A800021F0010101600948416841F4401121F45D
:100A900040014160C16841F40051C16070470000ED
:100AA0000010024000080140000C0140001001400D
:100AB00030B50C480078800612D50A4B0C3B1968FB
:100AC00088060DD5084A10781E2806D21C1D551C14
:100AD000247844551078401C107021F020001860D4
:100AE00030BD00000C380140B400002030B50C4887
:100AF0000078800612D50A4B0C3B196888060DD584
:100B0000084A10781E2806D21C1D551C247844550E
:100B10001078401C107021F02000186030BD0000DB
:100B20000C440040D3000020002102E0491CC9B25F
:100B3000401C0278002AF9D10846704710B5040617
:100B4000104B00F00F0003D503EB0010018017E0FD
:100B50004FF6FF743E2A05D9920904EA822242F434
:100B6000004203E0521C520804EA8222042404EBEF
:100B7000C00423F81410062101EBC00023F8102054
:100B8000002010BD00600040F0B40E461946049BE2
:100B90000446154605F07F0054F8207048F68F7221
:100BA000174047EA4626B6B244F8206054F8206061
:100BB0001640064344F820602E0618D554F82060ED
:100BC000C6F3011686F00206370154F8206016407D
:100BD0003E4344F8206054F82060C6F38016B70105
:100BE00054F8206016403E4344F8206017E054F863
:100BF0002060C6F3013686F00306370354F8206000
:100C000016403E4344F8206054F82060C6F3803616
:100C1000B70354F8206016403E4344F8206028464D
:100C2000F0BC1A46FFF78ABF70B504460D4616465B
:100C3000002C16D02046FFF777FF022101EB400081
:100C400030802870032102206970002306E0411CD7
:100C5000C9B22A54641C481CC0B26B542278002AC2
:100C6000F5D170BD10B5144C2068400501D500F0D9
:100C700073FB2068000401D500F092FB206880041B
:100C800003D5206820F4005020602068800503D53B
:100C9000206820F4007020602068C00503D520681B
:100CA00020F4807020602068000503D5206820F4BF
:100CB0000060206010BD0000445C00402DE9F0039E
:100CC000614F48F68F764FF0000C7B79DA0734D00D
:100CD00087F805C050F82120C2F3013282F00302E8
:100CE000130350F8212032401A4340F8212050F8D5
:100CF0002120C2F3011282F00202130150F82120D8
:100D000032401A4340F8212050F82120C2F38032AB
:100D1000920350F821303340134340F82130F978E2
:100D2000002907D03A89002A04D141F08001C1642A
:100D300087F803C0BDE8F00370473A6902243D8993
:100D4000DFF8088104EBC10408EB4404402D21D9ED
:100D500040232380403D3D8102F140033B6150F838
:100D60002130C3F3013383F002031D0350F8213017
:100D700033402B4340F8213050F82130C3F30113A6
:100D800083F003031D0150F8213033402B4340F81A
:100D900021304EE02580A7F808C0C7F810C05D06D6
:100DA0001DD523F040037B7150F82130C3F301338C
:100DB00083F002031D0350F8213033402B4340F8E9
:100DC000213050F82130C3F3011383F003031D01D8
:100DD00050F8213033402B4340F8213029E043F0D4
:100DE00003037B7150F82130C3F3013383F0030315
:100DF0001D0350F8213033402B4340F8213050F888
:100E00002130C3F3011383F002031D0150F8213098
:100E100033402B4340F8213050F82130C3F3803366
:100E200083F001039D0350F8213033402B4340F8F9
:100E3000213008EB011123880988BDE8F003C3F3D2
:100E4000090300F02FBB00000800002000600040F4
:100E50002DE9F04104460D4647490623454A04263C
:100E60004879002D17D0470737D440F00400487167
:100E700003EBC50032F81000C0F3090306EBC50010
:100E800032F810103D4A204600F054FABDE8F04117
:100E90000520FFF779BDC20748F68F761FD00020E6
:100EA00048712068C0F3013080F00300010320681E
:100EB0003040084320602068C0F380308103206800
:100EC0003040084320602068C0F3011080F0020029
:100ED00001012068304008432060BDE8F08140F007
:100EE000010048712348254A0C300088C0F30903EB
:100EF000204808300188204600F01CFA1E481430B3
:100F0000417820290ED1C188082900D90821002064
:100F1000194B1A4A1C3303E0175C1F54401CC0B223
:100F20008842F9D354F82500C0F3011080F0030083
:100F3000010154F825003040084344F8250054F8D6
:100F40002500C0F3801080F00100800154F82510C6
:100F50003140014344F8251054F82500C0F3013016
:100F600080F00200010354F825003040084344F8A3
:100F70002500B2E70060004008000020F4000020D7
:100F80002DE9FC5F044600260196D24D6E7108687B
:100F900068614868A86105F11409B9F80220130ACC
:100FA00002F0FF0A99F80000CB4F10F0600F4FF0ED
:100FB000800124D0C0F34110012803D0022800D0C2
:100FC00069711CE199F80100202815D0212805D06D
:100FD0002228F6D02328F4D0697110E10720288157
:100FE000BC481C302861B8893989C0F30903BB4A61
:100FF000204600F09FF902E102206871FFE0DFF86F
:10100000D4C299F801B00CF1360C4FF001089CF8ED
:1010100007C0BBF10A0FD4D2DFE80BF0EBA3F1C796
:10102000F17505F17B82012B07D0022B0BD0062B2B
:1010300013D0032B15D06971E1E012202881A54857
:1010400024302861DBE0B9F80600432800D34320B0
:101050002881A04836302861D1E02E812E61697147
:10106000CDE0DFF87882BAF1060F08F10C0846D21D
:10107000DFE80AF0030915212D390420288195485D
:101080000C302861BBE0954901AA0C3194A0FFF710
:10109000CBFDBDF804002881C5F81080AFE08F4972
:1010A00001AA0C3193A0FFF7BFFDBDF80400288111
:1010B000C5F81080A3E0894901AA0C3191A0FFF77F
:1010C000B3FDBDF804002881C5F8108097E083497E
:1010D00001AA0C318FA0FFF7A7FDBDF804002881FD
:1010E000C5F810808BE07D4901AA0C318CA0FFF778
:1010F0009BFDBDF804002881C5F810807FE02E819B
:101100002E6169717BE085F80580EA702E812E6181
:1011100075E07248297901702861A5F808806EE0B1
:101120002A71DFF80CA24FF04009C0238122002170
:101130005046CDF80090FFF727FD4FF48873012249
:1011400000215046CDF80090FFF71EFD0820430116
:101150000090822203215046FFF716FD85F8068095
:101160004DE0C30605D000F01F0002280BD06971C6
:1011700045E0D0B2012801D0697140E05FEA8C609F
:101180003DD469713BE099F80400812837D006DC32
:10119000012834D0022832D0032804D12FE082283D
:1011A0002DD083282BD0697129E0C30605D000F02B
:1011B0001F0002280BD0697121E0D0B2012801D0B4
:1011C00069711CE05FEA8C6019D4697117E099F8C5
:1011D0000400812813D006DC012810D002280ED08C
:1011E000032804D10BE0822809D0832807D0697135
:1011F00005E03A4806704670022129812861687925
:1012000048F68F7801061AD520F0800068712068B2
:10121000C0F3011080F001000101206800EA08001D
:10122000084320602068C0F3013080F00100010312
:10123000206800EA080008432060BDE8FC9F8107A1
:1012400031D42A69C10717D1298940290AD94023F5
:10125000BB804039298102F14001296140F0400002
:10126000687102E0B9802E812E61B8883988C0F398
:101270000903204600F016F92068C0F3011080F041
:1012800003000101206800EA08000843206020688C
:10129000C0F3801080F001008101206800EA08009E
:1012A00008432060C9E72068C0F3013080F00300E4
:1012B0000103206800EA0800084320602068C0F3AA
:1012C000803080F001008103206800EA08000843B4
:1012D0002060B2E7080000200060004034010020D8
:1012E00053544D6963726F656C656374726F6E6998
:1012F000637300004E677579656E206465702074B5
:10130000726169003030303030303030303031414F
:101310000000000043444320436F6E66696700008D
:1013200043444320496E7465726661636500000042
:10133000005C004010B500245B1C5B0800EB410022
:1013400000F5806004E030F8041B22F8021B641CE6
:101350009C42F8D310BD000038B51048016821F454
:10136000806101600D4D4024443D182380220121FD
:1013700028460094FFF708FC582300220121284644
:101380000094FFF701FC05480830016841F0800136
:101390000160016821F07F01016038BD445C0040BC
:1013A0002DE9F047DFF8F0A04FF0000840F68F7508
:1013B000374E384C384F48F60F790AF1440A60E04E
:1013C000DAF8000000F00F01B17091B1DAF8000016
:1013D000C00647D504EB8100D0F8002C120450D58C
:1013E000D0F8002C2A40C0F8002C3846FFF730FD1A
:1013F00047E0DAF80000C00625D5D4F8000C000557
:1014000013D52648037B0189254A3846FFF792FF0A
:10141000B07804EB8000D0F8001C2940C0F8001C14
:101420001F493846FFF7ACFD2BE0D4F8000C4146CD
:10143000000426D5D4F8000C2840C4F8000C384627
:10144000FFF706FD1DE0D4F8000C4146000618D554
:10145000D4F8000C00EA0900C4F8000C3846FFF785
:101460002DFC0EE004EB8100D0F8002C120608D50C
:10147000D0F8002C02EA0902C0F8002C3846FFF729
:101480001DFCDAF8000000049AD4BDE8F0870000E3
:101490000800002000500040005C00400060004058
:1014A000F400002030B500245B1C5B0800EB410019
:1014B00000F58060002A0AD007E011785578921C68
:1014C00041EA052120F8041B641C9C42F5D330BD81
:1014D000002809DB00F01F02012191404009800033
:1014E00000F1E020C0F880127047002809DB00F00E
:1014F0001F02012191404009800000F1E020C0F866
:10150000001170470907090E002804DB00F1E020F4
:1015100080F80014704700F00F0000F1E02080F820
:10152000141D704700B50246FEF7D8FF0146FEF7CE
:10153000D5FF401A9042FAD300BD000010B500F06C
:1015400019F80748FFF74AFAFFF770FAFEF776FE38
:101550000448FFF785F8BDE81040FFF717B8000012
:101560003F190100E90400087047FFF7E7FFFFF7A4
:10157000FBFFFCE71F48016841F48031016001680E
:101580008903FCD51C4A02211160416821F4003115
:101590004160416841F480314160416821F470113B
:1015A00001F5E0114160416821F0F00141604168BE
:1015B00021F4E06101F580614160416821F46051EE
:1015C00001F520514160016841F0807101600168BE
:1015D0008901FCD5416821F00301891C4160416803
:1015E000C1F381010229FAD1816941F001018161D0
:1015F0007047000000100240002002400008014037
:1016000001004800010000000008014002004800FD
:101610000100000000080140040048000100000033
:10162000000801400800480001000000B103012C3F
:101630002DB203012C2DB306012C2D012C2DB4014C
:1016400007C003A20284C101C5C2020A00C3028A04
:101650002AC4028AEEC5010EE010021C07123732BE
:10166000292D29252B3900010310E110031D070640
:101670002E2C292D2E2E373F00000210FFFF0000D8
:10168000A0160008000000208400000028010008C7
:101690002417000884000020AC0A00004401000860
:1016A000000000000000000000000000000000003A
:1016B0000000000004030904000000000000000016
:1016C0000000000000000000000000001201000205
:1016D0000202004083044057000201020301090294
:1016E0004300020100C032090400000102020100AF
:1016F0000524001001052401000104240202052430
:101700000600010705820308001009040100020A0F
:1017100000000007050102400000070581024000AB
:0417200000000000C5
:04000005080000ED02
:00000001FF
