:020000040800F2
:10000000D00B0020890100088D0100088F01000835
:10001000910100089301000895010008000000000C
:100020000000000000000000000000009701000830
:1000300099010008000000009B010008690A0008FF
:100040009F0100089F0100089F0100089F01000810
:100050009F0100089F0100089F0100084904000853
:100060009F0100089F0100089F0100089F010008F0
:100070009F0100089F0100089F0100089F010008E0
:100080009F0100089F0100089F0100089F010008D0
:10009000CD0E00089F0100089F0100089F01000885
:1000A0009F0100089F0100089F0100089F010008B0
:1000B000930A0008C50A00089F010008CD04000843
:1000C000BD040008ED040008DD0400089F010008DD
:1000D0009F010008910C0008E10C00089F01000836
:1000E0009F0100089F0100089F01000800F002F82E
:1000F00000F03AF80AA090E8000C82448344AAF188
:100100000107DA4501D100F02FF8AFF2090EBAE885
:100110000F0013F0010F18BFFB1A43F0010318473B
:10012000B81C0000D81C0000103A24BF78C878C161
:10013000FAD8520724BF30C830C144BF04680C60ED
:10014000704700000023002400250026103A28BF35
:1001500078C1FBD8520728BF30C148BF0B60704739
:100160001FB51FBD10B510BD00F02DF81146FFF7EB
:10017000F7FF01F097FD00F04BF803B4FFF7F2FF33
:1001800003BC00F053F8000008480047FEE7FEE714
:10019000FEE7FEE7FEE7FEE7FEE7FEE7FEE7FEE737
:1001A00003480449044A054B70470000ED0000086D
:1001B000D0050020D00B0020D0070020D007002061
:1001C000704770477047754600F02CF8AE46050042
:1001D0006946534620F00700854618B020B5FFF762
:1001E000DFFFBDE820404FF000064FF000074FF062
:1001F00000084FF0000B21F00701AC46ACE8C00945
:10020000ACE8C009ACE8C009ACE8C0098D4670474D
:1002100010B50446AFF300802046BDE81040FFF75C
:10022000ACBF0000004870476C0500200149182051
:10023000ABBEFEE726000200704700002DE9F0414A
:1002400000260027002499E000260027204601F020
:100250002FFD04EB44014C4A02EBC1010D3104EBCC
:100260004402494B13F83220885400250AE004EB7D
:100270004400454901EBC0000D30405D3044C6B23A
:10028000681CC5B2082DF2D304EB44003E4911F8B6
:100290003000401C04EB44013B4A02F8310004EBFF
:1002A0004400114611F83000082804D3002004EB64
:1002B000440102F83100082E01D1022000E00120A3
:1002C000074604EB4400304901EBC000007BB84214
:1002D0001BD004EB440001EBC000077304EB4400A7
:1002E00001EBC000007B022807D1002004EB440191
:1002F000254A02EBC10148603EE0002004EB4401C6
:10030000214A02EBC101887036E004EB44001E492B
:1003100001EBC000007B022813D104EB440001EB89
:10032000C0004068401C60B104EB440001EBC00019
:100330004068401C04EB4401134A02EBC1014860D1
:100340001AE004EB4400104901EBC000007B0128D7
:1003500012D104EB440001EBC0008078FF280BD2DF
:1003600004EB440001EBC0008078401C04EB440126
:10037000054A02EBC1018870601CC4B2042CFFF472
:1003800063AFBDE8F0810000E000002070B50446D6
:1003900000252748007800B970BD2546254804602F
:1003A000204600F0C5FC2449088008460088402803
:1003B00013DD4020214988821F48008840381E49AB
:1003C00008801C48006840301A4908601C480078C2
:1003D00040F040001A49087008E0174800881749A3
:1003E0008882002014490880124908601348808AD6
:1003F000C0F309031148018A2A46124801F0B4FBF0
:1004000000BF00200F49091D0968C1F3011181F0E7
:10041000030108010B49091D096848F68F72114054
:1004200008430849091D086000BF00BFB4E7000089
:100430002F000020240000202C000020006000403D
:100440002E000020005C004011480078C0F34000FE
:10045000E0B110480078C009C1430E48006861F35C
:10046000C7100C4908600A48006820F002000849DB
:1004700008600720002807DB00F01F0201219140DF
:10048000054A430942F8231000BF00BF704700002F
:10049000140401400C08014080E200E0024690682C
:1004A0000840884201D1012070470020FCE700008D
:1004B00001480068704700001000002010B5024895
:1004C00000F01CF810BD00009800002010B5024894
:1004D00000F024F810BD00009800002010B502487C
:1004E00000F00CF810BD0000BC00002010B5024860
:1004F00000F014F810BD0000BC00002000B5034659
:1005000018684068C0F3002038B118684069C0F32B
:10051000802010B1184600F0B5F800BD10B50446B3
:1005200020684068C0F3402000280AD0607E102870
:1005300051D12068406900F0010018B1204600F058
:100540009DF99EE020684069C0F3400018B1204644
:1005500000F0B6F895E020688069C0F38000B8B17B
:1005600020684069C0F3C01040B120684068C0F303
:10057000802018B1204600F093F982E0206840699D
:10058000C0F3800000287CD0204600F0A9F978E074
:1005900020688069C0F38000002872D1206840691B
:1005A000C0F3801068B120684068C0F3802040B17B
:1005B00020684069C0F3800018B9204600F0D8F8E0
:1005C0005FE020684069C0F38000002859D02046D1
:1005D00000F0F8F855E0607E202852D1206840698C
:1005E000C0F3400018B1204600F098F949E02068B7
:1005F0004069C0F3001018B1204600F0C0F940E097
:1006000020688069C0F38000D8B120684069C0F3D9
:10061000C01068B120684068C0F3802040B12068F5
:100620004069C0F3800018B9204600F0C7F928E0FF
:1006300020684069C0F3800018B3204600F0D4F968
:100640001FE020688069C0F38000D0B9206840694D
:10065000C0F3801068B120684068C0F3802040B1CA
:1006600020684069C0F3800018B9204600F063F9A3
:1006700007E020684069C0F3800010B1204600F018
:1006800070F910BD0168496921F480610268516107
:100690000168096821F48061026811600168496895
:1006A00021F4E06102685160417E102907D10168A0
:1006B000096821F4007101F500710268116070474A
:1006C00008B501688969C1F38001002944D1018915
:1006D000012919D10168096821F48061026811605B
:1006E00000BF002100910168496900910168896992
:1006F000009100BF00BF0168096821F4007101F595
:1007000000710268116032E00189022919D1016883
:10071000096821F4006101F500610268116000BF01
:10072000002100910168496900910168896900917F
:1007300000BF00BF0168096821F480610268116090
:1007400015E000BF0021009101684969009101682E
:100750008969009100BF0AE000BF00210091016893
:100760004969009101688969009100BF00BF08BD17
:100770000189022906D10168496821F48061026873
:1007800051607047418999B10168096942681170E7
:100790004168491C41604189491E418141890329C1
:1007A00005D10168496821F4806102685160E8E779
:1007B0000168096821F4007101F500710268116097
:1007C00000BFDEE74189032928D10168096821F4C7
:1007D00080610268116001680969426811704168AE
:1007E000491C41604189491E41810168096821F421
:1007F000007101F5007102681160016809694268C1
:1008000011704168491C41604189491E418101685C
:10081000496821F4407102685160704701890229DA
:1008200022D10168096821F4007101F500710268A4
:10083000116009E001680969426811704168491C4A
:1008400041604189491E418141890029F2D10168F5
:10085000096821F40061026811600168496821F4A7
:10086000407102685160D8E70168096821F400719D
:1008700001F500710268116000BFCEE7027F5206E9
:10088000110EC27E1AB9CAB203681A6107E0C27EAD
:10089000012A04D141F00101CAB203681A6170470C
:1008A0000021428A92B1C268117802681161C2685F
:1008B000521CC260428A521E4282428A2AB902688F
:1008C000526822F4806203685A60704702681268B6
:1008D00022F4007202F5007203681A6000BFF4E7A8
:1008E0000021428A52B1C268117802681161C2685F
:1008F000521CC260428A521E42827047026852688D
:1009000022F4407203685A600268126822F400728E
:1009100002F5007203681A6000BFEEE708B500BF79
:10092000002100910168496900910168896900917D
:1009300000BF00BF08BD418991B101680969491C28
:10094000426811704168491C41604189491E4181DA
:10095000418929B90168496821F4806102685160C0
:100960007047418951B101680969491C4268117099
:100970004168491C41604189491E4181704708B561
:1009800000BF002100910168496900910168096870
:100990000091009921F400710091009902681160A2
:1009A00000BF0168096821F4806102681160016874
:1009B000496821F4E0610268516008BD0021428A63
:1009C0008AB1C268117802681161C268521CC260A3
:1009D000428A521E4282428A2AB90268526822F42E
:1009E000806203685A6070470021428A4AB1C26837
:1009F000117802681161C268521CC260428A521E9C
:100A000042827047002100BF0EE0154AD26822F4EE
:100A10000052134BDA601A46D26822F4005202F5F3
:100A20000052DA604A1CD1B28142EEDB0D4A1278E4
:100A30005AB90B4AD26822F4005202F50052084B10
:100A4000DA600122074B1A7008E0054AD26822F4E6
:100A50000052034BDA600022024B1A70704700000C
:100A6000001001409400002010B504480068401CAC
:100A700002490860FFF7E2FB10BD000010000020F3
:100A80004FF0E0218861486107214FF0E0221161B9
:100A9000704710B54FF08040007B00F0010080B13E
:100AA0004FF08040007C00F0010050B14FF08040DA
:100AB000006920F001004FF0804108611C2001F026
:100AC00073F810BD10B50B48007800F0010080B13C
:100AD0000848001D007800F0010050B10548001DD5
:100AE000006820F001000349091D08601D2001F085
:100AF0005BF810BD0C0400403248806920F004000F
:100B0000001D304988610846806920F008000830DF
:100B100088610846806920F01000103088612A48FA
:100B2000006820F0405000F1405027490860084616
:100B3000006820F04040086023480C30006820F036
:100B4000800021490C3108601F48006820F0407087
:100B500000F140701C4908600846006820F04060C1
:100B6000086019480C30006820F0400016490C312C
:100B700008601648006820F00300C01C1349086094
:100B80000846006820F00C00086010480C3000682F
:100B900020F001000D490C3108600D48406820F438
:100BA000401000F540100A4948600846406820F4AB
:100BB000400048600846C06820F4005000F500502E
:100BC000C86070470010024000080140000C01405E
:100BD0000010014010B52B48806920F00400001D72
:100BE000284988610846806920F4804000F58040EB
:100BF00088612548006820F0C000803022490860E4
:100C00000846006820F03000203008600846006880
:100C100020F4406000F5006008600846006820F499
:100C2000407008601948006820F00F00401C174908
:100C3000086027211548006861F30F101349086008
:100C4000081D006820F008000830091D08600846EB
:100C5000006820F00400001D08600846006820F0CD
:100C60002000203008600846006820F4005000F59D
:100C700000500860252000F0A5FF0121252000F08C
:100C8000B3FF10BD001002400408014008380140C5
:100C900011480078C0F34010E8B10F480C380078D4
:100CA000C0F34010B8B10D4800781E280BDA0A488E
:100CB0000838017809480278401C8154401E0078A9
:100CC000401C0649087004480C38006820F02000D9
:100CD00001490C39086070470C3801405001002070
:100CE00011480078C0F34010E8B10F480C38007884
:100CF000C0F34010B8B10D4800781E280BDA0A483E
:100D00000838017809480278401C8154401E007858
:100D1000401C0649087004480C38006820F0200088
:100D200001490C39086070470C4400406F010020F5
:100D30000146002002E0421CD0B2491C0A78002A79
:100D4000F9D1704730B503460C46002103F080000E
:100D500030B103F00F03124D05EB031004801CE0CB
:100D600003F00F033E2A07D991114FF6FF7000EAF6
:100D7000812141F4004105E0501C41084FF6FF700D
:100D800000EA8121042000EBC300054D25F8104046
:100D9000062000EBC30025F81010002030BD000035
:100DA000006000402DE9F04705460F46164698467C
:100DB000DDF82090002406F07F0400BF002055F8E5
:100DC000241048F68F72114041EA472188B245F855
:100DD000240000BF00BF002055F82410114041EA54
:100DE000040045F8240000BF06F0800080281DD1D3
:100DF00000BF002055F82410C1F3011181F0020159
:100E0000080155F824101140084345F8240000BF9C
:100E100000BF002055F82410C1F38011880155F857
:100E200024101140084345F824001FE000BF0020B3
:100E300055F82410C1F3013181F00301080355F87E
:100E4000241048F68F721140084345F8240000BF73
:100E500000BF002055F82410C1F38031880355F8F5
:100E600024101140084345F8240000BF4A4641467B
:100E70002046FFF767FFBDE8F0872DE9F041044603
:100E80000D4617460026FCB12046FFF751FF022110
:100E900001EB400038803A783046711CCEB22A54BB
:100EA00003223046711CCEB22A540AE014F8012BFA
:100EB0003046711CCEB22A5400223046711CCEB28C
:100EC0002A5420780028F1D1BDE8F08110B51D48E2
:100ED0000068C0F3802008B100F020FD19480068C8
:100EE000C0F3C03008B100F043FD16480068C0F3FD
:100EF000403028B11348006820F4005011490860C0
:100F000010480068C0F3402028B10E48006820F463
:100F100000700C4908600B480068C0F3002028B13D
:100F20000848006820F48070064908600548006899
:100F3000C0F3C02028B10348006820F400600149D4
:100F4000086010BD445C004010B52548C06920F41D
:100F5000000000F500002249C861142000280DDBC4
:100F600000BF00BF00F01F02012191404209920022
:100F700002F1E022C2F8001100BF00BF00BF142040
:100F80000121002804DB0A07130E164A135406E059
:100F90000A07140E144A00F00F031B1FD45400BF9D
:100FA0004FF43F40114908600846006820F00100F6
:100FB000401C08600846006820F001000860081D19
:100FC000006820F48060091D08600020086007495F
:100FD000103108604FF43F400449086010BD000024
:100FE0000010024000E400E018ED00E0405C00402A
:100FF00070B505460C468248007800F001000028D4
:1010000073D18048066880480088402832DD40203F
:10101000022101EBC4017D4A22F811007A480088C0
:101020004038794908807748006840307549086041
:1010300000BF002055F82410C1F3013181F00201F6
:10104000080355F8241048F68F721140084345F8FC
:10105000240000BF00BF002055F82410C1F3011187
:1010600081F00301080155F824101140084345F8A8
:10107000240073E064480088022101EBC401634A44
:1010800022F811000020604908805E4908605C4831
:10109000007800F04000402828D15948007820F01E
:1010A00040005749087000BF002055F82410C1F3D4
:1010B000013181F00201080355F8241048F68F72BF
:1010C0001140084345F8240000BF00BF002055F838
:1010D0002410C1F3011181F00301080155F8241017
:1010E0001140084345F8240038E047E044480078C0
:1010F00040F003004249087000BF002055F824105A
:10110000C1F3013181F00301080355F8241048F6BA
:101110008F721140084345F8240000BF00BF002033
:1011200055F82410C1F3011181F00201080155F8AE
:1011300024101140084345F8240000BF00BF0020E0
:1011400055F82410C1F3803181F00101880355F86E
:1011500024101140084345F8240000BF022000EB92
:10116000C4002A4A32F81000C0F3090302EB04104D
:1011700001883246284600F0F7FC40E00020204974
:10118000087000BF00BF55F82410C1F3013181F091
:101190000301080355F8241048F68F7211400843E4
:1011A00045F8240000BF00BF002055F82410C1F30B
:1011B000011181F00201080155F824101140084383
:1011C00045F8240000BF00BF002055F82410C1F3EB
:1011D0008031880355F824101140084345F8240055
:1011E00000BF0B48007850B10748008838B908485C
:1011F000007840F08000E86400200549087070BD68
:101200002E000020240000202C0000200060004060
:10121000290000202DE9F04105460C464F48007892
:1012200000F00100002863D14C48007840F0010034
:101230004A490870062000EBC400494A32F8100001
:10124000C0F30903042000EBC40032F81010454A33
:10125000284600F04FFBCCB943484078202815D1F0
:101260004148C088082801D9082001E03E48C088CC
:1012700007460520FFF7C6FB002605E03948805DDC
:101280003A498855701CC6B2BE42F7DB00BF002049
:1012900055F82410C1F3011181F00301080155F83C
:1012A000241048F68F721140084345F8240000BF0F
:1012B00000BF002055F82410C1F3801181F0010116
:1012C000880155F824101140084345F8240000BF58
:1012D00000BF002055F82410C1F3013181F0020154
:1012E000080355F824101140084345F8240032E063
:1012F00000201A49087000BF00BF55F82410C1F340
:10130000013181F00301080355F8241048F68F726B
:101310001140084345F8240000BF00BF002055F8E5
:101320002410C1F38031880355F82410114008437C
:1013300045F8240000BF00BF002055F82410C1F379
:10134000011181F00201080155F8241011400843F1
:1013500045F8240000BFBDE8F08100002E00002009
:1013600000600040900100201C0000208C00002044
:101370002DE9FC4104460E4600200190002500277F
:101380008046FA490870FA48316801607168416026
:101390004088050AF64887780078C0F34110002895
:1013A0003FD0F3480078C0F3411001282CD1F04819
:1013B0004078202817D0212804D022281AD02328AA
:1013C0001AD118E00720EB490880EB48EB49086088
:1013D000EB488089C0F30903E9480189E94A2046BE
:1013E00000F088FA0FE0E148007840F00200DF49A1
:1013F000087008E007E006E0DC48007840F0800074
:10140000DA49087000BF87E1D9480078C0F341107D
:101410000228F8D0D548007840F08000D349087001
:101420007AE1D34840780C2872D2DFE800F0EFCFA1
:1014300071EE719306EDA3AEECEB012D06D11220F7
:10144000CC490880D048CD49086082E0022D0DD1FA
:10145000C748C088432802DAC548C08800E0432056
:10146000C4490880C948C549086072E0062D0BD1FF
:101470000020C0490880C1490860BC48007840F09D
:101480008000BA49087064E0032D5CD1062F4DD26C
:10149000DFE807F0030A1724313F0420B54908802C
:1014A000BB48B64908604DE001AABA49BAA0FFF7A7
:1014B000E4FCBDF80400AF490880B648AF490860B5
:1014C00040E001AAB349B9A0FFF7D7FCBDF804007A
:1014D000A8490880AF48A949086033E001AAAD498E
:1014E000B6A0FFF7CAFCBDF80400A2490880A948CD
:1014F000A249086026E001AAA649B4A0FFF7BDFCF6
:10150000BDF804009B490880A2489C49086019E086
:1015100000E101AA9F49B0A0FFF7AFFCBDF80400AD
:10152000944908809B48954908600BE00020914948
:101530000880924908608D48007840F080008B490F
:10154000087000BF05E08948007840F080008749B6
:101550000870E0E08548007840F001008349087099
:1015600083488078A0490870002082490880834918
:101570000860D0E09D4800788249087008467F499D
:10158000086001207B490880C5E079488078974948
:1015900008704020C0238122002100909448FFF76A
:1015A00001FC40204FF488730122002100909048F4
:1015B000FFF7F8FB082043018222032100908C48AA
:1015C000FFF7F0FB01208B490870A4E06848007821
:1015D00000F01F00D8B96648807801280BD16B480D
:1015E000C07900F0200070BB6048007840F08000B7
:1015F0005E49087037E05D48007840F080005B4944
:10160000087030E079E077E083E02DE076E058483C
:10161000007800F01F0002281FD15548007981286A
:101620000DD006DC012809D0022809D003280CD1EE
:1016300008E0822805D0832807D105E00CE00BE004
:101640000AE009E008E00EE006E04848007840F0D3
:1016500080004649087000BF05E04448007840F02B
:1016600080004249087056E04148007800F01F00B1
:10167000B0B93F48807801280BD14448C07900F0C8
:10168000200088BB3948007840F080003749087056
:1016900031E03648007840F08000344908702AE094
:1016A0003348007800F01F0002281ED1304800792E
:1016B00081280DD006DC012809D0022809D0032892
:1016C0000BD108E0822805D0832806D104E00BE086
:1016D0000AE009E008E007E006E02448007840F06E
:1016E00080002249087000BF05E02048007840F0E3
:1016F00080001E4908700EE00DE00CE0002021493A
:101700000870487002201B4908801E481B49086069
:1017100001E000E000BF00BF1448007800F0800046
:1017200080286AD11148007820F080000F490870A5
:1017300000BF00202168C1F3011181F001010801FF
:10174000216848F68F7211400843206000BF00BF37
:1017500000202168C1F3013181F0010108032168F3
:1017600011400843206000BFBDE8FC812E0000202E
:101770001C0000202C0000208C00002024000020F1
:1017800000600040D0010020300000204200002016
:1017900088000020DC01002053544D6963726F659E
:1017A0006C656374726F6E69637300004E67757960
:1017B000656E20646570207472616900303030306D
:1017C000303030303030314100000000434443209D
:1017D000436F6E666967000043444320496E746539
:1017E0007266616365000000290000202A00002065
:1017F000005C00402F000020FFE73A48007800F02E
:10180000020002284ED03848D0F8008035480078D1
:1018100000F0010050BB35480088402813DD40200F
:1018200033498880314800884038304908802E4844
:10183000006840302C4908602A48007840F0400099
:101840002849087008E02948008829498880002034
:10185000264908802449086025488088C0F3090388
:10186000234801884246204600F07EF900BF002050
:101870002168C1F3011181F003010801216848F6D4
:101880008F7211400843206000BF00BF0020216814
:10189000C1F3801181F001018801216811400843E2
:1018A00020601BE000BF00202168C1F3013181F0FE
:1018B00003010803216848F68F7211400843206035
:1018C00000BF00BF00202168C1F3803181F0010119
:1018D0008803216811400843206000BF00BFBDE8B5
:1018E000FC8100002E000020240000202C0000209D
:1018F00000600040F0B500245F1C7E10002500EB66
:10190000410707F5806500BF04E02F8817802D1D73
:10191000921C641CB442F8D3F0BD000008B5134813
:10192000006820F48060114908604020182380225C
:10193000012100900D484438FFF734FA4020582325
:1019400000220121009009484438FFF72BFA07488C
:101950000830006820F080008030044908310860B9
:101960000846006820F07F00086008BD445C004025
:1019700070B500240025E5E07648006800F00F000F
:10198000754908700846007800287CD171480068C5
:10199000C0F30010002857D0084600786F4901EBCB
:1019A0008000D0F8000CC0F3C02028B36C48047B42
:1019B000058923466B4A294666484438FFF79AFF53
:1019C00000BF002064490978644A02EB8101D1F824
:1019D000001C48F68F72114021F400405E490978DE
:1019E0005E4A02EB8101C1F8000C00BF5D49594815
:1019F0004438FFF7BDFCA5E057480078574901EB94
:101A00008000D0F8000CC0F3C0300028B3D000BF75
:101A1000002051490978514A02EB8101D1F8001C9C
:101A200048F68F72114021F400404B4909784B4A27
:101A300002EB8101C1F8000C00BF4748017845481E
:101A40004438FFF7E7FB7DE043480078434901EB6A
:101A50008000D0F8000CC0F3C010002872D000BF86
:101A600000203D4909783D4A02EB8101D1F8001C74
:101A700048F68F72114021F0800037490978374AC3
:101A800002EB810100E009E0C1F8000C00BF324820
:101A9000017830484438FFF7ABFA53E02D4800682E
:101AA000C0F3001030B32C4800782C4901EB8000C3
:101AB000D0F8000CC0F3C030F0B300BF00202649BE
:101AC0000978264A02EB8101D1F8001C48F68F7292
:101AD000114021F4004020490978204A02EB81019D
:101AE000C1F8000C00BF1C4801781A484438FFF7C1
:101AF00091FB27E018480078184901EB8000D0F8E6
:101B0000000CC0F3C010B8B100BF00201249097822
:101B1000124A02EB8101D1F8001C48F68F72114085
:101B200021F080000C4909780C4A02EB8101C1F8D0
:101B3000000C00BF084800E004E001780548443884
:101B4000FFF756FA03480068C0F3C03000287FF45E
:101B500013AF70BD445C00402800002000500040DE
:101B600000600040900100202DE9F041002403F1C5
:101B700001084FEA680C002500EB410808F5806574
:101B80000AB9BDE8F081002409E01778521C92F8E8
:101B9000008047EA08262E802D1D521C641C6445D7
:101BA000F3D300BFEDE70000002807DB00F01F02C1
:101BB00001219140024A430942F823107047000076
:101BC00080E200E000280DDB00BF00BF00F01F0234
:101BD000012191404209920002F1E022C2F8001175
:101BE00000BF00BF7047000010B5002804DB0A07E3
:101BF000130E054A135406E00A07140E034A00F0B8
:101C00000F031B1FD45410BD00E400E018ED00E0EA
:101C100000B50146FEF74CFC024600BFFEF748FC4B
:101C2000801A8842FAD300BD10B500F05BF8054871
:101C3000FEF726FFFEF7CEFFFEF75EFFFFF784F903
:101C400010BD00003F19010010B50D48C06820F418
:101C500000500B49C8600BA0FEF798FB4FF47A7058
:101C6000FFF7D6FF0648C06820F4005000F500508A
:101C70000349C8604FF47A70FFF7CAFF10BD000037
:101C800000100140416E6820656D206D696E68200E
:101C90006C61206D6F74206769612064696E680DE6
:101CA0000A000000FFF7C0FF01E0FFF7CDFFFCE7EF
:101CB00010B5044604EB4402084B03EB8202918802
:101CC00004EB440253F82200FEF7E8FB04EB440166
:101CD000034A02EBC101C978484010BDA81D0008A5
:101CE000E00000202E48006820F4803000F58030AD
:101CF0002B49086000BF2A480068C0F34040002814
:101D0000F9D00220274908602548406820F40030B7
:101D1000234948600846406820F4803000F5803050
:101D200048600846406820F4701000F5E0104860F4
:101D30000846406820F0F00048600846406820F4FB
:101D4000E06000F5806048600846406820F460501C
:101D500000F5205048600846006820F0807000F1CF
:101D60008070086000BF0E480068C0F34060002823
:101D7000F9D00B48406820F00300801C08494860F7
:101D800000BF07484068C0F381000228F9D1044829
:101D9000806920F00100401C014988617047000003
:101DA00000100240002002400008014002004800EC
:101DB000010000000008014004004800010000008C
:101DC0000008014008004800010000000008014030
:101DD0001000480001000000F81D0008000000206D
:101DE0009800000028010008901E000898000020BC
:101DF000380B0000440100084E677579656E206459
:101E000065702074726169000000000002480000E3
:101E100000000000000000000000000000000000C2
:101E20000000000000000000120100020202004059
:101E3000830440570002010203010902430002012A
:101E400000C0320904000001020201000524001054
:101E500001052401000104240202052406000107F3
:101E600005820308001009040100020A00000007AF
:101E7000050102400000070581024000000000004B
:101E8000040309040000000000000000000000003E
:04000005080000ED02
:00000001FF
