:020000040800F2
:10000000C8060020890100088D0100088F01000842
:10001000910100089301000895010008000000000C
:100020000000000000000000000000009701000830
:1000300099010008000000009B010008B5030008BA
:100040009F0100089F0100089F0100089F01000810
:100050009F0100089F0100089F010008810200081D
:100060009F0100089F0100089F0100089F010008F0
:100070009F0100089F0100089F0100089F010008E0
:100080009F0100089F0100089F0100089F010008D0
:100090009F0100089F0100089F0100089F010008C0
:1000A0009F0100089F0100089F0100089F010008B0
:1000B000B9030008050400089F0100089F0100081B
:1000C0009F0100089F0100089F0100089F01000890
:1000D0009F01000801050008510500089F01000864
:1000E0009F0100089F0100089F01000800F002F82E
:1000F00000F03AF80AA090E8000C82448344AAF188
:100100000107DA4501D100F02FF8AFF2090EBAE885
:100110000F0013F0010F18BFFB1A43F0010318473B
:100120000007000020070000103A24BF78C878C1FB
:10013000FAD8520724BF30C830C144BF04680C60ED
:10014000704700000023002400250026103A28BF35
:1001500078C1FBD8520728BF30C148BF0B60704739
:100160001FB51FBD10B510BD00F02DF81146FFF7EB
:10017000F7FF00F0F7FA00F04BF803B4FFF7F2FFD7
:1001800003BC00F053F8000008480047FEE7FEE714
:10019000FEE7FEE7FEE7FEE7FEE7FEE7FEE7FEE737
:1001A00003480449044A054B70470000ED0000086D
:1001B000C8000020C8060020C8020020C802002095
:1001C000704770477047754600F02CF8AE46050042
:1001D0006946534620F00700854618B020B5FFF762
:1001E000DFFFBDE820404FF000064FF000074FF062
:1001F00000084FF0000B21F00701AC46ACE8C00945
:10020000ACE8C009ACE8C009ACE8C0098D4670474D
:1002100010B50446AFF300802046BDE81040FFF75C
:10022000ACBF00000048704764000020014918205E
:10023000ABBEFEE726000200704700000E48806952
:1002400020F00400001D0C4988610C48006820F073
:1002500030000A4908600846006820F0C00080307D
:10026000086006480C30006820F00200801C03493A
:100270000C31086070470000001002400008014087
:1002800010B50C480078C0F3400090B10A480078DF
:10029000C009C1430848006861F3C71006490860F7
:1002A0000448006820F0020002490860072000F0BE
:1002B000E7F910BD140401400C08014010B50F48C7
:1002C000806820F0F0000D4988600D48006820F03B
:1002D0000200801C0A49086009480C30006820F0C0
:1002E0000200801C06490C310860072000F0D6F996
:1002F0000121072000F0E4F962B610BD00000140C2
:10030000000401402848806920F00400001D2649AF
:1003100088610846806920F0080008308861234819
:10032000006820F00300C01C2049086008460068EF
:1003300020F00C00083008601C480C30006820F0E9
:1003400001001A490C3108601948006820F040503B
:1003500000F14050164908600846006820F040400F
:1003600000F10040086012480C30006820F0800066
:100370000F490C3108600E48006820F0407000F111
:1003800040700B4908600846006820F0406000F1AA
:100390000060086006480C30006820F04000044906
:1003A0000C3108607047000000100240000C014052
:1003B000000801407047000010B54FF08040007BFE
:1003C00000F00100D0B14FF08040007C00F001004F
:1003D000A0B10B48007E401C052190FBF1F201FB0F
:1003E0001200074908764FF08040006920F00100B4
:1003F0004FF0804108611C2000F042F910BD000060
:100400000000002010B50B48007800F0010080B11A
:100410000848001D007800F0010050B10548001D9B
:10042000006820F001000349091D08601D2000F04C
:1004300027F910BD0C0400407047000010B52D488E
:10044000806920F00400001D2A49886108468069FF
:1004500020F4804000F5804088612748006820F043
:10046000C0008030244908600846006820F0300051
:10047000203008600846006820F4406000F5006005
:1004800008600846006820F4407008601B48006857
:1004900020F00F000C30194908604FF4EA7117483A
:1004A000006861F30F1015490860081D006820F40A
:1004B000005000F50050091D08600846006820F053
:1004C0000800083008600846006820F0200020304E
:1004D0000860252000F0E2F80121252000F0F0F866
:1004E0000648001D006820F00400001D0349091D96
:1004F000086010BD001002400408014008380140A7
:1005000011480078C0F34010E8B10F480C3800786B
:10051000C0F34010B8B10D4800781E280BDA0A4825
:100520000838017809480278401C8154401E007840
:10053000401C0649087004480C38006820F0200070
:1005400001490C39086070470C3801402400002034
:1005500011480078C0F34010E8B10F480C3800781B
:10056000C0F34010B8B10D4800781E280BDA0A48D5
:100570000838017809480278401C8154401E0078F0
:10058000401C0649087004480C38006820F0200020
:1005900001490C39086070470C44004043000020BA
:1005A00010B52E48806920F00400001D2B49886199
:1005B0000846C06920F4003000F50030C8612848C2
:1005C000006820F4406000F5006025490860084696
:1005D000006820F4407000F500700860084600686C
:1005E00020F4404000F5004008600846006820F410
:1005F000405008601B48006820F00F00801D19491A
:100600000860EA211748006861F30F101549086077
:10061000081D006820F4005000F50050091D086016
:100620000846006820F008000830086008460068A6
:1006300020F0200020300860262000F02FF8012153
:10064000262000F03DF80748001D006820F0040057
:10065000001D0449091D086010BD00000010024083
:10066000000801400844004000BF0278C2F3801235
:10067000002AFAD04160026822F04002026070470E
:10068000002807DB00F01F0201219140024A4309C4
:1006900042F823107047000080E200E000280DDBE4
:1006A00000BF00BF00F01F020121914042099200EB
:1006B00002F1E022C2F8001100BF00BF7047000045
:1006C00010B5002804DB0A07130E054A135406E090
:1006D0000A07140E034A00F00F031B1FD45410BD69
:1006E00000E400E018ED00E010B500F041F8FFF77D
:1006F000A5FDFFF707FEFFF79FFEFFF79FFEFFF741
:100700004FFFFFF7DBFD10BD00B500201149086069
:100710000DE0114800780F4A12781044C1B20F481A
:10072000FFF7A2FF0B480068401C0A49086009480F
:1007300000680A28EDD300200649086004E0054857
:100740000068401C03490860024800680449884268
:10075000F5D300BD1C00002020000020003801401F
:1007600080969800FFF7C0FF01E0FFF7CDFFFCE7A0
:100770002948006820F4803000F580302649086060
:1007800000BF25480068C0F340400028F9D002208F
:10079000224908602048406820F400301E49486023
:1007A0000846406820F4803000F5803048600846F4
:1007B000406820F4701000F5E0104860084640687A
:1007C00020F0F00048600846406820F4E06000F542
:1007D000806048600846406820F4605048600846E1
:1007E000006820F0807000F18070086000BF0A4847
:1007F0000068C0F340600028F9D00748406820F046
:100800000300801C0449486000BF03484068C0F3EF
:1008100081000228F9D170470010024000200240F8
:100820004008000800000020240000002801000803
:100830006408000824000020A40600004401000809
:10084000FF000000FFFF3300FF66CC0000EE000059
:1008500000FF00008FF6FF0000FF00000000000016
:040860004100000053
:04000005080000ED02
:00000001FF
