:020000040800F2
:10000000000B0020890100088D0100088F01000805
:10001000910100089301000895010008000000000C
:100020000000000000000000000000009701000830
:1000300099010008000000009B010008351200082B
:100040009F0100089F0100089F0100089F01000810
:100050009F0100089F0100089F010008DD020008C1
:100060009F0100089F0100089F0100089F010008F0
:100070009F0100089F0100089F0100089F010008E0
:100080009F0100089F0100089F0100089F010008D0
:100090009F0100089F0100089F0100089F010008C0
:1000A0009F0100089F0100089F0100089F010008B0
:1000B00057120008891200089F0100084D0300082C
:1000C0003D0300086D0300085D0300089F01000860
:1000D0009F010008F5130008451400089F0100085F
:1000E0009F0100089F0100089F01000800F002F82E
:1000F00000F03AF80AA090E8000C82448344AAF188
:100100000107DA4501D100F02FF8AFF2090EBAE885
:100110000F0013F0010F18BFFB1A43F0010318473B
:10012000581F0000781F0000103A24BF78C878C11B
:10013000FAD8520724BF30C830C144BF04680C60ED
:10014000704700000023002400250026103A28BF35
:1001500078C1FBD8520728BF30C148BF0B60704739
:100160001FB51FBD10B510BD00F07EF81146FFF79A
:10017000F7FF01F010FA00F09CF803B4FFF7F2FF6C
:1001800003BC00F0A3F8000008480047FEE7FEE7C4
:10019000FEE7FEE7FEE7FEE7FEE7FEE7FEE7FEE737
:1001A00003480449044A054B70470000ED0000086D
:1001B00000050020000B00200007002000070020A1
:1001C00002F0FF0343EA032242EA024200F005B8CC
:1001D0007047704770474FF000020429C0F012804A
:1001E00010F0030C00F01B80CCF1040CBCF1020FEA
:1001F00018BF00F8012BA8BF20F8022BA1EB0C01BF
:1002000000F00DB85FEAC17C24BF00F8012B00F8B4
:10021000012B48BF00F8012B70474FF0000200B5DA
:10022000134694469646203922BFA0E80C50A0E819
:100230000C50B1F12001BFF4F7AF090728BFA0E8C7
:100240000C5048BF0CC05DF804EB890028BF40F893
:10025000042B08BF704748BF20F8022B11F0804FD5
:1002600018BF00F8012B7047754600F02BF8AE461A
:1002700005006946534620F00700854618B020B5B2
:10028000FFF78EFFBDE820404FF000064FF000075B
:100290004FF000084FF0000B21F00701AC46ACE82E
:1002A000C009ACE8C009ACE8C009ACE8C0098D469B
:1002B000704710B50446AFF300802046BDE81040FB
:1002C000FFF75BBF004870479C04002001491820DD
:1002D000ABBEFEE726000200704700001148007820
:1002E000C0F34000E0B110480078C009C1430E4897
:1002F000006861F3C7100C4908600A48006820F0E4
:100300000200084908600720002807DB00F01F02F0
:1003100001219140054A430942F8231000BF00BF64
:1003200070470000140401400C08014080E200E026
:1003300001480068704700000000002010B5024826
:1003400000F07EF810BD00001400002010B5024837
:1003500000F086F810BD00001400002010B502481F
:1003600000F06EF810BD00003800002010B5024803
:1003700000F076F810BD000038000020F0B51C46F3
:10038000002300252C4EB1FBF6F3466863F3050607
:1003900046602A4EB24201D85E1C07E04FF49676C2
:1003A0005E434FF47A77B6FBF7F6761C0662234E6F
:1003B000B2422DD9C66926F4004606F50046C6614C
:1003C000C66964F38E36C661B4F5804F0DD102EB79
:1003D0004206B1FBF6F6C6F30B060EB9012615E090
:1003E00002EB4206B1FBF6F610E002EBC20606EBAA
:1003F0000216B1FBF6F6C6F30B060EB9012605E0B0
:1004000002EBC20606EB0216B1FBF6F6354610E02B
:10041000C66926F40046C6615600B1FBF6F6C6F37F
:100420000B06042E01D2042602E05600B1FBF6F6BC
:100430003546AEB2C661F0BD40420F00A086010055
:1004400000B5034618684068C0F3002038B118684A
:100450004069C0F3802010B1184600F0B5F800BD27
:1004600010B5044620684068C0F3402000280AD038
:10047000607E102851D12068406900F0010018B159
:10048000204600F073FA9EE020684069C0F3400007
:1004900018B1204600F08CF995E020688069C0F31F
:1004A0008000B8B120684069C0F3C01040B1206836
:1004B0004068C0F3802018B1204600F069FA82E05D
:1004C00020684069C0F3800000287CD0204600F0FE
:1004D0000EFB78E020688069C0F38000002872D1AC
:1004E00020684069C0F3801068B120684068C0F39C
:1004F000802040B120684069C0F3800018B92046D0
:1005000000F0AEF95FE020684069C0F38000002889
:1005100059D0204600F0CEF955E0607E202852D117
:1005200020684069C0F3400018B1204600F0FDFA91
:1005300049E020684069C0F3001018B1204600F07F
:1005400025FB40E020688069C0F38000D8B12068B6
:100550004069C0F3C01068B120684068C0F38020D3
:1005600040B120684069C0F3800018B9204600F00F
:100570002CFB28E020684069C0F3800018B32046B7
:1005800000F039FB1FE020688069C0F38000D0B91B
:1005900020684069C0F3801068B120684068C0F3EB
:1005A000802040B120684069C0F3800018B920461F
:1005B00000F0C8FA07E020684069C0F3800010B17D
:1005C000204600F0D5FA10BD0168496921F4806128
:1005D000026851610168096821F480610268116054
:1005E0000168496821F4E06102685160417E102988
:1005F00007D10168096821F4007101F500710268F2
:100600001160704710B504466349206888423AD1AA
:100610006248806920F008000830604988616048BD
:10062000006820F04040A0F180405D490860084625
:10063000006820F0405000F1405008600846006813
:1006400020F0406000F1406008600846006820F03B
:10065000407000F1407008605048C06920F40010FC
:1006600000F500104D49C86100211F2000F042FF35
:100670001F2000F01DFF0021202000F03BFF202064
:1006800000F016FF3FE04749206888423BD14348CD
:10069000806920F008000830404988614048001D0A
:1006A000006820F4406000F540603D49091D086085
:1006B0000846006820F4407000F540700860084665
:1006C000006820F4404000F540400860084600689B
:1006D00020F4405000F5405008603048C06920F4D4
:1006E000800000F580002D49C8610021212000F024
:1006F00001FF212000F0DCFE0021222000F0FAFEA4
:10070000222000F0D5FE2068006820F0010021685A
:10071000086000BF2068006820F4004000F5004039
:10072000216808602068006820F4004021680860A3
:1007300000BF00231C4A1D492068FFF71FFEA17D52
:100740002068006861F3C71021680860E17D2068B7
:10075000006861F3861021680860A17E20688068C7
:1007600061F3CF3021688860E08B4FF4804141EA2B
:1007700040002168886094F820102068C06861F308
:1007800047002168C8602068006820F00100401C14
:100790002168086010BD00000054004000100240B5
:1007A000000C014000580040A086010000512502C5
:1007B00008B501688969C1F38001002944D1018924
:1007C000012919D10168096821F48061026811606A
:1007D00000BF0021009101684969009101688969A1
:1007E000009100BF00BF0168096821F4007101F5A4
:1007F00000710268116032E00189022919D1016893
:10080000096821F4006101F500610268116000BF10
:10081000002100910168496900910168896900918E
:1008200000BF00BF0168096821F48061026811609F
:1008300015E000BF0021009101684969009101683D
:100840008969009100BF0AE000BF002100910168A2
:100850004969009101688969009100BF00BF08BD26
:100860000189022906D10168496821F48061026882
:1008700051607047418999B10168096942681170F6
:100880004168491C41604189491E418141890329D0
:1008900005D10168496821F4806102685160E8E788
:1008A0000168096821F4007101F5007102681160A6
:1008B00000BFDEE74189032928D10168096821F4D6
:1008C00080610268116001680969426811704168BD
:1008D000491C41604189491E41810168096821F430
:1008E000007101F5007102681160016809694268D0
:1008F00011704168491C41604189491E418101686C
:10090000496821F4407102685160704701890229E9
:1009100022D10168096821F4007101F500710268B3
:10092000116009E001680969426811704168491C59
:1009300041604189491E418141890029F2D1016804
:10094000096821F40061026811600168496821F4B6
:10095000407102685160D8E70168096821F40071AC
:1009600001F500710268116000BFCEE7027F5206F8
:10097000110EC27E1AB9CAB203681A6107E0C27EBC
:10098000012A04D141F00101CAB203681A6170471B
:100990000021428A92B1C268117802681161C2686E
:1009A000521CC260428A521E4282428A2AB902689E
:1009B000526822F4806203685A60704702681268C5
:1009C00022F4007202F5007203681A6000BFF4E7B7
:1009D0002DE9F84F0446884615461E46DDF8289056
:1009E000FFF7A6FC82464FEA48604FEA106B0027EB
:1009F000206800F0010020B9206820F00100401CB0
:100A0000206052464946204600F003F9012802D1F1
:100A10000220BDE8F88F206820F4807000F5807017
:100A20002060012352464946204600F008F901287B
:100A300007D1206820F4007000F5007020600420C9
:100A4000E7E70BF0FF0020610223524649462046AB
:100A500000F0F5F8012807D1206820F4007000F5B7
:100A6000007020600520D4E700BF0020009060697E
:100A70000090A069009000BF00BF1EE08023524696
:100A80004946204600F0DBF8012807D1206820F411
:100A9000007000F5007020600620BAE72F78701E05
:100AA00086B26D1C27616069C0F3800028B126B151
:100AB0002F786D1C701E86B22761002EDED10423B4
:100AC00052464946204600F0BAF8012807D120686E
:100AD00020F4007000F500702060082099E720687D
:100AE00020F4007000F500702060002091E70021E4
:100AF000428A52B1C268117802681161C268521C00
:100B0000C260428A521E428270470268526822F4D2
:100B1000407203685A600268126822F4007202F59B
:100B2000007203681A6000BFEEE708B500BF00213D
:100B3000009101684969009101688969009100BFCD
:100B400000BF08BD418991B101680969491C42682B
:100B500011704168491C41604189491E41814189A8
:100B600029B90168496821F48061026851607047C1
:100B7000418951B101680969491C42681170416895
:100B8000491C41604189491E4181704708B500BF39
:100B9000002100910168496900910168096800918C
:100BA000009921F40071009100990268116000BF62
:100BB0000168096821F48061026811600168496870
:100BC00021F4E0610268516008BD0021428A8AB1C7
:100BD000C268117802681161C268521CC260428A00
:100BE000521E4282428A2AB90268526822F4806206
:100BF00003685A6070470021428A4AB1C26811787E
:100C000002681161C268521CC260428A521E42824E
:100C1000704770B505460C46164609E0601C38B1B1
:100C2000FFF786FB801BA04200D80CB9012070BDE5
:100C3000A869C0F340000028F0D100BFF7E72DE914
:100C4000F04105460E4617461C4610E06869C0F3A1
:100C5000802010B10120BDE8F081701C38B1FFF791
:100C600067FBC01BB04200D80EB90120F3E7C4F304
:100C70000740012809D1A869A1B20840A1B2884261
:100C800001D101200AE0002008E06869A1B2084013
:100C9000A1B2884201D1012000E000200028D5D077
:100CA0000020D8E710B5002000F04AF800F0EAF97B
:100CB00010BD0000F0B503461446802B01DC40292E
:100CC00000DDF0BDFF2C1BD1CD1701EB5575ED10EC
:100CD0001A4E06EBC515ED5C0A46CE1701EB5676AB
:100CE000F610A1EBC6070126BE4035430846CE17D5
:100CF00001EB5676F610114F07EBC616F5541AE0C5
:100D0000CD1701EB5575ED100C4E06EBC515ED5CDE
:100D10000A46CE1701EB5676F610A1EBC607012660
:100D2000BE40B5430846CE1701EB5676F610034F8A
:100D300007EBC616F55400BFC3E700005C000020B7
:100D400010B5044622464FF480610248FFF738FA96
:100D500010BD00005C0000201CB50446B0480460D3
:100D6000642000F0EFFB00BFAEA0006801901420EB
:100D7000022301AA3C210090A9480068FFF728FE41
:100D800000BF00BFA8A0006801901420022301AAA0
:100D90003C210090A2480068FFF71AFE00BF00BF88
:100DA000A2A0006801901420022301AA3C21009017
:100DB0009B480068FFF70CFE00BF00BF9CA00068C6
:100DC00001901420022301AA3C210090944800685D
:100DD000FFF7FEFD00BF00BF00200190142002239A
:100DE00001AA3C2100908E480068FFF7F1FD00BF8A
:100DF00000BF90A0006801901420022301AA3C21AA
:100E0000009087480068FFF7E3FD00BF00BF8AA09D
:100E1000006801901420022301AA3C210090804820
:100E20000068FFF7D5FD00BF00BF84A000680190F7
:100E30001420022301AA3C21009079480068FFF7A2
:100E4000C7FD00BF00BF7EA00068019014200223F0
:100E500001AA3C21009072480068FFF7B9FD00BF6D
:100E600000BF78A0006801901420022301AA3C2151
:100E700000906B480068FFF7ABFD00BF00BF72A099
:100E8000006801901420022301AA3C2100906448CC
:100E90000068FFF79DFD00BF00BF6CA000680190D7
:100EA0001420022301AA3C2100905D480068FFF74E
:100EB0008FFD00BF00BF002001901420022301AA73
:100EC0003C21009056480068FFF782FD00BF00BF3C
:100ED0005EA0006801901420022301AA3C2100902A
:100EE0004F480068FFF774FD00BF00BF58A00068BE
:100EF00001901420022301AA3C2100904848006878
:100F0000FFF766FD00BF00BF52A0006801901420EB
:100F1000022301AA3C21009041480068FFF758FDD8
:100F200000BF00BF4CA0006801901420022301AA5A
:100F30003C2100903A480068FFF74AFD00BF00BF1F
:100F400046A0006801901420022301AA3C210090D1
:100F500033480068FFF73CFD00BF00BF40A00068B9
:100F600001901420022301AA3C2100902C48006823
:100F7000FFF72EFD00BF00BF3AA0006801901420CB
:100F8000022301AA3C21009025480068FFF720FDBC
:100F900000BF00BF34A0006801901420022301AA02
:100FA0003C2100901E480068FFF712FD00BF00BF03
:100FB00025A0006801901420022301AA3C21009082
:100FC00017480068FFF704FD00BF00BF27A00068B6
:100FD00001901420022301AA3C21009010480068CF
:100FE000FFF7F6FC00BF00BF21A0006801901420AD
:100FF000022301AA3C21009009480068FFF7E8FCA1
:1010000000BF00BF1BA0006801901420022301AAAA
:101010003C21009002480068FFF7DAFC00BF1CBDCD
:101020001000002000AE000000A80000003F0000FB
:1010300000D300000040000000A1000000C8000034
:1010400000DA000000120000002000000010000084
:1010500000810000007F000000A4000000A6000046
:1010600000D500000080000000DB0000008D0000C3
:101070000014000000AF0000014A1070517070476A
:101080000C0000207CB5002448E000BF0020019047
:1010900004F1B000C0B28DF805001420022301AAAB
:1010A0003C2100901F480068FFF792FC00BF00BF82
:1010B000002001901420022301AA3C21009019482D
:1010C0000068FFF785FC00BF00BF17A00068019013
:1010D0001420022301AA3C21009012480068FFF767
:1010E00077FC00BF002515E000BF10A0006801904C
:1010F0000F4800EBC410405D8DF80500142002235A
:1011000001AA3C21009007480068FFF761FC00BF7E
:10111000681CC5B2802DE7DB601CC4B2082CB4DBB0
:101120007CBD000010000020001000004000000006
:101130005C0000202DE9FF4105460A9F202D01D3C8
:101140007E2D03D9002004B0BDE8F0812C48007842
:101150009DF804100844802806DC294840789DF852
:1011600005100844402801DD0020ECE7002432E0AF
:10117000A5F120009DF8051000FB0140029931F80F
:101180001080002621E008FA06F000F4004058B173
:101190001B4A52782244D1B2194A12783244D0B252
:1011A0003A46FFF787FD0EE00FB9012300E0002368
:1011B0001A46134B5B782344D9B2114B1B78334446
:1011C000D8B2FFF777FD701CC6B29DF80400B0429C
:1011D000D9DC601CC4B29DF80500A042C8DC0398AD
:1011E00020B1A5F120000399085C01E09DF80400FE
:1011F000034909780844024908702846A3E700001B
:101200000C0000203FB581B00446089D0CE000951D
:10121000207802A90EC9FFF78DFF2178884202D0FD
:10122000207805B030BD641C20780028EFD12078EC
:10123000F7E7000002480068401C01490860704759
:10124000000000204FF0E0218861486107214FF045
:10125000E0221161704710B54FF08040007B00F034
:10126000010080B14FF08040007C00F0010050B1DF
:101270004FF08040006920F001004FF0804108618C
:101280001C2000F007F910BD10B50B48007800F0E5
:10129000010080B10848001D007800F0010050B145
:1012A0000548001D006820F001000349091D086081
:1012B0001D2000F0EFF810BD0C0400400E488069BE
:1012C00020F00400001D0C4988610C48006820F0E3
:1012D000405000F14050094908600846006820F07D
:1012E0004040086005480C30006820F08000034949
:1012F0000C310860704700000010024000080140F7
:1013000008B5FFF7CFFC04210846FFF7B5FEFF2024
:10131000009004480EC804A0FFF774FFFFF7B2FE68
:1013200008BD00006C200008427569204E67757981
:10133000656E20323830340010B52B48806920F0BB
:101340000400001D284988610846806920F4804017
:1013500000F5804088612548006820F0C00080309A
:10136000224908600846006820F0300020300860FC
:101370000846006820F4406000F5006008600846F8
:10138000006820F4407008601948006820F00F00E1
:10139000401C1749086027211548006861F30F10A9
:1013A00013490860081D006820F008000830091D76
:1013B00008600846006820F00400001D0860084628
:1013C000006820F02000203008600846006820F403
:1013D000005000F500500860252000F07AF8012147
:1013E000252000F09BF810BD0010024004080140C9
:1013F0000838014011480078C0F34010E8B10F48A8
:101400000C380078C0F34010B8B10D4800781E28A1
:101410000BDA0A480838017809480278401C8154E0
:10142000401E0078401C0649087004480C380068CB
:1014300020F0200001490C39086070470C38014049
:101440005C04002011480078C0F34010E8B10F4858
:101450000C380078C0F34010B8B10D4800781E2851
:101460000BDA0A480838017809480278401C815490
:10147000401E0078401C0649087004480C3800687B
:1014800020F0200001490C39086070470C440040EE
:101490007B040020002807DB00F01F02012191409F
:1014A000024A430942F823107047000080E200E03E
:1014B00000280DDB00BF00BF00F01F02012191409A
:1014C0004209920002F1E022C2F8001100BF00BF01
:1014D000704700280DDB00BF00BF00F01F02012194
:1014E00091404209920002F1E022C2F8001100BFCF
:1014F00000BF704710B5002804DB0A07130E054A29
:10150000135406E00A07140E034A00F00F031B1FD2
:10151000D45410BD00E400E018ED00E010B5002840
:1015200004DB0A07130E054A135406E00A07140EDB
:10153000034A00F00F031B1FD45410BD00E400E069
:1015400018ED00E000B50146FEF7F2FE024600BFCE
:10155000FEF7EEFE801A8842FAD300BD10B500F007
:1015600021F80948FFF76EFEFFF7E6FEFFF7A6FE3B
:101570000648074908600846FFF744F80348FFF7A4
:10158000EBFBFFF7BDFE10BD3F190100005400400A
:10159000140000207047FFF7E1FF01E0FFF7FAFFBA
:1015A000FCE700002D48006820F4803000F5803012
:1015B0002A49086000BF29480068C0F3404000285D
:1015C000F9D00220264908602448406820F4003001
:1015D000224948600846406820F4803000F5803099
:1015E00048600846406820F4701000F5E01048603C
:1015F0000846406820F0F00048600846406820F443
:10160000E06000F5806048600846406820F4605063
:1016100048600846006820F0807000F18070086023
:1016200000BF0E480068C0F340600028F9D00B48A6
:10163000406820F00300801C0849486000BF07484C
:101640004068C0F381000228F9D10448806920F085
:101650000100401C014988617047000000100240F1
:101660000020024000000000000000000000000018
:10167000000000000000000000000000000000006A
:10168000002000200020002000200020002000007A
:1016900000200000000000000000002800280028B2
:1016A000000000000000000000000000000000003A
:1016B00000000000001200120024007E0024007EC2
:1016C000002400480048000000000000001000381E
:1016D000005400500070001800140014005400382A
:1016E0000010000000000000002100510052002402
:1016F000000480084011401180200000000000001C
:101700000000000E0012001480190031004A004C45
:101710004044803B0000000000000000004000400A
:101720000040000000000000000000000000000079
:1017300000000000000000100020002000400040D9
:101740000040004000400020002000100000000089
:1017500000400020002000100010001000100010B9
:10176000002000200040000000000010005400385D
:101770000054001000000000000000000000000005
:10178000000000000000000800080008007F0008BA
:101790000008000800000000000000000000000039
:1017A00000000000000000000000000000000060D9
:1017B00000200040000000000000000000000000C9
:1017C00000000000007000000000000000000000A9
:1017D0000000000000000000000000000000000009
:1017E00000000020000000000000000000100010B9
:1017F00000200020002000200020004000400000C9
:101800000000000000000038004400440044004490
:1018100000440044004400380000000000000000C4
:101820000010003000100010001000100010001018
:1018300000380000000000000000003800440004F0
:1018400000040004000800100024007C00000000D8
:1018500000000000003800440004000800180004E4
:1018600000040004007800000000000000000004F4
:10187000000C000C001400240044007E000400044E
:101880000000000000000000001C002000300008E4
:1018900000040004000400080070000000000000C4
:1018A0000000000C001000200058006400440044B8
:1018B000004400380000000000000000003C00442C
:1018C00000040008000800080008001000100000D4
:1018D0000000000000000038004400440028001010
:1018E0000028004400440038000000000000000010
:1018F00000380044004400440044003C000800104C
:101900000060000000000000000000000000000077
:101910000020000000000000000000200000000087
:101920000000000000000000000000200000000097
:101930000000000000300010002000000000000047
:1019400000000006003800400038000600000000DB
:101950000000000000000000000000000000007E09
:101960000000007E000000000000000000000000F9
:101970000000000000000060001C0002001C00606D
:1019800000000000000000000000000000300048DF
:101990000048000800100020002000000020000087
:1019A000000000000000800F4010A026A049A050B9
:1019B000A05020514053804C20204010800F000048
:1019C00000100010002800280024003C00420042C3
:1019D00000E70000000000000000007C0022002260
:1019E0000022003E002100210021007E00000000B6
:1019F00000000000001D00230041004000400040A6
:101A000000410022001C0000000000000000007ED9
:101A10000021802080208020802080200021007EE6
:101A20000000000000000000007E002200200024D2
:101A3000003C002400200021007E00000000000087
:101A40000000007E002200200024003C0024002032
:101A5000002000700000000000000000001D0023B6
:101A6000004100408043004100410021001E000071
:101A70000000000000008073002100210021003FD1
:101A80000021002100218073000000000000000000
:101A900000700020002000200020002000200020F6
:101AA000007000000000000000000038001000106E
:101AB0000010001000100010005000600000000036
:101AC000000000008073002200240028003000285D
:101AD000002400228073000000000000000000705D
:101AE0000020002000200020002000200021007E97
:101AF000000000000000000070706030A028A028E6
:101B000020252025202520227072000000000000E2
:101B100000008063002100310029002500250023FA
:101B2000002100710000000000000000001E0021E4
:101B3000804080408040804080400021001E0000A6
:101B4000000000000000007C002200220022003C77
:101B500000200020002000700000000000000000B5
:101B6000001E002180408040804080408040002155
:101B7000001E0004800300000000007C0022002200
:101B80000022003C0024002400228071000000009C
:101B900000000000003C0044004000200018000449
:101BA0000004004400780000000000000000007FF6
:101BB0000049000800080008000800080008001C90
:101BC00000000000000000008073002100210021BF
:101BD0000021002100210021001E00000000000063
:101BE000000000EE004400440044002800280028C3
:101BF000001000100000000000000000E0EE404473
:101C000040448044802A802A0033001100110000E3
:101C100000000000000000E7004200240018000857
:101C200000180024004200E700000000000000004F
:101C300000E70042002400280028001000100010D7
:101C400000380000000000000000003F00220004F7
:101C500000040008001000210021007F00000000A7
:101C6000000000000038002000200020002000209C
:101C7000002000200020002000380000000000406C
:101C80000040002000200020002000200010001054
:101C9000000000000000000000E000200020002004
:101CA00000200020002000200020002000E0000094
:101CB0000018002400240042000000000000000082
:101CC0000000000000000000000000000000000014
:101CD0000000000000000000000000000000000004
:101CE0000000007E00000000002000100000000046
:101CF00000000000000000000000000000000000E4
:101D00000000000000000030004800380048004893
:101D1000003C000000000000000000C00040004047
:101D200000580064004400440044003800000000F3
:101D300000000000000000000000003800480040E3
:101D40000040004800300000000000000000000CCF
:101D5000000400040034004C004400440044003EF1
:101D60000000000000000000000000000000003043
:101D700000480078004000480030000000000000EB
:101D80000000001C00240020007000200020002023
:101D900000200070000000000000000000000000B3
:101DA0000000003C0048004800300040003800447B
:101DB00000440038000000600020002000280034AB
:101DC0000024002400240076000000000000000031
:101DD0000020000000000060002000200020002003
:101DE0000070000000000000000000200000000063
:101DF00000600020002000200020002000200020A3
:101E000000C00000006000200020002C00280030EE
:101E100000280024007600000000000000000060A0
:101E20000020002000200020002000200020007062
:101E30000000000000000000000000000000006939
:101E40008036802480248024C076000000000000BA
:101E5000000000000000000000680034002400249E
:101E600000240076000000000000000000000000D8
:101E700000000038004400440044004400380000E2
:101E8000000000000000000000000000006C0032B4
:101E9000002200220032002C0020002000700000F0
:101EA0000000000000000034004C00440044004CDE
:101EB000003400040004000E0000000000000000D8
:101EC00000680030002000200020007000000000AA
:101ED000000000000000000000380048006000180A
:101EE000004800700000000000000000000000003A
:101EF0000020002000700020002000200020003082
:101F00000000000000000000000000000000006C65
:101F10000024002400240024001E00000000000013
:101F2000000000000000000000E600440028002837
:101F30000010001000000000000000000000000081
:101F40000000C06E80240025002D00120012000049
:101F5000000000000000000000000000006C0028ED
:101F6000001000100028006C0000000000000000BD
:101F700000000000000000EE004400480028002897
:101F800000100010002000C0000000000000000051
:101F9000007C0048001000100024007C00000000BD
:101FA00000000000000800100010001000100020C9
:101FB0000010001000100010000800000000004099
:101FC0000040004000400040004000400040004011
:101FD0000040004000000000002000100010001031
:101FE0000010000800100010001000100020000079
:101FF0000000000000000000000000000034005855
:102000000000000000000000000004050607070BA8
:102010000A0305050708040504040707070707075F
:10202000070707070404080808060C0A09090A0834
:10203000080A0A05060A080D0A0A080A0907090A11
:10204000090D0A0A0905040507070506070607061C
:10205000060607040407040A07070807050605071C
:10206000070A060807070307070000000D0D000018
:10207000641600080A2000089820000800000020CC
:102080001400000028010008AC2000081400002003
:10209000EC0A0000440100080000000002480000B3
:0C20A00000000000000000000000000034
:04000005080000ED02
:00000001FF
