:020000040800F2
:1000000000070020890100088D0100088F01000809
:10001000910100089301000895010008000000000C
:100020000000000000000000000000009701000830
:1000300099010008000000009B010008A10B0008C6
:100040009F0100089F0100089F0100089F01000810
:100050009F0100089F0100089F0100083D02000861
:100060009F0100089F0100089F0100089F010008F0
:100070009F0100089F0100089F0100089F010008E0
:100080009F0100089F0100089F0100089F010008D0
:100090009F0100089F0100089F0100089F010008C0
:1000A0009F0100089F0100089F0100089F010008B0
:1000B000C30B0008F50B00089F0100089D02000813
:1000C0009F010008AD0200089F0100089F01000881
:1000D0009F0100086D0C0008BD0C00089F0100087E
:1000E0009F0100089F0100089F01000800F002F82E
:1000F00000F03AF80AA090E8000C82448344AAF188
:100100000107DA4501D100F02FF8AFF2090EBAE885
:100110000F0013F0010F18BFFB1A43F0010318473B
:10012000D40D0000F40D0000103A24BF78C878C147
:10013000FAD8520724BF30C830C144BF04680C60ED
:10014000704700000023002400250026103A28BF35
:1001500078C1FBD8520728BF30C148BF0B60704739
:100160001FB51FBD10B510BD00F02DF81146FFF7EB
:10017000F7FF00F059FE00F04BF803B4FFF7F2FF71
:1001800003BC00F053F8000008480047FEE7FEE714
:10019000FEE7FEE7FEE7FEE7FEE7FEE7FEE7FEE737
:1001A00003480449044A054B70470000ED0000086D
:1001B00000010020000700200003002000030020B1
:1001C000704770477047754600F02CF8AE46050042
:1001D0006946534620F00700854618B020B5FFF762
:1001E000DFFFBDE820404FF000064FF000074FF062
:1001F00000084FF0000B21F00701AC46ACE8C00945
:10020000ACE8C009ACE8C009ACE8C0098D4670474D
:1002100010B50446AFF300802046BDE81040FFF75C
:10022000ACBF0000004870479C0000200149182026
:10023000ABBEFEE7260002007047000011480078C0
:10024000C0F34000E0B110480078C009C1430E4837
:10025000006861F3C7100C4908600A48006820F084
:100260000200084908600720002807DB00F01F0291
:1002700001219140054A430942F8231000BF00BF05
:1002800070470000140401400C08014080E200E0C7
:1002900001480068704700000000002010B50248C7
:1002A00000F06EF810BD00001400002010B50248E8
:1002B00000F066F810BD000038000020F0B51C46C4
:1002C000002300252C4EB1FBF6F3466863F30506C8
:1002D00046602A4EB24201D85E1C07E04FF4967683
:1002E0005E434FF47A77B6FBF7F6761C0662234E30
:1002F000B2422DD9C66926F4004606F50046C6610D
:10030000C66964F38E36C661B4F5804F0DD102EB39
:100310004206B1FBF6F6C6F30B060EB9012615E050
:1003200002EB4206B1FBF6F610E002EBC20606EB6A
:100330000216B1FBF6F6C6F30B060EB9012605E070
:1003400002EBC20606EB0216B1FBF6F6354610E0EC
:10035000C66926F40046C6615600B1FBF6F6C6F340
:100360000B06042E01D2042602E05600B1FBF6F67D
:100370003546AEB2C661F0BD40420F00A086010016
:1003800010B5044620684068C0F34020002848D0DB
:100390002068406900F0010018B1204600F046FBDB
:1003A0003FE020684069C0F3400018B1204600F0EB
:1003B000FFF836E020688069C0F38000B0B12068A3
:1003C0004069C0F3C01040B120684068C0F380208D
:1003D00018B1204600F03CFB23E020684069C0F3E0
:1003E0008000F0B1204600F04BFB1AE020688069E5
:1003F000C0F38000A8B920684069C0F3801040B104
:1004000020684068C0F3802018B1204600F022F92F
:1004100007E020684069C0F3800010B1204600F07A
:10042000B5FA10BD10B504465B492068884233D147
:100430005A48806920F008000830584988615848B7
:10044000006820F04040A0F180405549086008460F
:10045000006820F0405000F14050086008460068F5
:1004600020F0406000F1406008600846006820F01D
:10047000407000F1407008604848C06920F40010E6
:1004800000F500104549C86100211F2000F05EFC06
:100490001F2000F049FC38E042492068884234D1EE
:1004A0003E48806920F0080008303C4988613C489B
:1004B000001D006820F4406000F540603849091DC7
:1004C00008600846006820F4407000F5407008603D
:1004D0000846006820F4404000F5404008600846A7
:1004E000006820F4405000F5405008602B48C06977
:1004F00020F4800000F580002849C86100212120F7
:1005000000F024FC212000F00FFC2068006820F09F
:1005100001002168086000BF2068006820F40040E6
:1005200000F50040216808602068006820F4004061
:100530002168086000BF00231B4A1C492068FFF7A0
:10054000BDFEA17D2068006861F3C71021680860C6
:10055000E17D2068006861F3861021680860A17E53
:100560002068806861F3CF3021688860E08B40F4B8
:1005700080402168886094F820102068C06861F38A
:1005800047002168C8602068006820F00100401C16
:100590002168086010BD00000054004000100240B7
:1005A000000C014000580040A086010000512502C7
:1005B00008B501688969C1F3800100293ED101892C
:1005C000012913D100BF0021009101684969009100
:1005D00001688969009100BF00BF0168096821F4C2
:1005E000007101F500710268116032E00189022991
:1005F00019D10168096821F4006101F50061026800
:10060000116000BF002100910168496900910168F3
:100610008969009100BF00BF0168096821F4806109
:100620000268116015E000BF00210091016849696E
:10063000009101688969009100BF0AE000BF0021B4
:10064000009101684969009101688969009100BFC2
:1006500000BF08BD4189032900D17047418951B1CC
:1006600001680969426811704168491C416041890B
:10067000491E4181F1E70168096821F4007101F523
:1006800000710268116000BFE7E72DE9F84F0446EA
:10069000884691461D46DDE90A6AFFF7F9FD834663
:1006A0004FEA4860070E206800F0010020B920687A
:1006B00020F00100401C20605A465146204600F0C0
:1006C00026FA012802D10220BDE8F88F206820F424
:1006D000807000F58070206001235A465146204604
:1006E00000F02BFA012807D1206820F4007000F5F3
:1006F000007020600420E7E7F8B2206102235A4628
:100700005146204600F019FA012807D1206820F44C
:10071000007000F5007020600520D5E700BF0020C4
:10072000009060690090A069009000BF00BF802326
:100730005A465146204600F000FA012807D12068A9
:1007400020F4007000F5007020600620BCE709F07E
:10075000FF00206180235A465146204600F0EDF903
:10076000012807D1206820F4007000F50070206097
:100770000620A9E7206820F4807000F580702060D2
:1007800001235A465146204600F0D7F9012807D1E7
:10079000206820F4007000F500702060042093E7CA
:1007A00047F00107012E33D1F8B22061206820F410
:1007B0008060206002235A465146204600F0BDF971
:1007C000012807D1206820F4007000F50070206037
:1007D000052079E700BF0020009060690090A069C3
:1007E000009000BF00BF206820F4007000F500708A
:1007F000206040235A465146204600F09EF90128C9
:1008000001D1072060E720692870701E86B2BBE026
:10081000022E4DD1206820F4006000F500602060B9
:10082000206820F4806000F580602060F8B22061CC
:1008300002235A465146204600F07FF9012807D18D
:10084000206820F4007000F50070206005203BE770
:1008500000BF0020009060690090A069009000BF78
:1008600000BF206820F48060206004235A4651466F
:10087000204600F062F9012807D1206820F40070BA
:1008800000F50070206008201EE7206820F400704A
:1008900000F50070206004E0206928706D1C701E57
:1008A00086B2002EF8D1206820F4006020606BE052
:1008B000206820F4806000F580602060F8B220613C
:1008C00002235A465146204600F037F9012807D145
:1008D000206820F4007000F5007020600520F3E629
:1008E00000BF0020009060690090A069009000BFE8
:1008F00000BF14E040235A465146204600F01DF93F
:10090000012807D1206820F4007000F500702060F5
:100910000720D9E6206928706D1C701E86B2032E50
:10092000E8D804235A465146204600F006F901282B
:1009300007D1206820F4007000F5007020600820C6
:10094000C2E6206820F480602060206928706D1C59
:10095000701E86B2206820F4007000F500702060E0
:10096000206928706D1C701E86B240235A4651467D
:10097000204600F0E2F8012801D10720A4E6206912
:1009800028706D1C701E86B200209DE641890329E7
:1009900022D10168096821F4806102681160016850
:1009A0000969426811704168491C41604189491ECA
:1009B00041810168096821F4007101F50071026844
:1009C000116001680969426811704168491C416001
:1009D0004189491E41817047018902291CD1016862
:1009E000096821F4007101F500710268116009E0E5
:1009F00001680969426811704168491C4160418978
:100A0000491E418141890029F2D10168096821F418
:100A1000006102681160DEE70168096821F4007175
:100A200001F500710268116000BFD4E7027F520631
:100A3000110EC27E1AB9CAB203681A6107E0C27EFB
:100A4000012A04D141F00101CAB203681A6170475A
:100A50000021428A52B1C268117802681161C268ED
:100A6000521CC260428A521E42827047026812685B
:100A700022F4007202F5007203681A6000BFF4E706
:100A80000021428A52B1C268117802681161C268BD
:100A9000521CC260428A521E42827047026812682B
:100AA00022F4007202F5007203681A6000BFF4E7D6
:100AB00070B50446002548F6A04500BF6D1E0DB96F
:100AC000022070BD20688069C0F340000028F5D185
:100AD000102060760020E076E2602382208A608227
:100AE000A1832068006820F40060266830602068D8
:100AF000406840F4E060266870602068006820F478
:100B0000807000F58070266830600020D9E770B5ED
:100B100005460C46164609E0601C38B1FFF7B8FBE5
:100B2000801BA04200D80CB9012070BDA869C0F399
:100B300040000028F0D100BFF7E72DE9F04105465D
:100B40000E4617461C4610E06869C0F3802010B1BD
:100B50000120BDE8F081701C38B1FFF799FBC01B84
:100B6000B04200D80EB90120F3E7C4F307400128D2
:100B700009D1A869A1B20840A1B2884201D10120DF
:100B80000AE0002008E06869A1B20840A1B28842EA
:100B900001D1012000E000200028D5D00020D8E7B6
:100BA00002480068401C01490860704700000020AE
:100BB0004FF0E0218861486107214FF0E022116188
:100BC000704710B54FF08040007B00F0010080B10D
:100BD0004FF08040007C00F0010050B14FF08040A9
:100BE000006920F001004FF0804108611C2000F0F6
:100BF0008DF810BD10B50B48007800F0010080B1F1
:100C00000848001D007800F0010050B10548001DA3
:100C1000006820F001000349091D08601D2000F054
:100C200075F810BD0C0400400E48806920F00400E7
:100C3000001D0C4988610C48006820F0405000F10C
:100C40004050094908600846006820F040400860AC
:100C500005480C30006820F0800003490C31086022
:100C60007047000000100240000801401148007861
:100C7000C0F34010E8B10F480C380078C0F34010C2
:100C8000B8B10D4800781E280BDA0A4808380178F8
:100C900009480278401C8154401E0078401C0649D7
:100CA000087004480C38006820F0200001490C3915
:100CB000086070470C3801405C0000201148007843
:100CC000C0F34010E8B10F480C380078C0F3401072
:100CD000B8B10D4800781E280BDA0A4808380178A8
:100CE00009480278401C8154401E0078401C064987
:100CF000087004480C38006820F0200001490C39C5
:100D0000086070470C4400407B000020002807DB8F
:100D100000F01F0201219140024A430942F82310CA
:100D20007047000080E200E000280DDB00BF00BF3C
:100D300000F01F02012191404209920002F1E022DD
:100D4000C2F8001100BF00BF7047000010B50028B6
:100D500004DB0A07130E054A135406E00A07140EB3
:100D6000034A00F00F031B1FD45410BD00E400E041
:100D700018ED00E000B50146FFF78AFA024600BF11
:100D8000FFF786FA801A8842FAD300BD1CB500F03E
:100D900051F81548FFF70CFF14481549086008463C
:100DA000FFF740FB13481449086000208876902024
:100DB000C8830846FFF736FB052402230F4A682143
:100DC0000B48FFF775FE4FF4FA60FFF7D3FF1420CE
:100DD00002210B4B0122CDE9001068210348FFF7E7
:100DE00054FCFFF721FF1CBD3F19010000540040D7
:100DF00014000020005800403800002004000020AB
:100E00000600002000B507480078C009C143054826
:100E1000006861F3C710034908604FF47A70FFF768
:100E2000A9FF00BD0C080140FFF7B0FF01E0FFF78C
:100E3000E9FFFCE72D48006820F4803000F58030A1
:100E40002A49086000BF29480068C0F340400028D4
:100E5000F9D00220264908602448406820F4003078
:100E6000224948600846406820F4803000F5803010
:100E700048600846406820F4701000F5E0104860B3
:100E80000846406820F0F00048600846406820F4BA
:100E9000E06000F5806048600846406820F46050DB
:100EA00048600846006820F0807000F1807008609B
:100EB00000BF0E480068C0F340600028F9D00B481E
:100EC000406820F00300801C0849486000BF0748C4
:100ED0004068C0F381000228F9D10448806920F0FD
:100EE0000100401C01498861704700000010024069
:100EF00000200240140F0008000000201400000031
:100F000028010008280F000814000020EC0600004B
:100F1000440100080000000002480000000000003A
:080F2000000000004100000088
:04000005080000ED02
:00000001FF
