:020000040800F2
:10000000C80B0020890100088D0100088F0100083D
:10001000910100089301000895010008000000000C
:100020000000000000000000000000009701000830
:1000300099010008000000009B0100082D0A00083B
:100040009F0100089F0100089F0100089F01000810
:100050009F0100089F0100089F0100080D0400088F
:100060009F0100089F0100089F0100089F010008F0
:100070009F0100089F0100089F0100089F010008E0
:100080009F0100089F0100089F0100089F010008D0
:10009000A90E00089F0100089F0100089F010008A9
:1000A0009F0100089F0100089F0100089F010008B0
:1000B000570A0008890A00089F01000891040008F7
:1000C00081040008B1040008A10400089F01000891
:1000D0009F010008550C0008A50C00089F010008AE
:1000E0009F0100089F0100089F01000800F002F82E
:1000F00000F03AF80AA090E8000C82448344AAF188
:100100000107DA4501D100F02FF8AFF2090EBAE885
:100110000F0013F0010F18BFFB1A43F0010318473B
:10012000E41A0000041B0000103A24BF78C878C10C
:10013000FAD8520724BF30C830C144BF04680C60ED
:10014000704700000023002400250026103A28BF35
:1001500078C1FBD8520728BF30C148BF0B60704739
:100160001FB51FBD10B510BD00F02DF81146FFF7EB
:10017000F7FF01F0ADFC00F04BF803B4FFF7F2FF1E
:1001800003BC00F053F8000008480047FEE7FEE714
:10019000FEE7FEE7FEE7FEE7FEE7FEE7FEE7FEE737
:1001A00003480449044A054B70470000ED0000086D
:1001B000C8050020C80B0020C8070020C807002081
:1001C000704770477047754600F02CF8AE46050042
:1001D0006946534620F00700854618B020B5FFF762
:1001E000DFFFBDE820404FF000064FF000074FF062
:1001F00000084FF0000B21F00701AC46ACE8C00945
:10020000ACE8C009ACE8C009ACE8C0098D4670474D
:1002100010B50446AFF300802046BDE81040FFF75C
:10022000ACBF000000487047680500200149182055
:10023000ABBEFEE726000200704700002DE9F0414A
:1002400000260027002499E000260027204601F020
:1002500045FC04EB44014C4A02EBC1010D3104EBB7
:100260004402494B13F83220885400250AE004EB7D
:100270004400454901EBC0000D30405D3044C6B23A
:10028000681CC5B2082DF2D304EB44003E4911F8B6
:100290003000401C04EB44013B4A02F8310004EBFF
:1002A0004400114611F83000082804D3002004EB64
:1002B000440102F83100082E01D1022000E00120A3
:1002C000074604EB4400304901EBC000007BB84214
:1002D0001BD004EB440001EBC000077304EB4400A7
:1002E00001EBC000007B022807D1002004EB440191
:1002F000254A02EBC10148603EE0002004EB4401C6
:10030000214A02EBC101887036E004EB44001E492B
:1003100001EBC000007B022813D104EB440001EB89
:10032000C0004068401C60B104EB440001EBC00019
:100330004068401C04EB4401134A02EBC1014860D1
:100340001AE004EB4400104901EBC000007B0128D7
:1003500012D104EB440001EBC0008078FF280BD2DF
:1003600004EB440001EBC0008078401C04EB440126
:10037000054A02EBC1018870601CC4B2042CFFF472
:1003800063AFBDE8F0810000DC00002070B50446DA
:10039000002519480460204600F0ACFC174908808D
:1003A00008460088402813DD4020154988801348FE
:1003B00000884038114908800F48006840300E49D5
:1003C00008601048007840F040000E49087008E0CE
:1003D0000A4800880A4988800020084908800649A0
:1003E00008600748808AC0F309030548018A2A4645
:1003F000054801F0F1FA70BD20000020280000201F
:10040000006000402A000020005C00401148007895
:10041000C0F34000E0B110480078C009C1430E4865
:10042000006861F3C7100C4908600A48006820F0B2
:100430000200084908600720002807DB00F01F02BF
:1004400001219140054A430942F8231000BF00BF33
:1004500070470000140401400C08014080E200E0F5
:10046000024690680840884201D101207047002070
:10047000FCE7000001480068704700001000002001
:1004800010B5024800F01CF810BD000094000020D8
:1004900010B5024800F024F810BD000094000020C0
:1004A00010B5024800F00CF810BD0000B8000020A4
:1004B00010B5024800F014F810BD0000B80000208C
:1004C00000B5034618684068C0F3002038B11868CA
:1004D0004069C0F3802010B1184600F0B5F800BDA7
:1004E00010B5044620684068C0F3402000280AD0B8
:1004F000607E102851D12068406900F0010018B1D9
:10050000204600F09DF99EE020684069C0F340005D
:1005100018B1204600F0B6F895E020688069C0F375
:100520008000B8B120684069C0F3C01040B12068B5
:100530004068C0F3802018B1204600F093F982E0B3
:1005400020684069C0F3800000287CD0204600F07D
:10055000A9F978E020688069C0F38000002872D192
:1005600020684069C0F3801068B120684068C0F31B
:10057000802040B120684069C0F3800018B920464F
:1005800000F0D8F85FE020684069C0F380000028E0
:1005900059D0204600F0F8F855E0607E202852D16E
:1005A00020684069C0F3400018B1204600F098F977
:1005B00049E020684069C0F3001018B1204600F0FF
:1005C000C0F940E020688069C0F38000D8B120689D
:1005D0004069C0F3C01068B120684068C0F3802053
:1005E00040B120684069C0F3800018B9204600F08F
:1005F000C7F928E020684069C0F3800018B320469E
:1006000000F0D4F91FE020688069C0F38000D0B901
:1006100020684069C0F3801068B120684068C0F36A
:10062000802040B120684069C0F3800018B920469E
:1006300000F063F907E020684069C0F3800010B162
:10064000204600F070F910BD0168496921F480610D
:10065000026851610168096821F4806102681160D3
:100660000168496821F4E06102685160417E102907
:1006700007D10168096821F4007101F50071026871
:100680001160704708B501688969C1F380010029CC
:1006900044D10189012919D10168096821F48061D7
:1006A0000268116000BF0021009101684969009152
:1006B00001688969009100BF00BF0168096821F4E1
:1006C000007101F500710268116032E001890229B0
:1006D00019D10168096821F4006101F5006102681F
:1006E000116000BF00210091016849690091016813
:1006F0008969009100BF00BF0168096821F4806129
:100700000268116015E000BF00210091016849698D
:10071000009101688969009100BF0AE000BF0021D3
:10072000009101684969009101688969009100BFE1
:1007300000BF08BD0189022906D10168496821F47A
:100740008061026851607047418999B10168096907
:10075000426811704168491C41604189491E4181CC
:100760004189032905D10168496821F48061026843
:100770005160E8E70168096821F4007101F5007132
:100780000268116000BFDEE74189032928D10168B2
:10079000096821F480610268116001680969426892
:1007A00011704168491C41604189491E41810168BD
:1007B000096821F4007101F5007102681160016897
:1007C0000969426811704168491C41604189491EAC
:1007D00041810168496821F44071026851607047A5
:1007E0000189022922D10168096821F4007101F50B
:1007F00000710268116009E00168096942681170BE
:100800004168491C41604189491E41814189002953
:10081000F2D10168096821F4006102681160016881
:10082000496821F4407102685160D8E7016809689D
:1008300021F4007101F500710268116000BFCEE77C
:10084000027F5206110EC27E1AB9CAB203681A613B
:1008500007E0C27E012A04D141F00101CAB2036857
:100860001A6170470021428A92B1C2681178026809
:100870001161C268521CC260428A521E4282428A80
:100880002AB90268526822F4806203685A6070478D
:100890000268126822F4007202F5007203681A609E
:1008A00000BFF4E70021428A52B1C26811780268A1
:1008B0001161C268521CC260428A521E4282704755
:1008C0000268526822F4407203685A600268126833
:1008D00022F4007202F5007203681A6000BFEEE7AE
:1008E00008B500BF002100910168496900910168C5
:1008F0008969009100BF00BF08BD418991B10168BD
:100900000969491C426811704168491C416041896C
:10091000491E4181418929B90168496821F48061F2
:10092000026851607047418951B101680969491CE9
:10093000426811704168491C41604189491E4181EA
:10094000704708B500BF0021009101684969009116
:10095000016809680091009921F4007100910099E3
:100960000268116000BF0168096821F480610268B3
:1009700011600168496821F4E0610268516008BDB6
:100980000021428A8AB1C268117802681161C26886
:10099000521CC260428A521E4282428A2AB90268AE
:1009A000526822F4806203685A6070470021428ACC
:1009B0004AB1C268117802681161C268521CC260F3
:1009C000428A521E42827047002100BF0EE0154A43
:1009D000D26822F40052134BDA601A46D26822F42D
:1009E000005202F50052DA604A1CD1B28142EEDBBD
:1009F0000D4A12785AB90B4AD26822F4005202F515
:100A00000052084BDA600122074B1A7008E0054AD1
:100A1000D26822F40052034BDA600022024B1A70B3
:100A200070470000001001409000002010B50448FD
:100A30000068401C02490860FFF700FC10BD000080
:100A4000100000204FF0E0218861486107214FF03D
:100A5000E0221161704710B54FF08040007B00F03C
:100A6000010080B14FF08040007C00F0010050B1E7
:100A70004FF08040006920F001004FF08041086194
:100A80001C2000F0C9FF10BD10B50B48007800F025
:100A9000010080B10848001D007800F0010050B14D
:100AA0000548001D006820F001000349091D086089
:100AB0001D2000F0B1FF10BD0C04004032488069D9
:100AC00020F00400001D304988610846806920F04C
:100AD0000800083088610846806920F01000103056
:100AE00088612A48006820F0405000F140502749B2
:100AF00008600846006820F04040086023480C3039
:100B0000006820F0800021490C3108601F4800680F
:100B100020F0407000F140701C49086008460068F1
:100B200020F04060086019480C30006820F0400058
:100B300016490C3108601648006820F00300C01CFC
:100B4000134908600846006820F00C00086010484F
:100B50000C30006820F001000D490C3108600D4890
:100B6000406820F4401000F540100A4948600846EB
:100B7000406820F4400048600846C06820F40050F7
:100B800000F50050C86070470010024000080140A6
:100B9000000C01400010014010B52B48806920F086
:100BA0000400001D284988610846806920F48040BF
:100BB00000F5804088612548006820F0C000803042
:100BC000224908600846006820F0300020300860A4
:100BD0000846006820F4406000F5006008600846A0
:100BE000006820F4407008601948006820F00F0089
:100BF000401C1749086027211548006861F30F1051
:100C000013490860081D006820F008000830091D1D
:100C100008600846006820F00400001D08600846CF
:100C2000006820F02000203008600846006820F4AA
:100C3000005000F500500860252000F0FBFE012167
:100C4000252000F009FF10BD0010024004080140FB
:100C50000838014011480078C0F34010E8B10F484F
:100C60000C380078C0F34010B8B10D4800781E2849
:100C70000BDA0A480838017809480278401C815488
:100C8000401E0078401C0649087004480C38006873
:100C900020F0200001490C39086070470C380140F1
:100CA0004C01002011480078C0F34010E8B10F4813
:100CB0000C380078C0F34010B8B10D4800781E28F9
:100CC0000BDA0A480838017809480278401C815438
:100CD000401E0078401C0649087004480C38006823
:100CE00020F0200001490C39086070470C44004096
:100CF0006B0100200146002002E0421CD0B2491CDA
:100D00000A78002AF9D1704730B503460C46002115
:100D100003F0800030B103F00F03124D05EB031018
:100D200004801CE003F00F033E2A07D991114FF60F
:100D3000FF7000EA812141F4004105E0501C4108A8
:100D40004FF6FF7000EA8121042000EBC300054D3F
:100D500025F81040062000EBC30025F810100020F5
:100D600030BD00000060004030B5394C04EB80031A
:100D7000D3F8003C61F34A23254605EB8004C4F810
:100D8000003C2C4604EB8003D3F8003C62F30303E1
:100D900005EB8004C4F8003C2C4604EB8003D3F838
:100DA000003CC3F3801353B104EB8003D3F8003C41
:100DB00023F04003403305EB8004C4F8003C244C8E
:100DC00004EB8003D3F8003CC3F3803363B104EB3E
:100DD0008003D3F8003C23F4804303F58043254689
:100DE00005EB8004C4F8003C00BF0023184D05EB60
:100DF0008004D4F8004CC4F3013484F003042303CA
:100E000005EB8004D4F8004C48F68F752C40234342
:100E10000F4D05EB8004C4F8003C00BF00BF002369
:100E200005EB8004D4F8004CC4F3011484F00204F0
:100E3000230105EB8004D4F8004C48F68F752C4054
:100E40002343034D05EB8004C4F8003C00BF30BDD4
:100E5000005000402DE9F04104460D46174600269B
:100E6000FCB12046FFF746FF022101EB400038802D
:100E70003A783046711CCEB22A5403223046711C97
:100E8000CEB22A540AE014F8012B3046711CCEB2BF
:100E90002A5400223046711CCEB22A5420780028F1
:100EA000F1D1BDE8F081000010B507480068C0F33B
:100EB000802008B100F080FC03480068C0F3C03017
:100EC00008B100F0BBFC10BD445C004010B52548E3
:100ED000C06920F4000000F500002249C861142018
:100EE00000280DDB00BF00BF00F01F020121914070
:100EF0004209920002F1E022C2F8001100BF00BFD7
:100F000000BF14200121002804DB0A07130E164A33
:100F1000135406E00A07140E144A00F00F031B1FB7
:100F2000D45400BF4FF43F401149086008460068A0
:100F300020F00100401C08600846006820F0010015
:100F40000860081D006820F48060091D086000200A
:100F500008600749103108604FF43F4004490860B9
:100F600010BD00000010024000E400E018ED00E0B9
:100F7000405C004070B505460C468248007800F0A1
:100F80000100002873D18048066880480088402806
:100F900032DD4020022101EBC4017D4A22F811001C
:100FA0007A4800884038794908807748006840309E
:100FB0007549086000BF002055F82410C1F30131C5
:100FC00081F00201080355F8241048F68F72114091
:100FD000084345F8240000BF00BF002055F8241046
:100FE000C1F3011181F00301080155F824101140EB
:100FF000084345F8240073E064480088022101EBAF
:10100000C401634A22F811000020604908805E494B
:1010100008605C48007800F04000402828D159481A
:10102000007820F040005749087000BF002055F8B4
:101030002410C1F3013181F00201080355F8241096
:1010400048F68F721140084345F8240000BF00BFE6
:10105000002055F82410C1F3011181F003010801AB
:1010600055F824101140084345F8240038E047E0C3
:101070004448007840F003004249087000BF002057
:1010800055F82410C1F3013181F00301080355F82C
:10109000241048F68F721140084345F8240000BF21
:1010A00000BF002055F82410C1F3011181F00201A6
:1010B000080155F824101140084345F8240000BFEA
:1010C00000BF002055F82410C1F3803181F00101E8
:1010D000880355F824101140084345F8240000BF48
:1010E000022000EBC4002A4A32F81000C0F30903C2
:1010F00002EB041001883246284600F06DFC3FE008
:1011000000BF002055F82410C1F3013181F0030124
:10111000080355F8241048F68F721140084345F82B
:10112000240000BF00BF002055F82410C1F30111B6
:1011300081F00201080155F824101140084345F8D8
:10114000240000BF00BF002055F82410C1F38031F7
:1011500081F00101880355F824101140084345F837
:10116000240000BF0B48007850B10848008838B907
:101170000848007840F08000E864002005490870C5
:1011800070BD00002A000020200000202800002060
:1011900000600040250000202DE9F04105460C4686
:1011A0002D48007800F0010088BB2B48007840F003
:1011B000010029490870062000EBC400274A32F8D4
:1011C0001000C0F30903042000EBC40032F8101033
:1011D000234A284600F0DCFACCB92248006840785F
:1011E000202814D11F480068C088082801D9082089
:1011F00002E01C480068C0880746002605E0184841
:10120000805D19498855701CC6B2BE42F7DB00BF2D
:10121000002055F82410C1F3013181F003010803C7
:1012200055F8241048F68F721140084345F8240001
:1012300000BF00BF002055F82410C1F3011181F058
:101240000201080155F824101140084345F8240014
:1012500000BFBDE8F08100002A00002000600040CF
:101260008C0100201C000020880000202DE9F8439C
:1012700004460E4600200090002500278046FE49C7
:101280000870FE48066000684088050AFB48006850
:101290008778FA4800680078C0F34110C0B3F74877
:1012A00000680078C0F34110012823D1F34800689A
:1012B000407820280DD0212804D0222810D02328BF
:1012C00010D10EE00720EE490880EE48EE49086094
:1012D0000FE0E948007840F00200E749087008E0B4
:1012E00007E006E0E448007840F08000E24908703A
:1012F00000BF7DE1E14800680078C0F3411002289A
:10130000F7D0DD48007840F08000DB4908706FE1DD
:10131000FFE7DA48006840780C2874D2DFE800F074
:10132000F0BA73EF739506EEA6B1EDEC012D06D180
:101330001220D3490880D548D349086084E0022DA3
:101340000FD1CE480068C088432803DACB48006834
:10135000C08800E04320CA490880CD48CA490860D7
:1013600072E0062D0BD10020C5490880C6490860EF
:10137000C148007840F08000BF49087064E0032D48
:101380005CD1062F4DD2DFE807F0030A1724313F66
:101390000420BB490880BF48BB4908604DE06A464D
:1013A000BD49BEA0FFF756FDBDF80000B449088056
:1013B000B948B549086040E06A46B749BCA0FFF7A4
:1013C00049FDBDF80000AE490880B348AE49086049
:1013D00033E06A46B049BAA0FFF73CFDBDF8000013
:1013E000A7490880AC48A849086026E06A46AA498F
:1013F000B7A0FFF72FFDBDF80000A1490880A6485F
:10140000A149086019E0F1E06A46A349B3A0FFF7DB
:1014100021FDBDF800009A4908809F489A4908605C
:101420000BE00020964908809749086092480078B0
:1014300040F080009049087000BF05E08E480078B9
:1014400040F080008C490870D1E08B48007840F073
:10145000010089490870894800688078A3490870AC
:1014600000208749088088490860C0E0A0480078CB
:10147000A049087008468449086001208049088016
:10148000B5E07E48006880789949087001209A4943
:101490000870ACE079480068007800F01F00B8B927
:1014A00076480068807801280BD17948C07900F02F
:1014B000200070BB7048007840F080006E490870D2
:1014C00039E06D48007840F080006B49087032E0E8
:1014D0006A480068007800F01F00022825D167489C
:1014E00000680079812812D00BDC01280ED0022878
:1014F0000ED0032811D10EE06BE069E075E01BE02F
:1015000068E0822806D0832807D105E00CE00BE0D4
:101510000AE010E008E007E006E05748007840F0F5
:1015200080005549087000BF05E05348007840F03E
:101530008000514908705AE050480068007800F077
:101540001F00B8B94D480068807801280BD1504879
:10155000C07900F0200098BB4748007840F0800038
:101560004549087033E04448007840F08000424923
:1015700008702CE041480068007800F01F00022845
:101580001FD13E480068007981280DD006DC012873
:1015900009D0022809D003280BD108E0822805D001
:1015A000832806D104E00BE00AE009E008E007E048
:1015B00006E03148007840F080002F49087000BFF5
:1015C00005E02D48007840F080002B4908700EE0BF
:1015D0000DE00CE0002047490870487002202849BF
:1015E000088044482849086001E000E000BF00BFCF
:1015F0002148007800F08000802823D11E48007820
:1016000020F080001C49087000BF00202168C1F351
:10161000011181F001010801216848F68F72114023
:101620000843206000BF00BF00202168C1F30131E2
:1016300081F001010803216811400843206000BFC8
:10164000BDE8F8830C48007800F00200022879D049
:101650000D48D0F800800848007800F0010048B933
:101660000748008840285ADD4020244988800448E3
:10167000008845E066E000002A0000201C000020F1
:101680002800002088000020200000202C000020DE
:101690003E00002084000020D801002053544D69F2
:1016A00063726F656C656374726F6E69637300005B
:1016B0004E677579656E206465702074726169008B
:1016C00030303030303030303030314100000000C8
:1016D00043444320436F6E666967000043444320E0
:1016E000496E746572666163650000002500002024
:1016F00026000020CC0100202B00002000600040CC
:1017000040381F4908801F48006840301D49086064
:101710001D48007840F040001B49087008E0184858
:1017200000881A49888000201549088015490860FA
:1017300016488088C0F309031448018842462046B1
:1017400000F04AF900BF00202168C1F3011181F0C7
:1017500003010801216848F68F7211400843206098
:1017600000BF00BF00202168C1F3801181F001019A
:101770008801216811400843206000BF00BF5FE777
:1017800028000020200000202A00002000600040E7
:10179000F0B500245F1C7E10002500EB410707F523
:1017A000806500BF04E02F8817802D1D921C641CEB
:1017B000B442F8D3F0BD000000B51F48006820F423
:1017C00080601D490860002201211046FFF7CCFA15
:1017D000012200211046FFF7C7FA0222032110461A
:1017E000FFF7C2FA402218210020FFF78DFA4022AD
:1017F00058218020FFF788FA4022C0218120FFF77E
:1018000083FA082251018220FFF77EFA40224FF42A
:1018100088710120FFF778FA07480830006820F047
:10182000800080300449083108600846006820F0D4
:101830007F00086000BD0000445C004070B50024DB
:101840000025B6E05F48006800F00F005E490870B0
:101850000846007800286FD15A480068C0F300108D
:1018600000284ED008460078584901EB8000D0F897
:10187000000CC0F3C020F8B15548047B058923460D
:10188000544A29464F484438FFF782FF4E480078B3
:101890004E4901EB8000D0F8000C20F400404A498A
:1018A00009784A4A02EB8101C1F8000C49494548D0
:1018B0004438FFF7DBFC7CE043480078434901EB08
:1018C0008000D0F8000CC0F3C030002871D0052093
:1018D000FFF77AF83C4800783C4901EB8000D0F8EB
:1018E000000C20F4004038490978384A02EB8101A5
:1018F000C1F8000C3448017832484438FFF74CFCFA
:1019000057E031480078314901EB8000D0F8000CF5
:10191000C0F3C01000284CD02A484438006820F09A
:101920008000284944390860274801782548443810
:10193000FFF720FB3DE0FFE722480068C0F30010FE
:10194000F8B121480078214901EB8000D0F8000C63
:10195000C0F3C03068B31C48007801EB8000D0F8B9
:10196000000C20F4004018490978184A02EB810164
:10197000C1F8000C1448017812484438FFF70CFCF9
:1019800017E011480078114901EB8000D0F8000CF5
:10199000C0F3C01068B10B484438006820F08000E4
:1019A0000849443908600848017806484438FFF778
:1019B000E1FA04480068C0F3C03000287FF442AF69
:1019C00070BD0000445C0040240000200050004036
:1019D000006000408C0100202DE9F041002403F15B
:1019E00001084FEA680C002500EB410808F5806506
:1019F0000AB9BDE8F081002409E01778521C92F87A
:101A0000008047EA08262E802D1D521C641C644568
:101A1000F3D300BFEDE70000002807DB00F01F0252
:101A200001219140024A430942F823107047000007
:101A300080E200E000280DDB00BF00BF00F01F02C5
:101A4000012191404209920002F1E022C2F8001106
:101A500000BF00BF7047000010B5002804DB0A0774
:101A6000130E054A135406E00A07140E034A00F049
:101A70000F031B1FD45410BD00E400E018ED00E07C
:101A800000B50146FEF7F6FC024600BFFEF7F2FC89
:101A9000801A8842FAD300BD10B500F039F8054825
:101AA000FEF7D0FFFFF778F8FFF708F8FFF70EFA18
:101AB00010BD00003F19010010B541F28830FFF75A
:101AC000DFFF0248FEF762FC10BD000000000020AE
:101AD000FFF7E2FF01E0FFF7EFFFFCE710B5044678
:101AE00004EB4402084B03EB8202918804EB4402AE
:101AF00053F82200FEF7B4FC04EB4401034A02EB66
:101B0000C101C978484010BDD41B0008DC0000208A
:101B10002E48006820F4803000F580302B490860A2
:101B200000BF2A480068C0F340400028F9D00220D6
:101B3000274908602548406820F400302349486060
:101B40000846406820F4803000F580304860084640
:101B5000406820F4701000F5E010486008464068C6
:101B600020F0F00048600846406820F4E06000F58E
:101B7000806048600846406820F4605000F52050BE
:101B800048600846006820F0807000F180700860AE
:101B900000BF0E480068C0F340600028F9D00B4831
:101BA000406820F00300801C0849486000BF0748D7
:101BB0004068C0F381000228F9D10448806920F010
:101BC0000100401C0149886170470000001002407C
:101BD000002002400008014002004800010000000F
:101BE0000008014004004800010000000008014016
:101BF00008004800010000000008014010004800F3
:101C000001000000241C00080000002094000000D7
:101C100028010008B81C000894000020340B0000C4
:101C2000440100084E677579656E20646570207404
:101C3000726169000000000002480000000000001E
:101C40000000000000000000000000000000000094
:101C50001201000202020040830440570002010208
:101C6000030109024300020100C03209040000011F
:101C700002020100052400100105240100010424D2
:101C8000020205240600010705820308001009046A
:101C90000100020A000000070501024000000705DC
:101CA000810240000000000004030904000000005D
:081CB00000000000000000002C
:04000005080000ED02
:00000001FF
