:020000040800F2
:1000000090060020890100088D0100088F0100087A
:10001000910100089301000895010008000000000C
:100020000000000000000000000000009701000830
:1000300099010008000000009B0100086903000806
:100040009F0100089F0100089F0100089F01000810
:100050009F0100089F0100089F0100081503000888
:100060009F0100089F0100089F0100089F010008F0
:100070009F0100089F0100089F0100089F010008E0
:100080009F0100089F0100089F0100089F010008D0
:100090009F0100089F0100089F0100089F010008C0
:1000A0009F0100089F0100089F0100089F010008B0
:1000B0009F0100089F0100089F0100089F010008A0
:1000C0009F0100089F0100089F0100089F01000890
:1000D0009F0100089F0100089F0100089F01000880
:1000E0009F0100089F0100089F01000800F002F82E
:1000F00000F03AF80AA090E8000C82448344AAF188
:100100000107DA4501D100F02FF8AFF2090EBAE885
:100110000F0013F0010F18BFFB1A43F0010318473B
:10012000B4030000D4030000103A24BF78C878C19B
:10013000FAD8520724BF30C830C144BF04680C60ED
:10014000704700000023002400250026103A28BF35
:1001500078C1FBD8520728BF30C148BF0B60704739
:100160001FB51FBD10B510BD00F02DF81146FFF7EB
:10017000F7FF00F0A8F900F04BF803B4FFF7F2FF27
:1001800003BC00F053F8000008480047FEE7FEE714
:10019000FEE7FEE7FEE7FEE7FEE7FEE7FEE7FEE737
:1001A00003480449044A054B70470000ED0000086D
:1001B0009000002090060020900200209002002075
:1001C000704770477047754600F02CF8AE46050042
:1001D0006946534620F00700854618B020B5FFF762
:1001E000DFFFBDE820404FF000064FF000074FF062
:1001F00000084FF0000B21F00701AC46ACE8C00945
:10020000ACE8C009ACE8C009ACE8C0098D4670474D
:1002100010B50446AFF300802046BDE81040FFF75C
:10022000ACBF0000004870472C0000200149182096
:10023000ABBEFEE726000200704700003348407E58
:10024000401C324948760846417E027E001D50F827
:100250002200C0F30740814205D12D48006820F0FC
:1002600020002B4908602948417E027E001D30F89D
:100270002200C0F30720814205D12548006820F004
:100280004000234908602148417E027E001D10F88D
:100290002200814205D11E48006820F010001C4950
:1002A00008601A48407E19490978884219D11848CF
:1002B000006820F0100010301549086008460068FA
:1002C00020F02000203008600846006820F0400040
:1002D0004030086000200D4948760846006A401CFE
:1002E00008620A48006A0949C96988420CD100209D
:1002F000064908620846007E401C052190FBF1F289
:1003000001FB120001490876704700000000002040
:100310000C08014011480078C0F34000E8B11048D3
:1003200000784009C1430E48006861F345100C494C
:1003300008600A48006820F00200801C0749086035
:100340000720002807DB00F01F0201219140054A29
:10035000430942F8231000BF00BF70471404014056
:100360000C08014080E200E000B5FFF767FF00BD28
:1003700010B54E48806920F00400001D4B4988618B
:100380004B48006820F0407000F140704849086018
:100390000846006820F04060086045480C3000685E
:1003A00020F0400042490C3108604148006820F4C8
:1003B000401000F540103E4908600846006820F4EF
:1003C000400008603A480C30006820F020003849AE
:1003D0000C3108603648006820F4403000F54030A9
:1003E000334908600846006820F44020086030481F
:1003F0000C30006820F010002D490C3108602C48AA
:10040000006820F030002A4908600846006820F0A3
:10041000C0008030086026480C30006820F00200E0
:10042000801C23490C31086063204FF0E021886173
:100430004861072008611F48806820F0F0001D49CE
:1004400088601D48006820F00200801C1A4908607E
:1004500019480C30006820F00200801C16490C314D
:100460000860072000280DDB00BF00BF00F01F025E
:10047000012191404209920002F1E022C2F80011EC
:1004800000BF00BF00BF07200121002804DB0A07CE
:10049000130E0A4A135406E00A07140E084A00F025
:1004A0000F031B1FD45400BF62B610BD00100240E2
:1004B00000080140000001400004014000E400E0A9
:1004C00018ED00E07047FFF753FF01E0FFF7FAFF78
:1004D000FCE70000F4040008000000202C000000ED
:1004E00028010008200500082C00002064060000F8
:1004F00044010008FF000000FFFF3300FF66CC004E
:1005000000EE000000FF00008FF6FF0000FF00007B
:10051000C800000000000000000000000000000013
:04000005080000ED02
:00000001FF
