:020000040800F2
:10000000E8110020C9010008CD010008CF01000857
:10001000D1010008D3010008D5010008000000004C
:10002000000000000000000000000000D7010008F0
:10003000D901000800000000DB01000809100008D9
:10004000DF010008DF010008DF010008DF01000810
:10005000DF010008DF010008DF010008DF01000800
:10006000DF010008DF010008DF010008DF010008F0
:10007000DF010008DF010008DF010008DF010008E0
:10008000DF010008DF010008DF010008DF010008D0
:1000900005130008DF010008DF010008DF01000888
:1000A000DF010008DF010008DF010008DF010008B0
:1000B0003310000865100008DF010008DF010008A8
:1000C000DF010008DF010008DF010008DF01000890
:1000D000DF010008C910000819110008DF0100083D
:1000E000DF010008DF010008DF01000800F002F86E
:1000F00000F05AF80AA090E8000C82448344AAF168
:100100000107DA4501D100F04FF8AFF2090EBAE865
:100110000F0013F0010F18BFFB1A43F0010318473B
:10012000E8320000083300000A444FF0000C10F8D9
:10013000013B13F0070408BF10F8014B1D1108BF65
:1001400010F8015B641E05D010F8016B641E01F805
:10015000016BF9D113F0080F1EBF10F8014BAD1C55
:100160000C1B09D16D1E58BF01F801CBFAD505E073
:1001700014F8016B01F8016B6D1EF9D59142D6D3CD
:10018000704700000023002400250026103A28BFF5
:1001900078C1FBD8520728BF30C148BF0B607047F9
:1001A0001FB51FBD10B510BD00F07EF81146FFF75A
:1001B000F7FF01F07EFF00F09CF803B4FFF7F2FFB9
:1001C00003BC00F0A3F8000008480047FEE7FEE784
:1001D000FEE7FEE7FEE7FEE7FEE7FEE7FEE7FEE7F7
:1001E00003480449044A054B70470000ED0000082D
:1001F000E80B0020E8110020E80D0020E80D0020A9
:1002000002F0FF0343EA032242EA024200F005B88B
:100210007047704770474FF000020429C0F0128009
:1002200010F0030C00F01B80CCF1040CBCF1020FA9
:1002300018BF00F8012BA8BF20F8022BA1EB0C017E
:1002400000F00DB85FEAC17C24BF00F8012B00F874
:10025000012B48BF00F8012B70474FF0000200B59A
:10026000134694469646203922BFA0E80C50A0E8D9
:100270000C50B1F12001BFF4F7AF090728BFA0E887
:100280000C5048BF0CC05DF804EB890028BF40F853
:10029000042B08BF704748BF20F8022B11F0804F95
:1002A00018BF00F8012B7047754600F02BF8AE46DA
:1002B00005006946534620F00700854618B020B572
:1002C000FFF78EFFBDE820404FF000064FF000071B
:1002D0004FF000084FF0000B21F00701AC46ACE8EE
:1002E000C009ACE8C009ACE8C009ACE8C0098D465B
:1002F000704710B50446AFF300802046BDE81040BB
:10030000FFF75BBF00487047840B002001491820AD
:10031000ABBEFEE726000200704700002DE9F04169
:1003200000260027002499E000260027204601F03F
:10033000C7FE04EB44014C4A02EBC1010D3104EB52
:100340004402494B13F83220885400250AE004EB9C
:100350004400454901EBC0000D30405D3044C6B259
:10036000681CC5B2082DF2D304EB44003E4911F8D5
:100370003000401C04EB44013B4A02F8310004EB1E
:100380004400114611F83000082804D3002004EB83
:10039000440102F83100082E01D1022000E00120C2
:1003A000074604EB4400304901EBC000007BB84233
:1003B0001BD004EB440001EBC000077304EB4400C6
:1003C00001EBC000007B022807D1002004EB4401B0
:1003D000254A02EBC10148603EE0002004EB4401E5
:1003E000214A02EBC101887036E004EB44001E494B
:1003F00001EBC000007B022813D104EB440001EBA9
:10040000C0004068401C60B104EB440001EBC00038
:100410004068401C04EB4401134A02EBC1014860F0
:100420001AE004EB4400104901EBC000007B0128F6
:1004300012D104EB440001EBC0008078FF280BD2FE
:1004400004EB440001EBC0008078401C04EB440145
:10045000054A02EBC1018870601CC4B2042CFFF491
:1004600063AFBDE8F0810000F8020020F0B5002382
:100470000024002200260025564FB84209D1564FCD
:10048000BF6927F004073F1DDFF84CC1CCF8187096
:100490004DE0524FB84209D14F4FBF6927F00807CE
:1004A0000837DFF834C1CCF8187040E04C4FB84240
:1004B00009D1494FBF6927F010071037DFF818C17D
:1004C000CCF8187033E0474FB84209D1424FBF69AA
:1004D00027F020072037DFF800C1CCF8187026E09D
:1004E000414FB84209D13C4FBF6927F04007403720
:1004F000DFF8E4C0CCF8187019E03C4FB84209D1DD
:10050000354FBF6927F080078037DFF8CCC0CCF8C3
:1005100018700CE0364FB84209D12F4FBF6927F44D
:10052000807707F58077DFF8B0C0CCF81870CF7807
:1005300007F00F05CF7807F010070FB18F783D4314
:100540000F78BFB10268002311E001279F40FCB281
:100550000F882740A74208D19F063C0E0F2707FAB5
:1005600004F6B24305FA04F73A435F1CFBB2082BCA
:10057000EBDB02600F8807F47F47E7B14268002396
:1005800016E003F108074FF0010C0CFA07FC0CF021
:10059000FF040F882740A74208D19F063C0E0F2773
:1005A00007FA04F6B24305FA04F73A435F1CFBB2BC
:1005B000082BE6DB4260C268CF78282F02D10F8873
:1005C000BA4304E0CF78482F01D10F883A43C26084
:1005D000F0BD00000008014000100240000C014086
:1005E000001001400014014000180140001C0140AF
:1005F00000200140024690680840884201D1012055
:1006000070470020FCE700000148006870470000C8
:1006100000000020F0B51C46002300252C4EB1FB45
:10062000F6F3466863F3050646602A4EB24201D8E7
:100630005E1C07E04FF496765E434FF47A77B6FB84
:10064000F7F6761C0662234EB2422DD9C66926F40F
:10065000004606F50046C661C66964F38E36C6617B
:10066000B4F5804F0DD102EB4206B1FBF6F6C6F3AE
:100670000B060EB9012615E002EB4206B1FBF6F6B9
:1006800010E002EBC20606EB0216B1FBF6F6C6F36B
:100690000B060EB9012605E002EBC20606EB0216B8
:1006A000B1FBF6F6354610E0C66926F40046C66191
:1006B0005600B1FBF6F6C6F30B06042E01D2042653
:1006C00002E05600B1FBF6F63546AEB2C661F0BDAB
:1006D00040420F00A086010038B504464B4920680F
:1006E000884223D11C208DF8030003208DF80200DE
:1006F000C020ADF8000069464548FFF7B7FE454801
:10070000C06920F4001000F500104249C8610021C2
:100710001F2001F095FC1F2001F080FC002120200B
:1007200001F08EFC202001F079FC26E03A49206897
:10073000884222D11C208DF8030003208DF802008E
:100740008002ADF8000069463148FFF78FFE31485E
:10075000C06920F4800000F580002E49C8610021A6
:10076000212001F06DFC212001F058FC0021222005
:1007700001F066FC222001F051FC2068006820F0A6
:1007800001002168086000BF2068006820F4004074
:1007900000F50040216808602068006820F40040EF
:1007A0002168086000BF00231C4A1D492068FFF72C
:1007B00031FFA17D2068006861F3C71021680860DF
:1007C000E17D2068006861F3861021680860A17EE1
:1007D0002068806861F3CF3021688860E08B4FF437
:1007E000804141EA40002168886094F82010206828
:1007F000C06861F347002168C8602068006820F085
:100800000100401C2168086038BD00000054004011
:10081000000C01400010024000580040A08601007A
:10082000005125022DE9F84F0446884615461E461C
:10083000DDF82890FFF7E8FE82464FEA48604FEA6D
:10084000106B0027206800F0010020B9206820F01C
:100850000100401C206052464946204600F071F8D5
:10086000012802D10220BDE8F88F206820F48070B2
:1008700000F580702060012352464946204600F072
:1008800076F8012807D1206820F4007000F5007088
:1008900020600420E7E70BF0FF00206102235246AE
:1008A0004946204600F063F8012807D1206820F46B
:1008B000007000F5007020600520D4E700BF002024
:1008C000009060690090A069009000BF00BF1EE02A
:1008D000802352464946204600F049F8012807D1B6
:1008E000206820F4007000F5007020600620BAE750
:1008F0002F78701E86B26D1C27616069C0F380007E
:1009000028B126B12F786D1C701E86B22761002E8B
:10091000DED1042352464946204600F028F801283B
:1009200007D1206820F4007000F5007020600820D6
:1009300099E7206820F4007000F500702060002026
:1009400091E770B505460C46164609E0601C38B1C3
:10095000FFF75AFE801BA04200D80CB9012070BDE1
:10096000A869C0F340000028F0D100BFF7E72DE9E7
:10097000F04105460E4617461C4610E06869C0F374
:10098000802010B10120BDE8F081701C38B1FFF764
:100990003BFEC01BB04200D80EB90120F3E7C4F300
:1009A0000740012809D1A869A1B20840A1B2884234
:1009B00001D101200AE0002008E06869A1B20840E6
:1009C000A1B2884201D1012000E000200028D5D04A
:1009D0000020D8E70149887070470000040000201B
:1009E00010B5002000F04AF800F0EAF910BD000050
:1009F000F0B503461446802B01DC402900DDF0BD34
:100A0000FF2C1BD1CD1701EB5575ED101A4E06EBDF
:100A1000C515ED5C0A46CE1701EB5676F610A1EB34
:100A2000C6070126BE4035430846CE1701EB567671
:100A3000F610114F07EBC616F5541AE0CD1701EB6F
:100A40005575ED100C4E06EBC515ED5C0A46CE173C
:100A500001EB5676F610A1EBC6070126BE40B54362
:100A60000846CE1701EB5676F610034F07EBC61675
:100A7000F55400BFC3E700006803002010B504462A
:100A800022464FF480610248FFF7BAFB10BD000018
:100A9000680300201CB50446B0480460642001F0DF
:100AA000E3FA00BFAEA0006801901420022301AA5F
:100AB0003C210090A9480068FFF7B4FE00BF00BFCA
:100AC000A8A0006801901420022301AA3C210090F4
:100AD000A2480068FFF7A6FE00BF00BFA2A0006802
:100AE00001901420022301AA3C2100909B48006839
:100AF000FFF798FE00BF00BF9CA000680190142083
:100B0000022301AA3C21009094480068FFF78AFE66
:100B100000BF00BF002001901420022301AA3C2145
:100B200000908E480068FFF77DFE00BF00BF90A0D8
:100B3000006801901420022301AA3C2100908748FC
:100B40000068FFF76FFE00BF00BF8AA00068019039
:100B50001420022301AA3C21009080480068FFF77E
:100B600061FE00BF00BF84A0006801901420022332
:100B700001AA3C21009079480068FFF753FE00BFAE
:100B800000BF7EA0006801901420022301AA3C212E
:100B9000009072480068FFF745FE00BF00BF78A0D4
:100BA000006801901420022301AA3C2100906B48A8
:100BB0000068FFF737FE00BF00BF72A00068019019
:100BC0001420022301AA3C21009064480068FFF72A
:100BD00029FE00BF00BF6CA0006801901420022312
:100BE00001AA3C2100905D480068FFF71BFE00BF92
:100BF00000BF002001901420022301AA3C21009094
:100C000056480068FFF70EFE00BF00BF5EA00068F8
:100C100001901420022301AA3C2100904F48006853
:100C2000FFF700FE00BF00BF58A00068019014202D
:100C3000022301AA3C21009048480068FFF7F2FD1A
:100C400000BF00BF52A0006801901420022301AA37
:100C50003C21009041480068FFF7E4FD00BF00BF61
:100C60004CA0006801901420022301AA3C210090AE
:100C70003A480068FFF7D6FD00BF00BF46A00068F5
:100C800001901420022301AA3C21009033480068FF
:100C9000FFF7C8FD00BF00BF40A00068019014200E
:100CA000022301AA3C2100902C480068FFF7BAFDFE
:100CB00000BF00BF3AA0006801901420022301AADF
:100CC0003C21009025480068FFF7ACFD00BF00BF45
:100CD00034A0006801901420022301AA3C21009056
:100CE0001E480068FFF79EFD00BF00BF25A00068FA
:100CF00001901420022301AA3C21009017480068AB
:100D0000FFF790FD00BF00BF27A0006801901420EE
:100D1000022301AA3C21009010480068FFF782FDE1
:100D200000BF00BF21A0006801901420022301AA87
:100D30003C21009009480068FFF774FD00BF00BF28
:100D40001BA0006801901420022301AA3C210090FE
:100D500002480068FFF766FD00BF1CBD08000020C8
:100D600000AE000000A80000003F000000D300001B
:100D70000040000000A1000000C8000000DA0000F0
:100D800000120000002000000010000000810000A0
:100D9000007F000000A4000000A6000000D50000B5
:100DA0000080000000DB0000008D00000014000047
:100DB00000AF0000014A107051707047040000201D
:100DC0007CB5002448E000BF0020019004F1B00091
:100DD000C0B28DF805001420022301AA3C21009026
:100DE0001F480068FFF71EFD00BF00BF00200190F4
:100DF0001420022301AA3C21009019480068FFF743
:100E000011FD00BF00BF17A000680190142002234D
:100E100001AA3C21009012480068FFF703FD00BFC3
:100E2000002515E000BF10A0006801900F4800EBFE
:100E3000C410405D8DF805001420022301AA3C2156
:100E4000009007480068FFF7EDFC00BF681CC5B2C2
:100E5000802DE7DB601CC4B2082CB4DB7CBD000035
:100E6000080000200010000040000000680300207F
:100E70002DE9FF4781B081460D9F3D4840789DF8A0
:100E800009100844402803DD002005B0BDE8F087C4
:100E9000374800789DF808100844802804DD34485D
:100EA000807808B90020F0E7314800789DF80810F4
:100EB000084480280DDD2E488078012809D10020C3
:100EC0002B490870084640789DF8091008442849C5
:100ED00048706946484601F04EF88246504601F097
:100EE0007DF80646002430E09DF8091006FB01411C
:100EF000039830F81180002521E008FA05F000F48D
:100F0000004058B11A4A52782244D1B2184A127895
:100F10002A44D0B23A46FFF76BFD0EE00FB9012329
:100F200000E000231A46124B5B782344D9B2104BE1
:100F30001B782B44D8B2FFF75BFD681CC5B29DF847
:100F40000800A842D9DC601CC4B29DF80900A04288
:100F5000CADC07480178049810B10498805D01E06C
:100F60009DF808000844024908709DF800008CE7CD
:100F7000040000207FB581B00446099E00250BE0E7
:100F80000096204602A90EC9FFF772FF054615B963
:100F9000207805B070BD2C4420780028F0D120784E
:100FA000F7E70000002100BF0EE0154AD26822F4E6
:100FB0000052134BDA601A46D26822F4005202F54E
:100FC0000052DA604A1CD1B28142EEDB0D4A12783F
:100FD0005AB90B4AD26822F4005202F50052084B6B
:100FE000DA600122074B1A7008E0054AD26822F441
:100FF0000052034BDA600022024B1A707047000067
:1010000000100140D002002010B504480068401CC8
:1010100002490860FFF782F910BD000000000020BF
:101020004FF0E0218861486107214FF0E022116113
:10103000704710B54FF08040007B00F0010080B198
:101040004FF08040007C00F0010050B14FF0804034
:10105000006920F001004FF0804108611C2000F081
:10106000CFFF10BD10B50B48007800F0010080B133
:101070000848001D007800F0010050B10548001D2F
:10108000006820F001000349091D08601D2000F0E0
:10109000B7FF10BD0C04004008B5FFF7A1FC00210C
:1010A0000846FFF787FE0120FFF794FCFF20009021
:1010B00003480EC80348FFF75DFFFFF781FE08BD38
:1010C00088330008C433000811480078C0F340108A
:1010D000E8B10F480C380078C0F34010B8B10D48A3
:1010E00000781E280BDA0A48083801780948027887
:1010F000401C8154401E0078401C0649087004487A
:101100000C38006820F0200001490C390860704755
:101110000C3801406807002011480078C0F34010E7
:10112000E8B10F480C380078C0F34010B8B10D4852
:1011300000781E280BDA0A48083801780948027836
:10114000401C8154401E0078401C06490870044829
:101150000C38006820F0200001490C390860704705
:101160000C440040870700200146002002E0421C9A
:10117000D0B2491C0A78002AF9D1704730B503462D
:101180000C46002103F0800030B103F00F03124D34
:1011900005EB031004801CE003F00F033E2A07D97F
:1011A00091114FF6FF7000EA812141F4004105E002
:1011B000501C41084FF6FF7000EA8121042000EB2B
:1011C000C300054D25F81040062000EBC30025F8AC
:1011D0001010002030BD0000006000402DE9F047F5
:1011E00004460F4616469846DDF82090002506F086
:1011F0007F0500BF002054F8251048F68F7211407B
:1012000041EA472188B244F8250000BF00BF002012
:1012100054F82510114041EA050044F8250000BFAC
:1012200006F0800080281DD100BF002054F8251052
:10123000C1F3011181F00201080154F82510114099
:10124000084344F8250000BF00BF002054F82510D3
:10125000C1F38011880154F825101140084344F867
:1012600025001FE000BF002054F82510C1F3013114
:1012700081F00301080354F8251048F68F721140DD
:10128000084344F8250000BF00BF002054F8251093
:10129000C1F38031880354F825101140084344F805
:1012A000250000BF4A4641463046FFF767FFBDE8CC
:1012B000F0872DE9F04104460D4617460026FCB1A3
:1012C0002046FFF751FF022101EB400038803A78B9
:1012D0003046711CCEB22A5403223046711CCEB265
:1012E0002A540AE014F8012B3046711CCEB22A545D
:1012F00000223046711CCEB22A5420780028F1D149
:10130000BDE8F08110B51D480068C0F3802008B129
:1013100000F0ECFC19480068C0F3C03008B100F0E0
:101320000FFD16480068C0F3403028B1134800682C
:1013300020F400501149086010480068C0F34020B4
:1013400028B10E48006820F400700C4908600B4872
:101350000068C0F3002028B10848006820F48070BD
:101360000649086005480068C0F3C02028B103485A
:10137000006820F400600149086010BD445C004032
:1013800070B505460C468248007800F00100002840
:1013900073D18048066880480088402832DD4020AC
:1013A000022101EBC4017D4A22F811007A4800882D
:1013B00040387949088077480068403075490860AE
:1013C00000BF002055F82410C1F3013181F0020163
:1013D000080355F8241048F68F721140084345F869
:1013E000240000BF00BF002055F82410C1F30111F4
:1013F00081F00301080155F824101140084345F815
:10140000240073E064480088022101EBC401634AB0
:1014100022F811000020604908805E4908605C489D
:10142000007800F04000402828D15948007820F08A
:1014300040005749087000BF002055F82410C1F340
:10144000013181F00201080355F8241048F68F722B
:101450001140084345F8240000BF00BF002055F8A4
:101460002410C1F3011181F00301080155F8241083
:101470001140084345F8240038E047E0444800782C
:1014800040F003004249087000BF002055F82410C6
:10149000C1F3013181F00301080355F8241048F627
:1014A0008F721140084345F8240000BF00BF0020A0
:1014B00055F82410C1F3011181F00201080155F81B
:1014C00024101140084345F8240000BF00BF00204D
:1014D00055F82410C1F3803181F00101880355F8DB
:1014E00024101140084345F8240000BF022000EBFF
:1014F000C4002A4A32F81000C0F3090302EB0410BA
:1015000001883246284600F017FD40E000202049BF
:10151000087000BF00BF55F82410C1F3013181F0FD
:101520000301080355F8241048F68F721140084350
:1015300045F8240000BF00BF002055F82410C1F377
:10154000011181F00201080155F8241011400843EF
:1015500045F8240000BF00BF002055F82410C1F357
:101560008031880355F824101140084345F82400C1
:1015700000BF0B48007850B10748008838B90848C8
:10158000007840F08000E86400200549087070BDD4
:101590006A02002060020020680200200060004013
:1015A000650200202DE9F04105460C46002C7DD156
:1015B0005E48007800F00100002860D15B480078A8
:1015C00040F0010059490870062000EBC400584A59
:1015D00032F81000C0F30903042000EBC40032F815
:1015E0001010544A284600F06DFBB4B952484078B8
:1015F000202812D15048C088082801D9082001E0CD
:101600004D48C0880746002605E04A48805D4B49A2
:101610008855701CC6B2BE42F7DB00BF002055F8EB
:101620002410C1F3011181F00301080155F82410C1
:1016300048F68F721140084345F8240000BF00BFF0
:10164000002055F82410C1F3801181F001018801B8
:1016500055F824101140084345F8240000BF00BF8E
:10166000002055F82410C1F3013181F00201080374
:1016700055F824101140084345F8240054E0002098
:101680002A49087000BF00BF55F82410C1F301318A
:1016900081F00301080355F8241048F68F721140B9
:1016A000084345F8240000BF00BF00E01CE0002014
:1016B00055F82410C1F38031880355F824101140E7
:1016C000084345F8240000BF00BF002055F824104F
:1016D000C1F3011181F00201080155F824101140F5
:1016E000084345F824001FE01048007800F004008B
:1016F000042819D00D48007840F004000B49087008
:10170000062000EBC4000A4A32F81000C0F30903B7
:10171000042000EBC40032F81010064A284600F0FE
:10172000D1FA0520FFF73EFCBDE8F0816A020020F7
:1017300000600040A807002058020020C8020020D6
:101740002DE9FC4104460E460020019000250027AB
:101750008046FA490870FA48316801607168416052
:101760004088050AF64887780078C0F341100028C1
:101770003FD0F3480078C0F3411001282CD1F04845
:101780004078202817D0212804D022281AD02328D6
:101790001AD118E00720EB490880EB48EB490860B4
:1017A000EB488089C0F30903E9480189E94A2046EA
:1017B00000F088FA0FE0E148007840F00200DF49CD
:1017C000087008E007E006E0DC48007840F08000A0
:1017D000DA49087000BF87E1D9480078C0F34110AA
:1017E0000228F8D0D548007840F08000D34908702E
:1017F0007AE1D34840780C2872D2DFE800F0EFCFCE
:1018000071EE719306EDA3AEECEB012D06D1122023
:10181000CC490880D048CD49086082E0022D0DD126
:10182000C748C088432802DAC548C08800E0432082
:10183000C4490880C948C549086072E0062D0BD12B
:101840000020C0490880C1490860BC48007840F0C9
:101850008000BA49087064E0032D5CD1062F4DD298
:10186000DFE807F0030A1724313F0420B549088058
:10187000BB48B64908604DE001AABA49BAA0FFF7D3
:1018800018FDBDF80400AF490880B648AF490860AC
:1018900040E001AAB349B9A0FFF70BFDBDF8040071
:1018A000A8490880AF48A949086033E001AAAD49BA
:1018B000B6A0FFF7FEFCBDF80400A2490880A948C5
:1018C000A249086026E001AAA649B4A0FFF7F1FCEE
:1018D000BDF804009B490880A2489C49086019E0B3
:1018E00000E101AA9F49B0A0FFF7E3FCBDF80400A6
:1018F000944908809B48954908600BE00020914975
:101900000880924908608D48007840F080008B493B
:10191000087000BF05E08948007840F080008749E2
:101920000870E0E08548007840F0010083490870C5
:1019300083488078A0490870002082490880834944
:101940000860D0E09D4800788249087008467F49C9
:10195000086001207B490880C5E079488078974974
:1019600008704020C0238122002100909448FFF796
:1019700035FC40204FF488730122002100909048EC
:10198000FFF72CFC082043018222032100908C48A1
:10199000FFF724FC01208B490870A4E06848007818
:1019A00000F01F00D8B96648807801280BD16B4839
:1019B000C07900F0200070BB6048007840F08000E3
:1019C0005E49087037E05D48007840F080005B4970
:1019D000087030E079E077E083E02DE076E0584869
:1019E000007800F01F0002281FD155480079812897
:1019F0000DD006DC012809D0022809D003280CD11B
:101A000008E0822805D0832807D105E00CE00BE030
:101A10000AE009E008E00EE006E04848007840F0FF
:101A200080004649087000BF05E04448007840F057
:101A300080004249087056E04148007800F01F00DD
:101A4000B0B93F48807801280BD14448C07900F0F4
:101A5000200088BB3948007840F080003749087082
:101A600031E03648007840F08000344908702AE0C0
:101A70003348007800F01F0002281ED1304800795A
:101A800081280DD006DC012809D0022809D00328BE
:101A90000BD108E0822805D0832806D104E00BE0B2
:101AA0000AE009E008E007E006E02448007840F09A
:101AB00080002249087000BF05E02048007840F00F
:101AC00080001E4908700EE00DE00CE00020214966
:101AD0000870487002201B4908801E481B49086096
:101AE00001E000E000BF00BF1448007800F0800073
:101AF00080286AD11148007820F080000F490870D2
:101B000000BF00202168C1F3011181F0010108012B
:101B1000216848F68F7211400843206000BF00BF63
:101B200000202168C1F3013181F00101080321681F
:101B300011400843206000BFBDE8FC816A0200201C
:101B40005802002068020020C80200206002002025
:101B500000600040E80700206C0200207E020020A8
:101B6000C4020020F407002053544D6963726F656E
:101B70006C656374726F6E69637300004E6775798C
:101B8000656E206465702074726169003030303099
:101B900030303030303031410000000043444320C9
:101BA000436F6E666967000043444320496E746565
:101BB0007266616365000000650200206602002015
:101BC000005C00406B020020FFE73A48007800F01C
:101BD000020002284ED03848D0F8008035480078FE
:101BE00000F0010050BB35480088402813DD40203C
:101BF00033498880314800884038304908802E4871
:101C0000006840302C4908602A48007840F04000C5
:101C10002849087008E02948008829498880002060
:101C2000264908802449086025488088C0F30903B4
:101C3000234801884246204600F07EF900BF00207C
:101C40002168C1F3011181F003010801216848F600
:101C50008F7211400843206000BF00BF0020216840
:101C6000C1F3801181F0010188012168114008430E
:101C700020601BE000BF00202168C1F3013181F02A
:101C800003010803216848F68F7211400843206061
:101C900000BF00BF00202168C1F3803181F0010145
:101CA0008803216811400843206000BF00BFBDE8E1
:101CB000FC8100006A02002060020020680200200F
:101CC00000600040F0B500245F1C7E10002500EB92
:101CD000410707F5806500BF04E02F8817802D1DA0
:101CE000921C641CB442F8D3F0BD000008B5134840
:101CF000006820F480601149086040201823802289
:101D0000012100900D484438FFF768FA402058231D
:101D100000220121009009484438FFF75FFA074884
:101D20000830006820F080008030044908310860E5
:101D30000846006820F07F00086008BD445C004051
:101D400070B500240025E5E07648006800F00F003B
:101D5000754908700846007800287CD171480068F1
:101D6000C0F30010002857D0084600786F4901EBF7
:101D70008000D0F8000CC0F3C02028B36C48047B6E
:101D8000058923466B4A294666484438FFF79AFF7F
:101D900000BF002064490978644A02EB8101D1F850
:101DA000001C48F68F72114021F400405E4909780A
:101DB0005E4A02EB8101C1F8000C00BF5D49594841
:101DC0004438FFF7BDFCA5E057480078574901EBC0
:101DD0008000D0F8000CC0F3C0300028B3D000BFA2
:101DE000002051490978514A02EB8101D1F8001CC9
:101DF00048F68F72114021F400404B4909784B4A54
:101E000002EB8101C1F8000C00BF4748017845484A
:101E10004438FFF7C7FB7DE043480078434901EBB6
:101E20008000D0F8000CC0F3C010002872D000BFB2
:101E300000203D4909783D4A02EB8101D1F8001CA0
:101E400048F68F72114021F0800037490978374AEF
:101E500002EB810100E009E0C1F8000C00BF32484C
:101E6000017830484438FFF78BFA53E02D4800687A
:101E7000C0F3001030B32C4800782C4901EB8000EF
:101E8000D0F8000CC0F3C030F0B300BF00202649EA
:101E90000978264A02EB8101D1F8001C48F68F72BE
:101EA000114021F4004020490978204A02EB8101C9
:101EB000C1F8000C00BF1C4801781A484438FFF7ED
:101EC00071FB27E018480078184901EB8000D0F832
:101ED000000CC0F3C010B8B100BF0020124909784F
:101EE000124A02EB8101D1F8001C48F68F721140B2
:101EF00021F080000C4909780C4A02EB8101C1F8FD
:101F0000000C00BF084800E004E0017805484438B0
:101F1000FFF736FA03480068C0F3C03000287FF4AA
:101F200013AF70BD445C00406402002000500040CC
:101F300000600040A80700202DE9F041002403F1D3
:101F400001084FEA680C002500EB410808F58065A0
:101F50000AB9BDE8F081002409E01778521C92F814
:101F6000008047EA08262E802D1D521C641C644503
:101F7000F3D300BFEDE710B502460020147804F05B
:101F8000F0031478802C03D201240C70107810BD5B
:101F9000C02B06D102240C705078147840EA04203B
:101FA00019E0E02B09D103240C709078547840EAB2
:101FB0000420147840EA04400DE0F02B0BD10424F7
:101FC0000C70D078947840EA0420547840EA0440B9
:101FD000147840EA046000BFD9E700000146002001
:101FE000912200BF06E0054B53F820308B4200D110
:101FF00002E0401C9042F6D300BF70470C00002066
:10200000002807DB00F01F0201219140024A43092A
:1020100042F823107047000080E200E000280DDB4A
:1020200000BF00BF00F01F02012191404209920051
:1020300002F1E022C2F8001100BF00BF70470000AB
:1020400010B5002804DB0A07130E054A135406E0F6
:102050000A07140E034A00F00F031B1FD45410BDCF
:1020600000E400E018ED00E000B50146FEF7CCFA10
:10207000024600BFFEF7C8FA801A8842FAD300BDB4
:1020800010B500F037F80748FEF7CAFF06480749C1
:1020900008600846FEF720FB0348FEF7FBFCFEF74E
:1020A000FBFF10BD3F19010000540040D402002086
:1020B0007047FFF7E5FF01E0FFF7FAFFFCE70000DC
:1020C00010B5044604EB4402084B03EB82029188EE
:1020D00004EB440253F82200FEF78CFA04EB4401AF
:1020E000034A02EBC101C978484010BD943300088F
:1020F000F80200202E48006820F4803000F580307F
:102100002B49086000BF2A480068C0F340400028FF
:10211000F9D00220274908602548406820F40030A3
:10212000234948600846406820F4803000F580303C
:1021300048600846406820F4701000F5E0104860E0
:102140000846406820F0F00048600846406820F4E7
:10215000E06000F5806048600846406820F4605008
:1021600000F5205048600846006820F0807000F1BB
:102170008070086000BF0E480068C0F3406000280F
:10218000F9D00B48406820F00300801C08494860E3
:1021900000BF07484068C0F381000228F9D1044815
:1021A000806920F00100401C0149886170470000EF
:1021B000001002400020024000000000000000006B
:1021C000000000000000000000000000000000000F
:1021D00000000000000000000000000000100010DF
:1021E000001000100010001000100000001000008F
:1021F00000000000000000000000001400140014A3
:1022000000000000000000000000000000000000CE
:102210000000000000000000000900090012003F5B
:102220000012003F00120024002400000000000003
:10223000000000000008001C002A00280038000CE4
:10224000000A000A002A001C00080000000000002C
:1022500000000000801080280029001200024004C5
:10226000A008A008401000000000000000000000CE
:10227000000000070009000AC00C80180025002695
:102280002022C01D0000000000000000000000002F
:1022900000200020002000000000000000000000DE
:1022A0000000000000000000000000000000000826
:1022B000001000100020002000200020002000104E
:1022C00000100008000000000000000000200010C6
:1022D00000100008000800080008000800100010A6
:1022E000002000000000000000000008002A001C80
:1022F000002A0008000000000000000000000000AC
:1023000000000000000000000000000400040004C1
:10231000803F0004000400040000000000000000F2
:1023200000000000000000000000000000000000AD
:10233000000000000000003000100020000000003D
:10234000000000000000000000000000000000008D
:102350000038000000000000000000000000000045
:10236000000000000000000000000000000000006D
:10237000000000100000000000000000000000004D
:1023800000080008001000100010001000100020CD
:102390000020000000000000000000000000001C01
:1023A0000022002200220022002200220022001C23
:1023B00000000000000000000000000000080018FD
:1023C000000800080008000800080008001C0000C1
:1023D00000000000000000000000001C00220002BD
:1023E00000020002000400080012003E000000008D
:1023F0000000000000000000001C00220002000499
:10240000000C000200020002003C0000000000007E
:10241000000000000000000200060006000A001292
:102420000022003F00020002000000000000000047
:1024300000000000000E001000180004000200025E
:10244000000200040038000000000000000000004E
:102450000000000600080010002C003200220022BC
:102460000022001C0000000000000000000000002E
:10247000001E002200020004000400040004000802
:102480000008000000000000000000000000001C28
:102490000022002200140008001400220022001C68
:1024A000000000000000000000000000001C0022EE
:1024B000002200220022001E00040008003000005C
:1024C000000000000000000000000000000000000C
:1024D00000100000000000000000001000000000DC
:1024E00000000000000000000000000000000010DC
:1024F00000000000000000000018000800100000AC
:10250000000000000000000000000003001C00208C
:10251000001C00030000000000000000000000009C
:1025200000000000000000000000003F0000003F2D
:10253000000000000000000000000000000000009B
:102540000000000000000030000E0001000E00300E
:10255000000000000000000000000000000000007B
:1025600000180024002400040008001000100000DF
:102570000010000000000000000000000000C00784
:1025800020085013D024502850289028A0294026F5
:1025900010102008C007000000000000000800081C
:1025A000001400140012001E00210021807300009E
:1025B00000000000000000000000003E00110011BB
:1025C0000011001F801080108010003F00000000EC
:1025D0000000000000000000800E8011802000201C
:1025E0000020002080200011000E000000000000EC
:1025F000000000000000003F80104010401040101C
:10260000401040108010003F00000000000000005B
:1026100000000000003F001100100012001E001218
:1026200000108010003F00000000000000000000CB
:102630000000003F001100100012001E00120010E8
:102640000010003800000000000000000000000042
:10265000800E801180200020C021802080208010EA
:10266000000F000000000000000000000000C03962
:10267000801080108010801F801080108010C03962
:102680000000000000000000000000000038001002
:1026900000100010001000100010001000380000A2
:1026A00000000000000000000000001C00080008FE
:1026B00000080008000800080028003000000000A2
:1026C0000000000000000000C039001100120014DA
:1026D0000018001400120011C039000000000000B2
:1026E0000000000000000038001000100010001072
:1026F000001000108010003F0000000000000000EB
:102700000000000038383018501450149012901205
:102710009012101138390000000000000000000085
:102720000000C03180108018801480128012801147
:102730008010803800000000000000000000000051
:10274000000F80104020402040204020402080107A
:10275000000F000000000000000000000000003E2C
:10276000001100110011001E0010001000100038B0
:10277000000000000000000000000000000F8010BA
:10278000402040204020402040208010000F0002C8
:10279000C0010000000000000000003E0011001118
:1027A0000011001E001200120011C03800000000CD
:1027B0000000000000000000001E002200200010A9
:1027C000000C000200020022003C0000000000009B
:1027D000000000000000803F80240004000400048A
:1027E000000400040004000E0000000000000000CF
:1027F00000000000C0398010801080108010801010
:1028000080108010000F0000000000000000000099
:10281000000000770022002200220014001400149F
:102820000008000800000000000000000000000098
:102830007077202220224022401540158019800800
:10284000800800000000000000000000000080730D
:1028500000210012000C0004000C00120021807303
:102860000000000000000000000000008073002154
:10287000001200140014000800080008001C0000EA
:1028800000000000000000000000801F0011000296
:1028900000020004000880108010803F000000004B
:1028A0000000000000000000001C001000100010DC
:1028B000001000100010001000100010001C00009C
:1028C0000000000000000020002000100010001098
:1028D00000100010000800080000000000000000C8
:1028E0000000000000700010001000100010001028
:1028F0000010001000100010007000000000000028
:10290000000C001200120021000000000000000076
:1029100000000000000000000000000000000000B7
:1029200000000000000000000000000000000000A7
:10293000000000000000003F000000000000000058
:10294000001000080000000000000000000000006F
:102950000000000000000000000000000000000077
:10296000000000180024001C00240024001E0000A9
:1029700000000000000000000000006000200020B7
:10298000002C0032002200220022001C0000000067
:102990000000000000000000000000000000001C1B
:1029A0000024002000200024001800000000000087
:1029B000000000000000000600020002001A0026CD
:1029C000002200220022001F000000000000000082
:1029D0000000000000000000000000180024003C7F
:1029E000002000240018000000000000000000008B
:1029F0000000000E0012001000380010001000103F
:102A0000001000380000000000000000000000007E
:102A1000000000000000001E002400240018002018
:102A2000001C00220022001C0000000000000030FA
:102A3000001000100014001A001200120012003BD7
:102A40000000000000000000000000000010000076
:102A500000000030001000100010001000380000CE
:102A60000000000000000000000000100000000056
:102A700000300010001000100010001000100010B6
:102A80000060000000000000003000100010001680
:102A90000014001800140012003B000000000000A9
:102AA00000000000000000300010001000100010B6
:102AB00000100010001000380000000000000000AE
:102AC000000000000000000000008034401B4012A5
:102AD00040124012603B00000000000000000000B7
:102AE00000000000000000000034001A0012001274
:102AF0000012003B00000000000000000000000089
:102B0000000000000000001C002200220022002221
:102B1000001C000000000000000000000000000099
:102B20000000000000360019001100110019001605
:102B3000001000100038000000000000000000003D
:102B40000000001A0026002200220026001A0002BF
:102B5000000200070000000000000000000000006C
:102B600000340018001000100010003800000000B1
:102B7000000000000000000000000000001C002415
:102B80000030000C002400380000000000000000AD
:102B900000000000000000000010001000380010CD
:102BA00000100010001000180000000000000000DD
:102BB00000000000000000000000003600120012BB
:102BC00000120012000F00000000000000000000D2
:102BD0000000000000000000007300220014001438
:102BE00000080008000000000000000000000000D5
:102BF00000000000000060374012801280160009BB
:102C000000090000000000000000000000000000BB
:102C10000000000000360014000800080014003610
:102C200000000000000000000000000000000000A4
:102C3000000000770022002400140014000800089F
:102C40000010006000000000000000000000000014
:102C5000003E0024000800080012003E00000000B2
:102C60000000000000000000000400080008000848
:102C70000008001000080008000800080004000018
:102C800000000000000000200020002000200020A4
:102C90000020002000200020002000200000000074
:102CA00000000000001000080008000800080004F0
:102CB00000080008000800080010000000000000E4
:102CC000000000000000000000000000001A002CBE
:102CD00000000000000000000000001000080000DC
:102CE00000080008001400140012001E002100213A
:102CF00080730000000000000004000800000008CD
:102D00000008001400140012001E0021002180732E
:102D10000000000000000008001400000008000887
:102D2000001400140012001E002100218073000016
:102D300000000000001A001600000008000800143F
:102D400000140012001E002100218073000000000A
:102D5000000000040004001C000800080014001417
:102D60000012001E002100218073000000000000FE
:102D7000000800040000003F001100100012001EB7
:102D8000001200108010003F000000000000000250
:102D900000040000003F001100100012001E00128D
:102DA00000108010003F0000000000000004000A36
:102DB0000000003F001100100012001E0012001061
:102DC0008010003F00000000000000200010000004
:102DD000003800100010001000100010001000104B
:102DE000003800000000000000080010000000385B
:102DF000001000100010001000100010001000382B
:102E0000000000000000000400020000000F80101D
:102E1000402040204020402040208010000F000033
:102E200000000000000200040000000F801040209D
:102E300040204020402040208010000F0000000073
:102E40000000000200050000000F8010402040201C
:102E50004020402040208010000F000000000000B3
:102E6000000D000B0000000F80104020402040208B
:102E7000402040208010000F0000000000000004EF
:102E800000020000C0398010801080108010801077
:102E900080108010000F00000000000000020004FD
:102EA0000000C039801080108010801080108010C9
:102EB0008010000F00000000000000140008000057
:102EC00000080008001400140012001E0021002158
:102ED0008073000000000000000000000000003FC0
:102EE00080104010403E4010401040108010003FC5
:102EF0000000000000000034002C0000003800102A
:102F00000010001000100010001000100038000029
:102F100000000000800500070000C039801080100C
:102F200080108010801080108010000F00000000C2
:102F30000000000000004000C00F80104020402032
:102F40004020402040208010000F000000000000C2
:102F5000000000000000001000080000001800241D
:102F6000001C00240024001E0000000000000000DF
:102F70000000000000040008000000180024001CED
:102F800000240024001E00000000000000000000DB
:102F9000000000080014000000180024001C002499
:102FA0000024001E000000000000000000000000DF
:102FB0000034002C000000180024001C0024002411
:102FC000001E0000000000000000000000000010D3
:102FD0000008000000180024003C00200024001815
:102FE00000000000000000000000000000040008D5
:102FF000000000180024003C0020002400180000FD
:1030000000000000000000000000000800140000A4
:1030100000180024003C00200024001800000000DC
:103020000000000000000000002000100000003040
:103030000010001000100010003800000000000018
:103040000000000000000008001000000030001028
:103050000010001000100038000000000000000008
:1030600000000000001000080000001C00220022E8
:1030700000220022001C00000000000000000000F0
:103080000000000400080000001C002200220022B2
:103090000022001C000000000000000000000000F2
:1030A000000800140000001C002200220022002260
:1030B000001C000000000000000000000000001ADA
:1030C00000160000001C0022002200220022001C2A
:1030D00000000000000000000000000000080004E4
:1030E000000000360012001200120012000F000053
:1030F00000000000000000000000000400080000C4
:1031000000360012001200120012000F0000000032
:10311000000000000000000000140008000000187B
:103120000024001C00240024001E000000000000F9
:103130000000000000000006000F0002001A002638
:10314000002200220022001F0000000000000000FA
:1031500000000000009000E000000060002000205F
:1031600000200020007000000000000000000000AF
:103170000000001A001600000036001200120012B3
:103180000012000F0000000000000000000000001E
:10319000000000000000001D002300220022002289
:1031A000001C000000000000000000002000E039CA
:1031B0008010801080108010801080108010000F10
:1031C00000000000000000140008000000080008D3
:1031D000001400140012001E002100218073000062
:1031E000000000000008001400000008000800149F
:1031F00000140012001E0021002180730000000056
:1032000000000004000A0000003F0011001000123E
:10321000001E001200108010003F0000000000009F
:10322000000200050000000F8010402040204020D8
:10323000402040208010000F00000000000000002F
:103240000000000000000000000080368013001223
:1032500000120012000F000000000000000000003B
:10326000000000140008000000180024001C0024C6
:103270000024001E0000000000000000000000000C
:1032800000080014000000180024001C0024002482
:10329000001E000000000000000400000000000804
:1032A0000014000000180024001C00240024001E4C
:1032B00000000000000000000000000000080014F2
:1032C000000000180024003C00200024001800002A
:1032D00000000000000000000000000800140000D2
:1032E000001C0022002200220022001C000000001E
:1032F000000005060708080C0B0406060809050669
:103300000505080808080808080808080505090947
:1033100009070D0B0A0A0B09090B0B06070B090E0F
:103320000B0B090B0A080A0B0A0E0B0B0A06050603
:103330000808060708070807070708050508050B1A
:103340000808090806070608080B07090808040802
:10335000080B0B0B0B0B09090906060B0B0B0B0BD0
:103360000B0B0B060B0B07070707070707050508DD
:10337000080808080807080508080B0B0B090B09C3
:1033800007070707080000000E0F0000B82100081B
:10339000F23200080008014002004800010000006D
:1033A000000801400400480001000000000801403E
:1033B000080048000100000000080140100048001B
:1033C0000100000042C3B969204E677579C3AA6E37
:1033D000202D204F6D65676120566F6E2050656906
:1033E000202D2042C3B9692056C4836E204E6775D4
:1033F00079C3AA6E202D203238202D203034202D84
:103400002032303031000000283400080000002055
:10341000D402000028010008D0350008D4020020A2
:10342000140F000084010008C13220322132223200
:1034300023322432253226322732283229322A32C8
:103440002B322C322D322E322F3230323132323278
:1034500033323432353236323732383239323A3228
:103460003B323C323D323E323F32403241324232D8
:1034700043324432453246324732483249324A3288
:103480004B324C324D324E324F3250325132523238
:1034900053325432553256325732583259325A32E8
:1034A0005B325C325D325E325F3260326132623298
:1034B00063326432653266326732683269326A3248
:1034C0006B326C326D326E326F32703271327232F8
:1034D00073327432753276327732783279327A32A8
:1034E0007B327C327D327E2380C31A81041A8204AF
:1034F0001A830414A4BAE11A88081A89041A8A04DF
:103500001A8C041A8D041A92041A93041A94041A39
:1035100095041A99042A9A3822C41A90042AA804F5
:1035200022C51BA0C60419181AA1041AA2041AA3C2
:10353000041AA8041AA9041AAA041AAC041AAD049D
:103540001AB2041AB3041AB4041AB5041AB9042A34
:10355000BA8419481A91042AA90419501AA1501AB8
:10356000AF04296829A4299429841AB014292C2984
:10357000641AA5B4295C294C011413120114020227
:103580000216408304405718090201020301090290
:1035900043091125C03209041B01020B130524162F
:1035A0001001052401100901042402020524061754
:1035B0000107058203081C1009043F320A2E070583
:1035C000010240072A8107312B04033FA1000000BC
:04000005080000ED02
:00000001FF
